:020000040000FA
:0600000002011A02303D6E
:03002B0002376138
:03003B0002378AFF
:0300430002373849
:030053000230B3C5
:10008300022E93E5C754F84401F5C7790122000015
:100093000080FB120086B90003020104E479217891
:1000A30008B800028004F709D8FCE479297802B87B
:1000B30000028004F709D8FCE490028178A4791740
:1000C3008002F0A3D8FCD9FA781A90014A7A01BACF
:1000D30000028007E493A3F608DAF97A247B1990E7
:1000E300014B78AC79058015E493A3AD82AE838A86
:1000F300828B83F0A3AA82AB838D828E83D8E9D9C6
:10010300E77582517583CA740412012C7582917547
:100113008300740012012C75D00075813F7518811E
:10012300751902759F00020096C09FF59FE473D076
:100133009F22D083D082C09FE493C0E0740193C018
:10014300E0740293F59F2201110199010F126404D7
:1001530000AD27011131040102F08A010000AB8ACE
:1001630002D88A010000291902F68A0100002A191F
:1001730002D48A030000890202C08A0100003219F6
:1001830002D28A0100002B19FF0000B400002800EE
:100193002800283075A000A000A000A000000800DF
:1001A30008E001F000100010001000100010001013
:1001B3000050005000500010001000D00700000055
:1001C3000000000F0001000500307507001000015A
:1001D3000081FF00000000FFFFFFDE08FC08E408C9
:1001E3002009FF02020208025000A0000000E803F9
:1001F30002F08A010000AE8A02D88A010000BF190A
:1002030002D08A010000C90202D88A010000C01985
:1002130002CE8A010000DF0202D88A010000C11960
:1002230002CC8A010000E10202D88A010000C2194F
:1002330002CA8A080000E20202D88A010000C31938
:1002430002C88A010000C419FF0100FF2002F08ADE
:10025300010000B18A02D88A010000281A02C48A68
:10026300000000000002D48A030000100317008678
:100273000F860F860F860F860F860F860F860F86D3
:100283000F860F860F860F860F3E125012381212FA
:10029300080802F08A010000BA8A02D88A01000025
:1002A3006B1A02128B0100002F0702D48A0300008D
:1002B300350702D88A0100006C1A02108B02000075
:1002C300370702D88A0100006D1A020E8B02000064
:1002D3003F07020202313233343536373839303191
:1002E3003200020202020202010D000000100102AC
:1002F300F08A010000A88A02D88A010000AE1A021F
:10030300088B010000400702D88A010000AF1A02DF
:10031300068B010000868902D88A010000B01A0208
:10032300048B010000B11A02D88A010000BE1A0230
:10033300028B0100003E8802D88A010000BF1A0226
:10034300008B010000448A02D88A010000C01A020F
:10035300FE8A0100000D8902D88A010000C11A0239
:10036300FC8A010000D28602D88A010000C21A0268
:10037300FA8A010000D78702D88A010000C31A0253
:10038300F88A010000C41A5050401346135E134C00
:100393001364136A135213701376135813010577FA
:1003A300100A0A42141209456C61726101020304C6
:1003B30005060708090A0B0C020A000201061BFFC7
:1003C3004C000215FDA50693A4E24FB1AFCFC6EBD7
:1003D30007647825271109E0C5BB1C0402F08A01D4
:1003E3000000BD8A02D88A010000B61B025B8902A5
:1003F3000000930F02D48A030000960F02D68A01ED
:100403000000668802D88A010000B61B025D8902DB
:100413000000940F02D48A030000980F02D68A01C9
:100423000000528802D88A010000B71B025F8902CC
:100433000000950F02D68A010000F187FFFFFF003D
:1004430001307503020106000000000000000000F7
:100453000000000000000000000000000000000099
:10046300000000FFFF0600800CE8035018441856F4
:10047300185C18621868184A180000471C0A436879
:100483006172616374657269737469632031000218
:10049300436861726163746572697374696320325E
:1004A3000008436861726163746572697374696398
:1004B30020330010436861726163746572697374F9
:1004C3006963203400024368617261637465726911
:1004D3007374696320350002F08A010000B78A0251
:1004E300D88A010000591C02DC8A030000061902A5
:1004F300D68A0100005A1C02D88A0100006B1C0234
:100503000C8B010000071902D68A0100006C1C0243
:10051300D88A0100007D1C02E08A0200000819024B
:10052300D68A0100007E1C02D88A0100008F1C02BB
:10053300E28A000000091902D48A0300000A1902A2
:10054300D68A010000901C02D88A010000A11C0277
:10055300E48A0400000C1902D68A010000A21C10D0
:100563004B65792050726573732053746174650011
:1005730002F08A010000B48A02D88A0100003B1D00
:1005830002EC8A000000111902D48A030000121938
:1005930002D68A0100003C1D010008002000400033
:1005A30080000001000430313233343536373839B6
:1005B30041424344454600286E756C6C20706F6958
:1005C3006E74657229003031323334353637383939
:1005D300616263646566003F3F3F000000807F0007
:1005E30000803FF9021550B743BA5100E7DB2E00F4
:1005F30000A040120135FE9904120135169B041226
:100603000135489B04120135529C04120135A59C07
:1006130004120135329F01120135B69F01120135D3
:1006230015A00112013567A101120135D9A30112E9
:1006330001352CA4011201352FA90112013590A90E
:10064300011201353FB00112013530B201120135FB
:100653000DAC0312013552AC03120135CAAC0312BF
:10066300013591AD0312013532AE03120135FBAEF4
:100673000312013539AF031201354EB003120135B0
:100683008EB1031201350CB203120135D3B203123A
:100693000135AA9604120135049704120135159702
:1006A300041201353C9704120135E7970412013512
:1006B3007A98041201353D9904120135ED8B041229
:1006C3000135008C04120135318C041201356B8C19
:1006D30004120135C48C041201350B8D041201354B
:1006E300538D04120135828D04120135B18D04122C
:1006F3000135E88D041201352F8E04120135488E21
:10070300041201359D8E04120135B68E0412013593
:10071300048F041201353E8F041201353C930312FA
:1007230001353F94031201357894031201359B94EC
:1007330003120135AD9403120135EB940312013515
:100743006795031201352F96031201355196031253
:100753000135E896031201353A97031201356B9779
:1007630003120135789703120135E297031201351D
:100773003998031201353C98031201357598031219
:100783000135789803120135829803120135D69802
:10079300031201351799031201354A9903120135E2
:1007A300879903120135899A031201352D9B031290
:1007B3000135969B03120135D49B0312013504FCCA
:1007C300031201352CFC0312013559FC03120135C8
:1007D30091FC03120135EFFC031201353BFD0312BB
:1007E3000135A2FD03120135E2FD031201351FFE9F
:1007F300031201354DFE03120135F7FE03120135D5
:1008030001FF031201350EFF0312013541FF0312ED
:1008130001354DFF0312013565FF031201356FFFEB
:1008230003120135AAC304120135B8C304120135FA
:10083300D0C304120135E7C3041201357EEA011265
:10084300013528EB011201353BEC01120135B7EC00
:1008530001120135D5ED0112013511EE01120135F9
:10086300ACEE0112013590EF011201355CF001127B
:100873000135EAF1011201355BF20112013515F37D
:100883000112013507F40112013547F40112013554
:10089300FBF4011201352DF50112013523F7011285
:1008A300013565F70112013583F701120135E9F7C7
:1008B30001120135B8F8011201357CF90112013535
:1008C3009BFB01120135B4B3031201359EB403122D
:1008D300013549B5031201359AB5031201354AB6FC
:1008E30003120135BBB603120135A0B7031201355C
:1008F300D4B703120135CDB8031201350AB9031277
:100903000135E6B90312013525BA0312013541BA9F
:100913000312013501B30412013585B30412013505
:10092300B0B304120135CAB40412013505880412A8
:1009330001351B88041201353988041201354A89AF
:10094300041201355489041201357F8A04120135DA
:10095300768B04120135E38B04120135E4F902129C
:10096300013514FB021201358EFB02120135BEFB69
:1009730002120135D1FB021201351BFC02120135B3
:10098300DEFD021201356AC601120135F6C60112F7
:1009930001355AC80112013566C801120135A1C8D3
:1009A3000112013510C90112013519CA01120135AD
:1009B30022CB01120135E9CB0112013546CD0112DB
:1009C300013564CD0112013581CD011201352ECEE1
:1009D30001120135ABCE01120135D3CE011201351F
:1009E3009DD101120135A2D101120135BBD30112F0
:1009F300013509D40112013579D401120135B7D477
:100A03000112013593D50112013553D60112013577
:100A13009FD601120135A2D601120135E6D6011285
:100A230001352ED7011201356DD7011201358FD74C
:100A330001120135C3D70112013526D80112013540
:100A430056C60312013564C603120135B7C6031235
:100A53000135D6C6031201351BC7031201355FC822
:100A630003120135FAC8031201353EC903120135D9
:100A730068C903120135D7C9031201351DCA031210
:100A8300013594CA0312013545CB031201350F38E2
:100A930000120135B038001201350C39001201354E
:100AA300C93900120135E53A00120135173B00122E
:100AB3000135463B00120135F33C001201356A3F14
:100AC30000120135DA4100120135CC420012013522
:100AD300C54300120135CC4500120135C048001250
:100AE3000135EF4900120135F34B00120135034D77
:100AF30000120135924E00120135834F0012013569
:100B0300D14F0012013540500012013564500012DC
:100B13000135B550001201355655001201355756AF
:100B230000120135B85600120135E35600120135A3
:100B3300A957001201350080041201350A800412FE
:100B430001354F8004120135638004120135F380AF
:100B5300041201352C810412013567810412013519
:100B6300908104120135E48104120135F9810412E4
:100B730001351B820412013530820412013544828F
:100B8300041201355982041201359382041201358E
:100B9300BF8204120135468304120135898304128E
:100BA3000135B38304120135DE8304120135B2BE6D
:100BB300041201358775001201356A76001201357A
:100BC300E5760012013520770012013571780012A5
:100BD3000135FF7800120135917B00120135437C0A
:100BE300001201354F7D00120135C27E001201351E
:100BF3001B7F00120135AAE603120135EDE603124D
:100C0300013571E70312013548EA0312013593AA4E
:100C13000412013545AB0412013541AC0412013510
:100C230080AC04120135DAAC04120135CDB60412DE
:100C3300013530B704120135CDB70412013502B8BE
:100C43000412013532B8041201356DB804120135AE
:100C53008DB80412013557CB03120135E3CB0312D0
:100C63000135A2CC03120135BACD03120135D4CF1D
:100C730003120135A4D902120135C9D90212013573
:100C830096DA021201356ADB02120135D7DB021252
:100C9300013517DC02120135B3DC02120135E7DD41
:100CA30002120135C2DE0212013521DF02120135C3
:100CB300ADDF021201351BE002120135A7E002127B
:100CC3000135EDE0021201355FE102120135F1E178
:100CD3000212013592E202120135B2E2021201352B
:100CE300FAE20212013543E3021201355FE3021215
:100CF300013585E302120135FFE3021201350DE4EC
:100D0300021201359CE40212013505E50212013598
:100D1300A9D4031201352ED50312013570D5031260
:100D2300013554D603120135C1D60312013505D757
:100D33000312013549D70312013576D70312013562
:100D43009ED703120135D6D70312013514D80312E7
:100D530001353BD803120135B5D803120135FFD84D
:100D63000312013566900212013505920212013514
:100D73003D9402120135919402120135BC94021282
:100D83000135989502120135C89502120135F79580
:100D9300021201350A96021201354B9602120135F1
:100DA300789602120135C696021201350297021295
:100DB30001354797021201359497021201350E98B7
:100DC300021201354F9A02120135399C0212013584
:100DD300759C02120135049E02120135499E0212CE
:100DE3000135BC9E02120135119F02120135759F18
:100DF3000212013594A002120135A5A00212013599
:100E03000080031201357980031201353386031202
:100E130001353E8703120135E788031201357589D1
:100E2300031201351A8B011201359B8B0112013517
:100E3300C88B01120135118C01120135128D01127B
:100E430001356B8D01120135E78E01120135698F72
:100E530001120135848F01120135F58F011201351D
:100E6300B2900112013575910112013503920112FD
:100E73000135BA9201120135CD9201120135669303
:100E830001120135FD93011201352494011201353C
:100E93008D9401120135D794011201352595011264
:100EA3000135CC95011201356A9601120135F79689
:100EB30001120135689701120135AF97011201350F
:100EC300079801120135399801120135FA98011278
:100ED3000135FD9901120135469A01120135639AD4
:100EE30001120135829A01120135B59B01120135B8
:100EF3006C9C01120135919C01120135A69C0112D3
:100F03000135169D01120135579D011201357B9E56
:100F130001120135FC9E011201359F89031201352F
:100F2300EA8903120135F68903120135CA8A0312CD
:100F33000135E18A031201351E8B031201354F8BF4
:100F430003120135878B03120135DD8B0312013543
:100F5300F38B031201352F8C03120135428C0312DC
:100F63000135698C031201359D8C03120135C38D44
:100F7300031201350D8F0312013509900312013558
:100F83001F9103120135F37F0012013555AF021291
:100F9300013584AF02120135D6B2021201352DB4E8
:100FA30002120135ECB40212013553B802120135B5
:100FB3003FB90212013591B902120135ABB90212E0
:100FC3000135DDB902120135E8B902120135F1B973
:100FD30002120135A3BA0212013573BB02120135A5
:100FE300BABB0212013520BC0212013592BC0212B7
:100FF3000135FED8011201353EDC0112013544DC16
:101003000112013503E30112013528E7011201350D
:10101300A68F041201353C9004120135529004123C
:101023000135AB9004120135EF900412013529917B
:1010330004120135C19104120135309204120135B5
:101043003992041201354592041201355F9204125C
:1010530001358992041201359E92041201350093E1
:101063000412013527930412013585F30312013568
:1010730092F303120135ACF303120135DFF30312CC
:1010830001351DF40312013582F40312013597F47F
:1010930003120135A2F403120135AFF40312013533
:1010A300C6F403120135D4F403120135DFF403123D
:1010B3000135EBF403120135FAF40312013505F59A
:1010C3000312013528F503120135CCF5031201355E
:1010D300DCF503120135F6F50312013513F603129D
:1010E30001352EF60312013553F6031201355EF670
:1010F3000312013573F60312013587F60312013526
:10110300E8F603120135EEF603120135F4F6031285
:101113000135FAF60312013512F70312013545F7CB
:101123000312013521CC02120135B8CC021201356C
:1011330050CD0212013540CE0212013577CE021294
:1011430001358ACE02120135F8CE0212013593D051
:1011530002120135BAD0021201355CD102120135F7
:1011630091D102120135A2D1021201351BD2021212
:1011730001353CD20212013554D202120135ACD3EF
:1011830002120135B5D50212013505D80212013517
:1011930008D90212013557D902120135C8A002122B
:1011A3000135C5A102120135B0A202120135BAA25E
:1011B30002120135DCA202120135E8A20212013546
:1011C3003AA40212013569A40212013599A502124B
:1011D3000135DBA50212013507A702120135DDA790
:1011E300021201352FA8021201358EA80212013511
:1011F300C5A80212013500A9021201359BAC0212E7
:101203000135B4AC0212013536AD0212013544ADDD
:101213000212013599AD02120135A7AD0212013553
:1012230014AE0212013586AE02120135CCAE0212A3
:10123300013528E5021201354AE50212013534E78A
:1012430002120135D9EA021201351CEC02120135F2
:10125300F6EC021201359BB804120135C0B8041232
:10126300013531B904120135FA9B03120135039C90
:10127300031201350C9C031201353D9D0312013508
:101283005C9F03120135929F03120135CC9F031219
:10129300013502A0031201353CA00312013570A0F1
:1012A300031201359CA003120135E5A00312013599
:1012B3001FA10312013567A103120135BDA103125A
:1012C3000135F2A1031201354DA20312013587A2A4
:1012D30003120135D8A2031201350EA303120135FF
:1012E30048A30312013576A30312013599A3031210
:1012F3000135B7C604120135E3C6041201353EC7F2
:101303000412013548C70412013558C704120135C8
:1013130007A80412013539A80412013556A804128E
:101323000135A2A8041201355CA904120135F39C0E
:10133300041201351A9D041201355A9D0412013518
:1013430043EF03120135A7EF03120135FAEF03123E
:10135300013595F003120135F8F003120135FDF064
:1013630003120135D5F103120135F5F203120135EC
:1013730053F30312013574F30312013579BD0412DB
:10138300013539BE0412013547BE0412013555BE7D
:101393000412013568BE0412013571BE0412013511
:1013A3007ABE0412013597BE04120135A0BE0412A1
:1013B3000135A9BE04120135ADFF0212013528B370
:1013C30001120135DBB40112013538B501120135C3
:1013D30035B601120135BDB60112013542B701120E
:1013E30001353ABA01120135B0BA01120135A1BB78
:1013F30001120135DBBB011201351BBC01120135A2
:10140300C1BD0112013514BE0112013561BE0112C5
:101413000135CFBE01120135F6BE0112013510BFF1
:101423000112013540C00112013557C001120135C7
:1014330051C20112013573C201120135A9C2011251
:10144300013557C401120135D7C40112013516C540
:101453000112013545C601120135CDDD03120135F7
:1014630025DE031201356DDF03120135DCDF0312C4
:1014730001358BE003120135AAE003120135FEE0CA
:10148300031201353CE1031201353DC50412013558
:101493004EC504120135F1C504120135A9CA04125F
:1014A3000135E8CA0412013512CC0412013577C4A0
:1014B3000412013587C4041201359CC4041201359A
:1014C30030C504120135C6BF041201354AC00412E7
:1014D3000135B0C004120135F07F001201350684D6
:1014E300041201351A840412013593840412013560
:1014F3006885041201353A87041201359F87041267
:101503000135F28704120135F87F00120135F9B471
:101513000412013569B604120135CAB60412013545
:10152300559304120135E6930412013562940412B3
:101533000135069504120135B69504120135069658
:10154300041201351096041201351F960412013559
:10155300359604120135489604120135A7960412F4
:10156300013538F002120135F7F102120135A1F409
:1015730002120135E9F40212013502F702120135B4
:101583008EF702120135B7F702120135EBF702129B
:101593000135FAEA031201351EEC03120135E4ECBE
:1015A30003120135F1ED03120135C5EE03120135C6
:1015B300CFEE03120135D9EE031201356BA50412E8
:1015C300013557E20312013571E303120135A8FB1C
:1015D30001120135D0FC01120135C7F703120135A1
:1015E300D3F803120135A2BA0312013529BB031242
:1015F300013540BB0312013547BD031201356BBEF4
:10160300031201359ABF03120135C3C0031201351A
:10161300EFBB0412013518BC0412013541BC04129E
:101623000135DABC04120135F2BC0412013534BDB4
:1016330004120135DCC003120135E6C00312013583
:1016430026C1031201356FC103120135A9C103126B
:101653000135FFC1031201351EC20312013527C232
:101663000312013578C203120135A1C203120135F9
:10167300B6C20312013543C303120135CBC30312B0
:1016830001350FC40312013537C403120135ACC44D
:1016930003120135E8C40312013535C503120135C0
:1016A30047C50312013566C5031201356FC5031221
:1016B30001352AC60312013551BA04120135A2BA03
:1016C300041201352BBB0412013591BB0412013501
:1016D300A7A204120135D1A204120135CBA304122F
:1016E3000135FAA30412013580A404120135C6C1E1
:1016F3000412013598C90412013505AD04120135F0
:101703003BAD0412013574AD04120135CDAE0412A4
:10171300013562C70412013578C70412013582C747
:1017230004120135D8C70412013527A40312013569
:10173300E4A4031201351FA50312013547A50312C3
:101743000135A9A503120135F5A50312013555A6E7
:1017530003120135E6A603120135E2A70312013590
:101763006FA903120135F2A90312013556AA031218
:1017730001356DAA0312013563AB03120135AFAB1B
:10178300031201353FD90312013554D90312013530
:1017930004DA0312013544DA031201355DDA031268
:1017A300013590DA03120135DDDA0312013511DB5D
:1017B3000312013553DB031201355ADD03120135E0
:1017C300C0DD03120135E1BD0212013598C10212D9
:1017D30001352AC30212013581C302120135A0C3A8
:1017E300021201351EC402120135B0C502120135C1
:1017F30094C602120135A5CA0212013579CB021231
:10180300013507AF041201350EAF0412013510AFD5
:101813000412013518AF04120135F1B00412013579
:10182300F8B004120135FAB004120135FDB0041208
:101833000135FFB00412013502B104120135D3CBD7
:1018430004120135FCC50412013503C60412013527
:101853000BC6041201350DC60412013510C604125D
:10186300013573C60412013591C6041201359FC8B0
:1018730004120135B6C804120135DE9F0412013586
:1018830046A00412013563A004120135B6A0041268
:10189300013599A104120135CEC00412013533C1BB
:1018A300041201350BD00312013516D00312013592
:1018B300B4D0031201357BD103120135ADD103122C
:1018C3000135D6D10312013530D2031201358ED240
:1018D3000312013507D30312013536D30312013541
:1018E30057D30312013593D303120135D3D3031214
:1018F30001353DD4031201357AD40312013522C9CF
:10190300041201355CC90412013515580012013562
:101913002D58001201355458001201359F580012FA
:101923000135BC5800120135DB5900120135375B14
:1019330000120135285C00120135105D00120135DB
:101943005C5E00120135885F00120135CA64001223
:1019530001359C65001201359F65001201356A66E9
:1019630000120135C46600120135456800120135C5
:10197300AE6A00120135636D00120135146E001258
:101983000135A36E001201350B7000120135927000
:10199300001201356F710012013598720012013582
:1019A3002D7300120135D17300120135DF7300125C
:1019B30001353F740012013555740012013505B12C
:1019C3000412013548B104120135BDC204120135B8
:1019D300008002120135138502120135F2CA041286
:1019E3000135C47F0012013509C80412013533C81B
:1019F3000412013573CB0412013538CB04120135BF
:101A0300AACB04120135F4CB04120135F7C904E75C
:101A13006670100809E766700A0809E7667004082B
:101A230009E76622E066701008A3E066700A08A35F
:101A3300E066700408A3E06622C3E7960809E79608
:101A43000809E7960809E796A2D265D03322C3E0D6
:101A53009608A3E09608A3E09608A3E096A2D265B1
:101A6300D03322C008C3E096F50808A3E0964208E5
:101A730008A3E096420808A3E0964208A2D265D0E4
:101A830033E5087001D3D00822C3E7960809E79627
:101A93000809E7960809E79622C3E09608A3E096AB
:101AA30008A3E09608A3E09622C008C3E096F508D1
:101AB30008A3E096420808A3E096420808A3E0962C
:101AC30045087001D3D00822080808E630E7111250
:101AD3002385121AE3080808C64480C6181818227A
:101AE300181818E9799EC608CAC608CBC608CCC61A
:101AF300C370207996CACBCC7019798ECBCC701376
:101B03007986CC700EF9802ACA33CACB33CBCC3357
:101B1300CC331930E7F2CCCBCA3350147004EA301B
:101B2300E00DE4CA3ACACB3BCBCC3CCC500209C350
:101B3300E913C6CC182313C6CB18C6CA18C6F92294
:101B4300121B8320F01430E72B74FFFCFBFA747F25
:101B53008022E4FCFBFA7480801AB48008BC00F293
:101B6300BB00EF800F50EBF9E4C39AFAE49BFBE46C
:101B73009CFCE499C6CC18C6CB18C6CA18C6F92271
:101B8300E4C9C608CAC608CBC6D3330308CCC633D8
:101B930092F0C3947F402E94184019C9B90704CA20
:101BA300CBCC225025C309CA33CACB33CBCC33CCDD
:101BB30033D9F422F4600DC9CCC313CB13CBCA13AE
:101BC300CAD9F6CC22E4FCFBFA2214FCFBFA22E687
:101BD3002618461846184622E72719471947194772
:101BE30022181818E60846087009E626087005E664
:101BF30033F4220822191919E70947097009E7275D
:101C0300097005E733F4220922E6084608C31346A0
:101C130008336002E633F422E7094709C31347098F
:101C2300336002E733F422121C0C6025121C1B6084
:101C330020121BD27003021BDB080808E766701032
:101C43001819E766700A1819E76670041819E76629
:101C530022F422121C0C601C121C1B6017121BD2D4
:101C63007007121BDB7001D322C0D0121BDB70067E
:101C7300D0D0B322C32233D0D0501430E0F6C3E720
:101C8300960809E7960809E7960809E796B322201C
:101C9300E0D5E6970809E6970809E6970809E69765
:101CA300B322121C0C601B121C1B6016121BD27079
:101CB30007121BDB600CB322C0D0121BDB7005D0F4
:101CC300D022C32233D0D0501330E0EBC3E79608C1
:101CD30009E7960809E7960809E7962220E0E4E673
:101CE300970809E6970809E6970809E6972200127C
:101CF3001C0C604F121C1B6012E7548066F6121B0B
:101D0300E47011121BDB703B090909F4F618F6188D
:101D1300F618F622121BF87015121BD20808086079
:101D2300EAE6447FF618768018E4F618F622121BCA
:101D3300D26016121BDB7012E4F608F608F608E60A
:101D43005480F609090918181822EAC0E0EBC0E02C
:101D5300ECC0E0EDC0E0E687F0A4FBACF008E6875A
:101D6300F0A42CFCE435F0FA1809E687F0A42C4B18
:101D730060027401CA35F0FCE433FB09E687F0D254
:101D8300F7A42CCB35F0FC1908E687F0A42BCC354F
:101D9300F0FBE433FD0819E687F0D2E7A42C4ACB25
:101DA30035F0CD3400FC09E687F0D2E7A42DCC351D
:101DB300F0FDE433FA0918E687F0D2F7A42CCD3509
:101DC300F0CA3400FC08E687F0D2E7D2F7A42ACCA5
:101DD30035F07A7E20E70B0ACB33CBCD33CDCC3332
:101DE300CC33CB3350147004ED30E00ED2F1E4CD9C
:101DF3003DCDCC3CCC3B5005DA05C2F1EB547FC65C
:101E03003308E63392F0FBE73309E733C39A502DE7
:101E13002B70190C0D4C4D70151806E608C3337062
:101E23000D20F10AA2F013F6E418800B4024E4F627
:101E330030F002768018F618F618F68024D33B1497
:101E4300501074FFA2F013F6187680E418F618F613
:101E5300800FA2F013F618E63303F618ECF618ED2C
:101E6300F6D0E0FDD0E0FCD0E0FBD0E0FA22121C7B
:101E73001B6046121C0C603DE9687008F618F618E2
:101E8300F618F622748067F7121EA50909097480F3
:101E930067F722121C0C601D121C1B7005191919FF
:101EA300801A121BE4701F121BF8C37003E667331A
:101EB30019191940071818182208080874FFF6188A
:101EC300F618F618F622121BF86017121BDB7021A6
:101ED30092F0121BD27019501720F0140808080949
:101EE3000909E7F61819E7F61819E7F61819E7F6D6
:101EF30022121BD260E6E869701F0808E62480F608
:101F030008E436F618547FB47F0CE654806007F675
:101F1300E418F618F622181822E9C6CC08C6CD082C
:101F2300C6CE08C6CFC0E0E8C0E0EAC0E0EBC0E040
:101F330009E9F809E7FA09E7FBE6F918E6F8C3EC5B
:101F430098ED99EE9AEBC2E7F5F0EFC2E795F05002
:101F53000E600CEBCFFBEACEFAE9CDF9E8CCF8EA58
:101F6300A2E7D2E7FAEB33FB13F5F0EEA2E7D2E7F1
:101F7300FEEF33FFC5F013A2E730E601B313C5F05C
:101F8300C3C0E0C0F07F00C39BFB605E9418600F8A
:101F9300401D14601AD0E023F9D0E0F80220778ABC
:101FA300F0E9486003D2F0E4AFF0FAF9F8803BEBD4
:101FB30030E40D89F0EA6003D2F0E4AFF0F9CAF837
:101FC300EB30E30D88F0EF6002D2F0AFF0E4CAC962
:101FD300F8EB54076014FBC3EA13FAE913F9E813A7
:101FE300F8EF135002D2E0FFDBEDD0E0C0E030E7C2
:101FF30039C3E49FFFF5F0EC98FC42F0ED99FD4204
:10200300F0EE9AFE42F0D0E0F9D0E0F8E5F0607A25
:10201300E923F9EE20E742D8028067C3EF33FFECF0
:1020230033FCED33FDEE33FE80EAEC28FCED39FDA5
:10203300EE3AFED0E023F9D0E0F84002801BC3EE75
:1020430013FEED13FDEC13FCEF135002D2E0FF0877
:10205300B800067F7F74FF802EEF3350178CF0207B
:10206300F00260100CBC000C0DBD00080EBE000495
:1020730008E860DFE933E813FFEE2313FE4F4D4C0E
:102083008008E95480FFE4FEFDFCEE33EF33F47087
:1020930004FCFD7E80D0E0FBD0E0FAD0E0F8D0E095
:1020A300CFC618CEC618CDC618CCC6F922121C0C42
:1020B300700418181822121C1B700D74FFF61819DF
:1020C300F61819F61819F622E7548066F6121BD291
:1020D300700F121BDB70F014F608F608F608F68092
:1020E300D1121BDB700CF608F608768008E6447FF5
:1020F30080EC121BFB700C121BE760BFE65480F6EA
:10210300E480BB121BE7700519191980A5E86970F3
:102113000C763F18768018F618F6E8F922E6CDC05B
:10212300E018ECC0E0E633CD33CDD313F6E719FC6A
:10213300E7191933CC33C3947F400ECD9D50240847
:10214300E65480F6E418F6800FF4043D14501408A6
:10215300E6447FF6187680E418F618F6D0E0FCD053
:10216300E0FD22CCD313CCFD18E4C6CBC0E018E4C9
:10217300C6CAC0E00808ED08C633E613F618E43310
:10218300C675F003C3CA97CA09CB97CB199C400401
:102193007D08802EBD000302225916B6FF050606F0
:1021A300081618C3CA33CACB33CB33CA27CA09CBE1
:1021B30037CB193CC37D08803E187D0820E75CC6F9
:1021C30033C6CA33CACB33CB33DDF1D5F0EB30E7BB
:1021D3007BCA97CA09CB974ACB199C406F4B702592
:1021E300E620E0218066187D08C3CA97CA09CB9709
:1021F300CB199CD3C633C6CA33CACB33CB3350C9EE
:10220300DDE7D5F0E1D3E4C636C608C636C608C650
:1022130036C608C636C61818188031C3CA97CA0905
:10222300CB97CB199CB34097C633C6CA33CACB33BB
:10223300CB33DD34D5F02EC6A2E0C640C8CA27CAC8
:1022430009CB37194A70BECB3CB480B90808E633D2
:1022530008E633601F181818D0E0FAD0E0FBD0E08E
:10226300FCD0E0FD22187D08CA27CA09CB37CB1959
:102273003CD3808013F618E4B67F11F618B6FF0E30
:10228300F618C60470D20808768080CAF618F618C5
:10229300F680C5080808EAC0E0EBC0E086F0E7A4D2
:1022A300FA180986F0E7A42AFA180986F0E7A42A9F
:1022B300FA180986F0E7A42AFA1986F0E7A4FBE5E1
:1022C300F02AFA190886F0E7A42BFBE5F03AFA198D
:1022D3000886F0E7A42BFBE5F03AFA18180986F014
:1022E300E7A4C5F02BFBE43AFA1908E7C5F0C6A446
:1022F30026F6E5F03BFBE43AFA1886F0E7A4F6E5A8
:10230300F00826F6E43B08F6E43A08F6D0E0FBD002
:10231300E0FA22E4CFC0E0E4CEC0E0E4CDC0E0E4E4
:10232300CCC0E075F020E626F608E633F608E6337F
:10233300F608E633F6181818EC33FCED33FDEE33EC
:10234300FEEF33FFC3EC9709ED9709EE9709EF977B
:10235300191919400FFFEC97FC09ED97FD09EE974A
:10236300FE191906D5F0BFECF709EDF709EEF709E9
:10237300EFF7191919D0E0FCD0E0FDD0E0FED0E072
:10238300FF22181818E4C396F608E496F608E496B4
:10239300F608E496F6226017080808C6A2E713C6F3
:1023A30018C613C618C613C618C613C6D5E0E92245
:1023B3006016080808C6C313C618C613C618C61382
:1023C300C618C613C6D5E0EA2270090808082260B9
:1023D30016181818C6C333C608C633C608C633C68C
:1023E30008C633C6D5E0EA22E627F60809E637F63B
:1023F3000809E637F60809E637F622E026F608A3C9
:10240300E036F608A3E036F608A3E036F622E02627
:10241300F008A3E036F008A3E036F008A3E036F0B6
:1024230022C3E697F60809E697F60809E697F60841
:1024330009E697F622C3E0C696F608A3E0C696F629
:1024430008A3E0C696F608A3E0C696F622C3E09674
:10245300F008A3E096F008A3E096F008A3E096F056
:1024630022E056F608A3E056F608A3E056F608A3C2
:10247300E056F622E056F008A3E056F008A3E05633
:10248300F008A3E056F022E046F608A3E046F6087B
:10249300A3E046F608A3E046F622E0F608A3E0F63A
:1024A30008A3E0F608A3E0F622E6F008A3E6F008A6
:1024B300A3E6F008A3E6F022E0FAA3E0FBA3E0FC26
:1024C300A3E0FD22EAF0A3EBF0A3ECF0A3EDF022EE
:1024D300E0F8A3E0F9A3E0FAA3E0FB22E8F0A3E924
:1024E300F0A3EAF0A3EBF022CAC0E0E6F0A308DA17
:1024F300FAD0E0FA22CAC0E0E0A3C582CCC582C507
:1025030083CDC583F0A3C582CCC582C583CDC583E6
:10251300DAE6D0E0CA22C3E498F8E499F912255A1E
:102523008026C3E49AFAE49BFBE920E7E912255AE3
:10253300E498F8E499F922C3E498F8E499F91225A8
:102543005AE498F8E499F9C3E49AFAE49BFB22EB82
:1025530020E7CFE920E7E0B90010BB0008E88AF0E4
:1025630084F8AAF022E4FBC8FA22EB70227B10C89D
:1025730033C8C933C9335007C39AC3DBF280069A01
:1025830050012ADBEAC833F4C8C933F4C9FA227507
:10259300F008E4C833C8C933C933C99AC99B500486
:1025A300C92AC93BD5F0ECFBC833F4C8E4C9FA2205
:1025B300600D08C6A2E713C618C613C6D5E0F322FA
:1025C300600C08C6C313C618C613C6D5E0F4227040
:1025D3000422600D18C6C333C608C633C6D5E0F45B
:1025E3001822251810AF08F518400C15198008F5A6
:1025F3001840021519D2AF2200C0D0251810AF0819
:10260300F518500C05198008F51850020519D2AFBA
:10261300D0D0222518F58210AF08F518400C1519F3
:102623008008F51840021519D2AF851983222518A1
:10263300F582E43519F583222518F8E43519F922D2
:102643002518FAE43519FB222518FCE43519FD2277
:10265300E4732518C582C0E0E51934FFC583C0E0E3
:10266300E518C3958224F810AF088583198582186D
:102673008008858319858218D2AFCEF0A3E520F0B8
:10268300A37808E608F0A3DEFAEFF0A3E58124FAC5
:10269300F8E608F0A3E608F0A3E608F0A30808E6C6
:1026A30008F0A3E608F0A315811581D0E0FED0E081
:1026B300F8158115811581E8C0E0EEC0E0222518E8
:1026C300C582C0E0E51934FFC583C0E0E518C395B2
:1026D3008224F910AF0885831985821880088583C1
:1026E30019858218D2AFCEF0A3E520F0A37808E6CF
:1026F30008F0A3DEFAEFF0A3E58124FBF8E608F087
:10270300A3E608F0A30808E608F0A3E608F0A3157B
:10271300811581D0E0FED0E0F815811581E8C0E095
:10272300EEC0E022851983851882E0A3FEE0A3F5BD
:10273300207808E0A3F608DFFAE0A3FFE0A3C0E0F7
:10274300E0A3C0E0E0A3C0E0E0A3C0E0E0A3C0E0FA
:1027530010AF0885821885831980088582188583C0
:1027630019D2AFD083D082020132851983851882B2
:10277300E0A3FEE0A3F5207808E0A3F608DFFAE083
:10278300A3FFE0A3C0E0E0A3C0E0E0A3C0E0E0A3B8
:10279300C0E010AF088582188583198008858218E8
:1027A300858319D2AFD083D08222C0D02518C582A9
:1027B300C0E0E51934FFC583C0E0E518C395822462
:1027C300F310AF08858319858218800885831985DE
:1027D3008218D2AFC8F0A3E9F0A3EAF0A3EBF0A309
:1027E3007908E709F0A3D8FAECF0A3EDF0A3EEF033
:1027F300A3EFF0A3D0E0F0A3D0E0F0A3D0E0F0A3E8
:10280300E520F0A3E5F0F0A322851983851882E083
:10281300C0E0A3E0F9A3E0FAA3E0FBA37808E0F6A5
:1028230008A3DFFAE0FCA3E0FDA3E0FEA3E0FFA31F
:10283300E0C0E0A3E0C0E0A3E0F5D0A3E0F520A36F
:10284300E0A3F5F010AF0885831985821880088509
:102853008319858218D2AFD082D083D0E0F8D0E03C
:102863003274048006740280027401C0E0F404121E
:102873002616D0E01224EB22740480047402800034
:10288300CCC0E0EDC0E0E518C39CCCAD1950011DF0
:1028930010AF068C188D1980068C188D19D2AF12C3
:1028A30024F8D0E0FDD0E0FC22D083D082E9C0E060
:1028B300E493A3C386F0C5F095F0F908E493A386E7
:1028C300F0C5F095F0700BE493A3C3994005E904B8
:1028D3008002A3E475F002A42582F582E5F0358336
:1028E300F583D0E0F9E493A3C0E0E493C0E022D001
:1028F30083D082ECC0E0EDC0E0E493A3FCE493A3B7
:10290300FDED4C600D12293EEC24FFFCED34FFFD80
:1029130080EFE493A3FCE493A3FDED4C600D122937
:102923007DEC24FFFCED34FFFD80EFD0E0FDD0E033
:10293300FCE493A3C0E0E493C0E022C0E0C3E493CB
:1029430096087401939618400FE493667008087410
:102953000193661870007019A3A3C3E493960874D7
:1029630001939618A3A3400DD0E0D0E0D0E0022954
:102973002EA3A3A3A3A3A3D0E022C0E0C0F088F0BA
:10298300E4936670080874019366187000A8F0A3B6
:10299300A3700BD0F0D0E0D0E0D0E002292EA3A3A7
:1029A300D0F0D0E02274F61226C1EAFEEBFF8C08C9
:1029B3008D09EE2434F8E43FF9E8FCE9FDEE243513
:1029C300122CE2FAEE2437122CE2F88508F0A4C8A0
:1029D30085F00A8509F0A4250AF9EA28F8E439F90B
:1029E3007A257B0012255AEA8C828D83F0FA131321
:1029F30013541FF8EE28F8E43FF9E8245DF582E468
:102A030039F583E0C0E074075AF8D0E0B8000280DB
:102A130004C313D8FCA2E0EE50082434F582E43F4B
:102A230080182436122CE2F5F0EA84A8F0EE28F898
:102A3300E43FF9E82438F582E439F583E0F97F03CC
:102A430002276D74F71226C1EAFEEBFFEE2434125F
:102A53002CE2C0E0EE2435F582E43FF583D0E0F0CC
:102A63008E828F83A3A3A3A3A3A3A3C082C0838EB9
:102A7300828F83A3A3A3A3A3122B4BD083D082E083
:102A8300C398F508A3E099F509EE247F122CE264BC
:102A930001705DEE2480122B458E828F83A3A3A346
:102AA300A3A3A3A3122E858E828F83A3A3A3A3A381
:102AB300E0FAA3E0FBC3EA9CEB9D5010C3EC98ED56
:102AC30099402DC3EA98EB995026800EC3EA98EB00
:102AD300994007C3EC98ED9940167CBA7D04EEFA51
:102AE300EFFB120EC6EE247FF582E43FF583E4F09C
:102AF300AC08AD09EEFAEFFB1229A8E9F912372A5F
:102B03007F0202276DC082C08385188285198312D4
:102B13002B4BC3EA9CEB9D5010C3EC98ED99401BE3
:102B2300C3EA98EB995014800EC3EA98EB994007D7
:102B3300C3EC98ED994004790180027900D083D0E9
:102B43008222F582E43FF583E0F8A3E0F922EAC3A9
:102B53009CFAEB9DFB2274EF1226C1900380E06484
:102B6300086005E06407702A9061C8E06024900360
:102B7300AEE0F4601DE0F875F00AA4C8AAF02AF9E3
:102B830074B028FE740339FF8E828F83A3A3A3E05E
:102B93007003022C67906060E0C0E0EE2468F58269
:102BA300E43FF583D0E0F0750C2A750D0575080038
:102BB300750900E5D914F50AE5D95403F50E601239
:102BC3007403650E6043E50A600AEE2467122CE283
:102BD30070028075900525E06401601F122CDF6090
:102BE300047A0480027A00E50AC39AFA95E0FB129C
:102BF3000D768A088B09EA4509700512110680646F
:102C0300122CDF70048A0C8B0DE50A6012850C828E
:102C1300850D83F50BE5D9F0A3150BE50B70F612C3
:102C23002CDF604474FC250AF50A780C122868AC82
:102C33000AA90EEEFAEFFB120F8074021225FBE9CC
:102C43007026AA08AB091216BE793D8E828F83A324
:102C5300A3A3A3E0FA7B00120BD8EEFAEFFB120E4C
:102C6300EA120F927900806F7403650E6051850A32
:102C7300107511007810122868AC0CAD0DAA08ABC2
:102C830009120F4474021225FBEE2468122CE2642D
:102C9300807004747F8001E0F50C780C12286CE5D9
:102CA3000EF50C780C12286CA90AAC08AD09900338
:102CB300AEE0FA7B00120BAE74021225FB80139078
:102CC3000380E06408600BAC0CAD0DEEFAEFFB1271
:102CD300100412111279017F0A02276DEE2482F586
:102CE30082E43FF583E02274F21226C174FC1225BC
:102CF300E5EAFEEBFF8909A2AFE433F508C2AF02B0
:102D03002DA6E0601B780C122868AC0BA90EEEFA16
:102D1300EFFB120F7A74021225FB7404250BF50BDB
:102D23007401250BF5D9850ED9E50B6018F50A85D5
:102D33000C82850D83E0F5D9A385820C85830D155F
:102D43000AE50A70EA75E195EE2463F8E43FF97A3F
:102D5300007B00A2AFE433F50BC2AF122E81EC4D22
:102D6300603288828983E0FAA3E0FB8A828B831234
:102D73002E8588828983ECF0A3EDF08A828B83E42D
:102D8300F0A3F0122E81EC4D700A88828983A3A3ED
:102D9300E4F0A3F0E50BA2E092AF1216BE9004C1DB
:102DA300E004F0EE2463122B45E8496064EE2463EB
:102DB300122CE22402F8A3E03400F988828983E527
:102DC300822402F50CE43583F50DE0F50BA3E0F561
:102DD3000EEE2462122CE2640170369061D0E0F8AA
:102DE300122CDF60047C0480027C007480C398FA98
:102DF30095E0FBE50B2CF8E43400F9E82402F850E5
:102E03000109C3EA98EB99A2D265D0334003022D9E
:102E1300059004C1E0604D9004C2E0F89004C1E065
:102E2300C398500C74026509703A9004C3E060348F
:102E33008E828F83A3A3A3A3E085188285198312AF
:102E43002E777402122631E8122E779004C0E02800
:102E5300F0740212264BAA18AB197901120C0290D6
:102E630004C1E4F0E508A2E092AF74041225FB7FED
:102E73000702276DF0A3E4F09004C1E0F8228882F2
:102E83008983E0FCA3E0FD22008521878522C622F9
:102E9300C0E074EB1227ADA2AFE433F508C2AF75FF
:102EA3009B00906182E0A2E05030E591A2E0502ABD
:102EB3007591FE7401652170211230261210521291
:102EC300301412287B1234D474041225FBE96401F4
:102ED3007005790112109A122B59906182E0A2E5D4
:102EE300505DE591A2E550577591DF900380E06452
:102EF300076005E06408702F1230267401652170A5
:102F03003E12105212301412287B1234D47404125D
:102F130025FBE964017005790112109A7901EEFA33
:102F2300EFFB122CEA8018E0640D70139003A2E00B
:102F330004F064287002E4F07A00E0F912111890AA
:102F43006182E0A2E64003022FE9E591A2E6400395
:102F5300022FE97591BF900380E064057008121099
:102F63003A12104680031210407521001210A6E990
:102F7300900381F0790012109A120E367A017B00C9
:102F830090037FE0F912168E907803E06442705646
:102F9300900529E014F0704EC2AF122FA000782ADA
:102FA300D0E0F618D0E0F6E59F5407F87005750DEC
:102FB300FF8003750D7FC4C0E07829E6F50A08E6B3
:102FC300550DF50B740B780A1225C3D0E0250AF8CA
:102FD300906270E0A2E740F8E8C333906272F09029
:102FE3006270E0D2E0F0906181E0A2E35009E5E98C
:102FF300A2E3500375E9F7A3E0A2E75009E591A224
:10300300E7500375917FE508A2E092AF7F0802289D
:103013000C8E828F83E0F8A3E0C82416F582E4388F
:10302300F583229003AEE0F875F00AA4C8AAF02A4B
:10303300F974B028FE740339FF22C0E0C0D0C08207
:10304300C083906183E0A2E05009E5BFA2E0500392
:1030530075BFFEE0A2E15009E5BFA2E1500375BFD1
:10306300FDE0A2E25009E5BFA2E2500375BFFBE019
:10307300A2E35009E5BFA2E3500375BFF7E0A2E462
:103083005009E5BFA2E4500375BFEFE0A2E5500984
:10309300E5BFA2E5500375BFDFE0A2E65009E5BF37
:1030A300A2E6500375BFBFD083D082D0D0D0E03228
:1030B300C0E074F21227ADE5A7A2E6500FE5A1A286
:1030C300E6500953A7BF75A1BF123107E5A7A2E5D3
:1030D300500CE5A1A2E5500653A7DF75A1DFE5A7D4
:1030E300A2E15009E5A1A2E1500375A1FDE5A7A264
:1030F300E2500CE5A1A2E2500653A7FB75A1FB7FAA
:103103000102280C74F71226C1752101900380E097
:1031130064067015120FB68A828B83A3A3A3A3A39D
:10312300A3E0FAA3E0FB121028A2AFE433FED2AF70
:10313300900386E0640170187A207B0090037FE09F
:10314300F91217A87A207B0090037FE0F9121694F6
:10315300906182E0D2E6F0900526E0602185C622E8
:103163008016900385E064017008E5C654F84405B1
:10317300F5C653BEFC122E8C7401652160E4EEA2E9
:10318300E092AF7F0202276D008E238F2485822871
:10319300858327851882851983E0CEA3E0CF852810
:1031A30082852783EBC9EAC8EDCBECCA75F010C35F
:1031B300E833C8E933C9EA33CAEB33CBC3EA9EF534
:1031C30026EB9FF525B35004AB25AA26EC33CCEDB3
:1031D30033CDD5F0DAAE23AF242274E91226C174BD
:1031E300FA1225E5EAFEEBFF8C0A8D0B12105EEA5C
:1031F300F8EBF9ECFAEDFB8E828F831224DF900358
:1032030080E024F7C3940550067514010233441279
:103213000FB68A088B09EA45097003023341EEFCB5
:10322300EFFDAA18AB19121058850882850983A3EC
:10323300A3780C12249D908A64780C122464851858
:1032430082851983781012249D908A647810122441
:1032530064780C7910121A8C501F780C7910122490
:10326300249089BC780C121AAC4047850C14850D48
:1032730015850E16850F1780459089BC851014851A
:1032830011158512168513177814790C12242478D6
:1032930014121AAC501C75140075150075160075C0
:1032A3001701781479101224247814790C1223EB63
:1032B300800C7514017515007516007517007409D7
:1032C30078141223CC9089B8780C12249D78147941
:1032D3000C122316850882850983A3A3A3A3A3A3A2
:1032E30012336212255A880C890DE4F50EF50F7816
:1032F30014790C1223EB7404122631123362122553
:103303005AE8FA8A0CE4F50D7814790C121A8C50E9
:10331300077814790C122424900380E06408600A6F
:10332300E064066005E064057020908A3478141226
:103333001AAC5016908A3C78141223FE800C751434
:1033430000751500751600751700850A82850B83B5
:1033530078141224AC74061225FB7F1002276DE04B
:10336300F8A3E0F97AD07B032274F71226C1121076
:1033730070900524E064017010906245E4F0A3F0BE
:1033830053F4F343FE0C5390F3121016E5C654B8EE
:103393004441F5C6E59E5447644170F890618574D5
:1033A3000FF0900522E0F47002A3E0604E90052335
:1033B300E0600814601B14602E80407508017509D5
:1033C30000900522E078081225D2E508F4528080A7
:1033D3002A750801750900900522E078081225D2A4
:1033E300E508F452908014750801750900900522D0
:1033F300E078081225D2E508F452A079007F020292
:10340300276D74F71226C1E9FEEAFF1210707401EA
:103413006E700C7A807B0090037FE0F912168E9019
:103423003800E493F46008E493F9120E2A800953F8
:10343300C6B8E59E544770FA12101C900524E06448
:10344300017003120E48900522E0F47002A3E060BD
:103453004B900523E0600814601A14602C803D75BE
:103463000801750900900522E078081225D2E508C5
:1034730042808028750801750900900522E07808CC
:103483001225D2E508429080137508017509009052
:103493000522E078081225D2E50842A0120FB68A69
:1034A300088B09A808A909E8496014E5E170FCE85C
:1034B3002414F582E439F583E0F46003E0F5E17464
:1034C300016F700A7A0190037FE0F912171E02342C
:1034D3000074F11226C18A088B098C0A8D0B908A1D
:1034E300647808122464740F122631780C12249D18
:1034F300908A64780C1224647808790C121A8C90E0
:1035030089BC50107808790C1224247808121AAC5C
:103513004014800E780C7908122424780C121AAC0B
:1035230050047901800279007F0802276D74ED123F
:1035330026C18A088B098C0A8D0B908A647808123D
:1035430024647413122631780C12249D908A6478B3
:103553000C122464780C7908121A8C4011780879BB
:103563000C122424AA08AB09AC0AAD0B80227510F7
:10357300007511007512007513017810790C12246F
:1035830024781079081223EBAA10AB11AC12AD13F7
:103593007F0C02276D908A64780812249D8A828B9F
:1035A3008378081224777F0402276D74F51226C1ED
:1035B3008C828D83780812249D8A828B83780812EB
:1035C3002450123606C3E09CF0A3E09D1235F84068
:1035D30022908A4C780812249D8A828B8378081261
:1035E30024118A828B83A3A3A3A3E02420F0A3E066
:1035F300344EF080A0F088828983C3E09420A3E056
:10360300944E22EA2404F8E43BF98C828D83A3A32D
:10361300A3A3E0FCA3E0FD888289832274F512262C
:10362300C1E9FE9004DCE0FAA3E0FBEE29F8E43301
:10363300F974A928F582748739F583E02AF508A37C
:10364300E03BF50978081228689089E01224BB1240
:10365300318C74021225FB8A088B098C0A8D0B743A
:103663001078081223B3AA08AB097F0402276D74EC
:10367300F11226C18A0C8B0D8C0E8D0F741112263C
:103683003112287F7411122631E02401F508A3E0DA
:103693003400F509E4F50AF50B780C790812229643
:1036A300908A48780812249D780C7908122296AAE9
:1036B3000CAB0DAC0EAD0F12318C74021225FB8BCB
:1036C30009EA450960047A0180027A00EC2AFCE4E5
:1036D3003DFD7413122631E0F8A3E0F9E8FEE9FF9B
:1036E300ECF8EDF97A717B0212255A88088909E40E
:1036F300F50AF50B8E828F8378081224ACECF8ED73
:10370300F97A717B0212255A8A088B0974057808A5
:103713001225D28E828F83A3A3A3A3E508F0A3E58A
:1037230009F07F0802276DC082C083E9906000F032
:10373300D083D08222C0E074F21227ADA2AFE4336B
:10374300FED2AFC2C0E5D1A2E4500675D10F121567
:103753005C751A00EEA2E092AF7F0102280CC0E074
:10376300C0D0E8C0E0E9C0E0A9A8D2AFC2C7751ACB
:1037730000E9A2E7E433F8E9A2E792AFD0E0F9D099
:10378300E0F8D0D0D0E032C0E074F21227ADA2AF9F
:10379300E433FAD2AF900BC8E0F8A3E0F9A3E068F2
:1037A3007003A3E069700A539AFB900BCC740180F9
:1037B30039C2E9900BC8E0F8A3E0F9E82401FCE47E
:1037C30039FD900BC8ECF0A3EDF074A628F58274D4
:1037D3000A39F583E0F5C1900BC8C3E09422A3E056
:1037E30094014007900BC8E4F0A3F0EAA2E092AF83
:0B37F3007F0102280CC2AF0200002280
:10380000FFFFFFFFFFFFFFFFD083D0820201327472
:10381000F6122655E99002F2F0900352E0F5087591
:103820000900740278081225D2AA08AB09121706FB
:103830009002F31241C29002F31245AF606F900301
:1038400052E075F003A4FAABF012170690031012C1
:1038500041C29003101245AF700B9002F3124580E5
:1038600012170C80489003101255147AFF7BFF1238
:10387000145A7A0080198A087509007402780812AF
:1038800025D2124FBC74FF1239C2E4F0A3F00A90A3
:103890000352E0F8EAC39840DD7905120AA09002CD
:1038A000F2E0F91209927A2A7B0B120D1602505F90
:1038B00074F41226558A088B09EB548060479002F5
:1038C000F2E0F91216768A0A8B0BAE0AAF0BEE4FB6
:1038D000602A8E828F83E064B0701A120AB2E960A7
:1038E000148E828F83A3A3A3A3E0F9EE2405FAE448
:1038F0003FFB120A88EEFAEFFB121664AA08E509EC
:103900006480FB80047A007B00023B1274F2122672
:103910005574FB1225E5EAFEEBFFEE4F604574039C
:10392000122631EEF0A3EFF0851882851983ECF0B2
:10393000A3EDF07402122631E9F0AA18AB191209AE
:103940008CE9F50870757413122631E0F50AA3E0CE
:10395000F50BE50A450B60638E828F83123F4BEEB9
:103960004F700575080280537A067B001217068A8D
:103970000C8B0DA80CA90DE8497005750813803B48
:1039800088828983E41239C2EEF0A3EF123ADEE5B1
:103990000AF0A3E50BF09002F6123AD79002F66017
:1039A00017E0FCA3E08003EAFCEBFD8C828D831220
:1039B0003AD770F38C828D83124BD7A90874050215
:1039C0005794F0A31254F6A32274F21226558908D4
:1039D000890C750D007403780C1225D2850C0A85AC
:1039E0000D0B9002F5F09002F31249E2123AD56005
:1039F0002E12170C7900801D890C750D0074027849
:103A00000C1225D29002F3124E7B8882F583A3A379
:103A1000E4F0A3F009900352E0F8E9C39840D9908C
:103A20000352E0FA850AF0A4CAA8F0850BF0A42896
:103A3000FB1217068A0C8B0DAE0CAF0DEE4F700308
:103A4000023ACB900352E0FC850AF0A4CCA8F085A2
:103A50000BF0A428FD79001216527C0080318D0CE9
:103A6000750D007403780C1225D28A828B83123A6A
:103A7000D088828983E4F0123ADDA3A3F0A3F00D8D
:103A8000EDC3950840D8EE250AFEEF350BFF0C90EC
:103A90000352E0F8ECC39850288C0C750D007402AA
:103AA000780C1225D29002F3123AD0E82402500189
:103AB00009FAE9FB8A828B83EEF0A3EFF07D0080A8
:103AC000BFE5089002F5F07900800279130257975C
:103AD000124E7FF922A3A3124584EA4B22A312546B
:103AE000F6A3A3A32274F41226557900EAA2E050AB
:103AF0001F7508E9750988780812286879107C0410
:103B00007D007A297B1A120A9A74021225FBE9F9C0
:103B100080007F04022727C082C0839002F61245EE
:103B2000AF601C88828983A3A3E06A7003A3E06B63
:103B30008882898370E8A3A3A3A312458080047AB6
:103B4000007B0002380874F212265574FD1225E538
:103B5000EAFEEBFF851882851983E4F0A3F0740276
:103B60001226317401F01245AC7014120C50121769
:103B7000069002F91241C21245AC7003023CD81201
:103B800042C2EE2404F50AE43FF50B850A82F58370
:103B9000E024FE603C24FC607424FE607E24FE7001
:103BA00003023C2824FE7003023C3524FE7003020D
:103BB0003C4224FE7003023C4F24FE7003023C5C36
:103BC00024FC7003023C7D24FE7003023C95023C01
:103BD000D1120C509002FBEAF0A3EB123CE4120667
:103BE000C8E96003023CD19002FB12287F8E828FCD
:103BF00083A3A3A3A3A31255148508828509831266
:103C00004580120A7074021225FB023CD1AC18AD3B
:103C100019EEFAEFFB120AB8023CA0AC18AD19EE8F
:103C2000FAEFFB120ABE8078AC18AD19EEFAEFFB82
:103C3000120AC4806BAC18AD19EEFAEFFB120ACA77
:103C4000805EAC18AD19EEFAEFFB120AD08051ACD1
:103C500018AD19EEFAEFFB120AD680447402122650
:103C60003B880C890D780C122868740212264BEEE2
:103C7000FAEFFB120ADC74021225FB8023AC18ADAC
:103C800019EEFAEFFB120AE2E9F870167402122636
:103C900031E4F0803CAC18AD19EEFAEFFB120AE803
:103CA000E9F8E8602C8E828F83A3E064146022859B
:103CB0000A82850B83E09002FBF0851882851983C8
:103CC0001245809002FC1241C2E8A3123CE41206A5
:103CD000C2EEFAEFFB120A467402122631E0F974C2
:103CE00003025794F07CFB7D0285088285098312CC
:103CF00045842274E812265574FA1225E5740412DC
:103D00002631ECF0A3EDF08A128B13EA2405F50EB0
:103D1000E43513F50FEA2402F510E43513F51185A7
:103D20001082F5831245801207B88A0A8B0B75083A
:103D3000007C037D0079007AFB7B02121652E50EAF
:103D40002402F516E4350FF517740212263B880C91
:103D5000890D780C122868850E82850F83A3A3A392
:103D6000A3E0F50C750D00780C122868E50E24050B
:103D7000F50CE4350FF50D780C1228688516828550
:103D800017831248871209AA74061225FB8A0C8B26
:103D90000DE50C450D7003023F14802085188285C7
:103DA0001983E088828983F0050885188285198344
:103DB000A3E0C0E0123F55D0E0F00508E50A24FB7F
:103DC000FAE50B34FFFBC3E5089AE49B4003023F8E
:103DD000147E007F00851282851383A3A3A3A3E032
:103DE000F509780912286CE4F514F51578141228F1
:103DF000687514F875150278141228689002F91283
:103E0000287F740912263112287FE50A24F9F9ACBB
:103E10000CAD0D851082851183124580120B127432
:103E2000091225FBE96003023EB5850E82850F83EA
:103E3000A3A3A3A3A3A3A3E0F89002F8E06870757E
:103E4000E0F5148E157814122868125511850E822B
:103E5000850F83A3A3A3A3A3A3A3A3124580121634
:103E60004C74021225FBE9604C9002FC1245AF70C5
:103E70003BE4F51478141228687CFF7DFF790785F0
:103E80001082851183124580120A8274021225FB6A
:103E90001245B57017850E82850F831256AE7404D5
:103EA000122631124F6F1248B8023F48850C8285A6
:103EB0000D83123F4BA818A919881489157814127C
:103EC0002868740412263112287F8516828517838C
:103ED0001241B81209B674041225FB8A0C8B0DEE40
:103EE0004F7003023D91123F55EE123F6012486E33
:103EF000EF123F60F8A3E03400F9E50C450D6003D4
:103F0000023D9C8882898374FFF00508123F557436
:103F1000FFF00508E508601A1313543F1241C81258
:103F200006D4E960099002FC1245801216BE7900A1
:103F30008016850E82850F831256AE7404122631C8
:103F4000124F6F124BD7790A024841A3A3A3A3E0F3
:103F5000FEA3E0FF22A8089002FCE02812486E228F
:103F6000F00508089002FCE0282274E81226557437
:103F7000FA1225E574021226311241C27404122687
:103F800031ECF0A3EDF07402122631E02405124862
:103F900057E0F50CA3E0F50D7402122631E024027F
:103FA000F510A3E03400F511851082F583124580E9
:103FB0001207B8750800750900EA24FCFEEB34FF0F
:103FC000FF8008050CE50C7002050DA808C3EE98EB
:103FD000EF94005003024174A818A919880E890FA4
:103FE000780E122868851482851583A3A3A3A312D3
:103FF0005518122868E5142405F50EE43515F50F5B
:10400000780E1228688514828515831241B612092C
:10401000AA74061225FB8A0E8B0FEA450F70030265
:104020004174EA2404F516E4350FF517851682F578
:1040300083E0F50CA3E0F50D8518828519831255F0
:10404000148A828B83A3A3A3E0F985108285118350
:10405000124580120998E9F509600302417474025F
:1040600012263112487EF509780912286CE4F512FF
:10407000F51378121228687512F875130278121267
:1040800028689002F912287F740712263112287FBF
:10409000EEF9AC0EAD0F85108285118312458012AA
:1040A0000B1274091225FBE9F5096003024174E55E
:1040B00008703FE4F50EF50F780E1228687CFF7D3E
:1040C000FF7909851082851183124580120A827456
:1040D000021225FB1248A4700D74041226311241FD
:1040E000AB79110241A89002F8E024029002FCF0A2
:1040F00080149002FCE0FA9002F8E079002402506B
:1041000001096A497072A8089002F8E0FAE82AFAF0
:10411000E43400FBEE9AEF9B405A851682851783A4
:10412000E0C0E09002FD123F5AD0E0F0050885168D
:1041300082851783A3E0C0E0089002FD123F5AD0A9
:10414000E0F005089002F81255181228681255116F
:10415000A80812484B12163A74021225FB9002F876
:10416000E02508F50874FF650C700474FF650D60A8
:1041700003023FC3E508601F9002FCE0F5F0E5088C
:10418000841241C81206DAE960099002FD124580E6
:104190001216BE79008011E509700375090A7404CE
:1041A0001226311241ABA9090248411249E6E50C39
:1041B000F0A3E50DF022A3A31257A3AA0CAB0D2286
:1041C000A3A3EAF0A3EBF0229002FBF07CFB7D02BC
:1041D0008510828511831245842274EC1226557451
:1041E000FC1225E5124CE7740212264B12457A1296
:1041F00009B08A0C8B0DEA450D70030242B21242DF
:10420000C2A818A9198810891178101228687CFF93
:104210007DFF790B850882850983124580120A8209
:1042200074021225FB1243B8700C850A82850B8339
:104230001248B50242BF8E828F83A3A3A3A3E0F5E9
:1042400012781212286CE4F512F51378121228680D
:104250007512FB75130278121228687810122868FC
:10426000740912263112287F7409122631E0F9AC44
:104270000CAD0D850882850983124580120B1274DE
:10428000091225FBE9FE70157CFB7D0285088285FD
:1042900009831245801206E0E97009802074166EC9
:1042A00070027E009002FC1245801216BEEE700471
:1042B000800B7E01850A82850B83124BD4EEF902B6
:1042C0004BE9EE2402F508E43FF5092274EC1226CE
:1042D0005574FC1225E5EAFEEBFF8C0E8D0FEE24E3
:1042E00005F508E43FF509740212264B850882851E
:1042F00009831245801209B08A0C8B0DEA450D70B6
:10430000030243A8EE2402F50AE43FF50BA818A91E
:10431000198810891178101228687CFF7DFF790DAB
:1043200012457A120A8274021225FB1243B8700BEE
:104330008508828509831248B5807A8E828F83A38F
:10434000A3A3A3E0F512781212286C8508828509D0
:1043500083A3A312287F7512FB751302781212280B
:10436000687810122868740912263112287F74099F
:10437000122631E0F9124576120B1274091225FB50
:10438000E9FE700F7CFB7D0212457A1206E6E970A9
:1043900009802074166E70027E009002FC12458027
:1043A0001216BEEE7004800B7E018508828509839B
:1043B000124BD4EEF9024BE91245BFF510A3E0F51C
:1043C00011EA45112274E812265574FE1225E58A79
:1043D000168B178C148D15EA2405F50CE43517F5AA
:1043E0000DEA2402F50EE43517F50F850E82F583EC
:1043F0001245801207B88A088B09750B007C037D73
:104400000079007AFB7B02121652750A00E5081447
:10441000F5100424FFF508E50934FFF509805490F0
:1044200002FBE0FA9002F8E0F8EA28F8E43400F938
:10443000E50898E50999500D9002FBE0F8E510C3F6
:10444000989002F8F0E0F5127513007812122868BF
:104450001255119002FCE02AFAA3E03400FB121678
:104460003A74021225FB9002F8E0F89002FBE02873
:10447000F0050A850C82850D83A3A3124E8B4003A1
:1044800002455B9002FBE0C39508E49509400302F6
:10449000455BAE0AEE2EFEE433FF12459AAC18AD32
:1044A0001912552CE439FB1209B08A128B13AC1285
:1044B000AD13EC4D701B750B0112458A124BD89051
:1044C00002FC123AD760031216BEA90B740202480E
:1044D00043851682851783A3A3A3A3E0F50B780B6E
:1044E00012286CE4F512F51378121228687512F888
:1044F00075130278121228689002F912287F740747
:1045000012263112287FA910850E82850F8312454D
:1045100080120B1274091225FBE9F50B709B9002B7
:10452000FC1245AF600302441FE4F512F513781244
:104530001228687CFF7DFF790F850E82850F83121C
:104540004580120A8274021225FB1245B5600302EF
:10455000441F12458A1248B90244CC7CFB7D028577
:104560000E82850F831245801206ECE96003024437
:10457000BF79000244CCAC0CAD0D850A82850B835B
:1045800012458422E0FAA3E0FB2212459AE0FAA346
:10459000E0F9EA85148285158322850C82850D83D6
:1045A000E02EF8A3E03FF988828983229002F91275
:1045B00056B2E849221245BFF8A3E0F9E849229033
:1045C00002FCEAF0A3EBF09002FCE02274E8122671
:1045D0005574FA1225E574041226311241C28C1664
:1045E0008D177404122631E02405F50EA3E0340083
:1045F000F50F7404122631E0240212485712458048
:104600001207B88A0A8B0B7F007E00A818A91988A8
:104610000889097808122868850E82850F83A3A36C
:10462000A3A3E0F5088E097808122868E50E240592
:10463000F508E4350FF5097808122868850E82859B
:104640000F83A3A31248871209AA74061225FB8AB6
:104650000C8B0D8029124878F00F124878F00F90DB
:1046600002F8124BC3122868125511EFF812484B8A
:1046700012163A74021225FB9002F8E02FFFE50CA7
:10468000450D7003024707851882851983124CF97E
:10469000A3A3A3E0F985148285158312458012092E
:1046A00098E9FEE50C2404F510E4350DF511EE70E3
:1046B00050740412263112487EF508780812286CCE
:1046C000E4F508F50978081228687508F8750902F4
:1046D00078081228689002F912287F740712263190
:1046E00012287FE50A24FAF9AC0CAD0D85148285F9
:1046F0001583124580120B1274091225FBE9FE6026
:1047000039124894124BD7EF700302482E9002FCE6
:10471000E0F5F0EF849002FBF07CFB7D02851482D3
:104720008515831245801206F2E960099002FD1298
:1047300045801216BE79000248418F08EF703BE4B5
:10474000F512F51378121228687CFF7DFF79118528
:104750001482851583124580120A8274021225FB89
:104760001248A470091248941248B80248419002B5
:10477000F8E024049002FCF080359002F8E0F89014
:1047800002FCE0FAE82404FCE43400FDEC6A4D602D
:104790000302470DE50A24FAFAE50B34FFFBE508AE
:1047A00028F8E43400F9EA98EB99500302470D85A4
:1047B0001082851183E0C0E09002FDE02FF8A3E0B5
:1047C00034008882F583D0E0F00F85108285118354
:1047D000A3E0C0E0124865D0E0F00F740212263B5F
:1047E000880889097808122868740212263112286C
:1047F0007F850E82850F831241B61209B6740412AA
:1048000025FB8A0C8B0DEA450D7003024655740298
:10481000122631E0C0E0124865D0E0F00F740212B9
:104820002631A3E0C0E0124865D0E002465DEE709C
:10483000027E0A850E82850F8312489A124BD7EEAC
:10484000F974061225FB7F100227279002FDE0284D
:10485000FAA3E03400FB22F514A3E03400F515853B
:104860001482F58322124869229002FDE02FFAA3F8
:10487000E034008A82F5832212486974FF221249CB
:10488000E6A3A3A3A3E0221257A3850E82850F837C
:10489000124584228510828511831256B2851682B4
:1048A000851783229002FDEAF0A3EBF09002FD123F
:1048B00056B2E84922124BDDE8F0A3E9F079112263
:1048C00074EA12265574FE1225E58A088B098C12AB
:1048D0008D13EA2405FEE43509FFAC18AD198E826C
:1048E0008F831245801209B08A0C8B0DEE2406F5D9
:1048F0000EE43FF50FEA450D70030249B8E50824C0
:1049000002F50AE43509F50B8A828B83A3A3A3E0A1
:10491000A2E55028851882851983124580120B065E
:104920008A108B11EA4511602079121245768510A4
:1049300082851183122653E9F50C707F850E8285DE
:104940000F83E0600979528011750C0E806D850827
:1049500082850983A3A3A3A3E0F9E4F508F5097808
:10496000081228688E828F83A3A3E0F508780812C6
:1049700028688E828F83A3A3A312287F8E828F83C1
:1049800012551412457A120B1874061225FBE9F51C
:104990000C7011850E82850F83E0702D12457A12FE
:1049A00006F880257416650C7011750C00741812C9
:1049B00026311249E2E48010750C011256AA8512C4
:1049C00082851383E8F0A3E9F0850E82850F83E0EA
:1049D000600479008002A90C74021225FB7F0E028C
:1049E00027271249E622E0F8A3E0F58388822274A3
:1049F000EC12265574F71225E58A0A8B0B8C108D64
:104A000011EA2405FEE4350BFF750C00AC18AD1956
:104A10008E828F831245801209B08A088B09EA457D
:104A2000097003024BAEE50A2402F50A5002050B99
:104A30008A828B83A3A3A3E0A2E5502F85188285E9
:104A40001983124580120B068A0C8B0DEA450D6006
:104A50004F7912AC08AD0912457A850C82850D8319
:104A6000122653E9F50C6003024BB1850A82850BCF
:104A700083E0F508A3E0F509AA08FB120AFAEA4B5D
:104A800070197AFF7BFF120AFAEA4B7003024BA4FB
:104A90008A828B83E508F0A3E509F0750800800899
:104AA000750C0E024BB105089002F5E0F8E508C35D
:104AB000984003024BA485080E750F007403780E0E
:104AC0001225D28A828B83A3A3E0250EF8A3E035BA
:104AD0000F124F7870D08E828F83124BCC1241C24E
:104AE0008E828F83A3A3124BCC1241C0EE2404F517
:104AF00008E43FF509850882F583E088828983A36D
:104B0000A3A3A3F0A3E4F0EE2405F50EE43FF50F14
:104B1000850E82F583124BCCA3A3A3A31241C075CB
:104B200012077513007812122868EEFCEFFD74046A
:104B300012264312163A74021225FBE4F51278127B
:104B4000122868850882850983E0FC7D00791712A8
:104B5000457A120A8274021225FB7407122631125A
:104B600041C27407122631E0FA4B603D8508828508
:104B70000983124BC3122868850E82850F83125554
:104B80001412163A74021225FB740212264B1245B7
:104B90007A1206FEE9602674071226311245801249
:104BA00016BE8019750C098008750C118003750CF0
:104BB000011256AA851082851183124BD7A90C7455
:104BC000098028E0F50875090078082212458488D4
:104BD00082898322124BDDE8F0A3E9F022E0F8A3FA
:104BE000E0F9850E82850F832274041225FB7F0C69
:104BF00002272774EC122655124CE7751000EE249C
:104C000002F50CE43FF50D850C82F5831245801208
:104C10000AFA8A088B09EA45097003024CCB850A17
:104C200082850B83E064016003024CC0AC08AD09CF
:104C3000AA0AAB0B120AEEE9606E85088285098329
:104C4000123F4DEE2406F50AE43FF50B8E828F836A
:104C5000A3A312287F8E828F83A3A3A3A312287FEE
:104C6000850A82850B8312287F79188E828F8312A2
:104C70004CF9124580120B1874061225FBE9F874E2
:104C80001668700B850A82850B83E4F0A38014E814
:104C900060128E828F83124580850E82850F83EA93
:104CA000F0A3EBF088108018780E122868AC08ADDD
:104CB00009EEFAEFFB120AF474021225FBE9F51073
:104CC000AA08AB09120B00E510700E850C82850D49
:104CD00083124580120704800974166510700375ED
:104CE0001000A910024BEEEAFEEBFF8C0E8D0FEECA
:104CF0002405F50AE43FF50B221257A3850C8285A3
:104D00000D832274EA1226557508007509007E008D
:104D10007F00750A00EC2402F510E43DF5118035A2
:104D2000EC65087003ED65096003024DB88882895F
:104D300083A3A3E06A7003A3E06B707C88828983FD
:104D4000A3A3A3A31256AEEE28FEEF39FFEA28FA7A
:104D5000EB39FB050A124E88503A850A0C750D0096
:104D60007403780C1225D2851082851183124E7B34
:104D7000124F78601FE508450970A58C088D0988D9
:104D8000828983123F4B88828983A3A3E02EFAA3F2
:104D9000E03F80BEE50AC394025003024E767508D8
:104DA00000750900EE4F6010EEFAEFFB1216B88A9C
:104DB0000E8B0FEA450F70057900024E78750B00D7
:104DC000024E4B850B0C750D007403780C1225D226
:104DD000851082851183E0250CF50CA3E0350DF5D7
:104DE0000DE50C2406F514E4350DF515851482F552
:104DF00083124F7D6042E50C2404F512E4350DF575
:104E000013851282F58312287FE50E2508FAE50F37
:104E10003509FB12163A74021225FB85128285139E
:104E200083E02508F508A3E03509F5098514828596
:104E300015831245801216BEE50B600D7C087D00BF
:104E40007900AA0CAB0D121652050BE50BC3950A9F
:104E50005003024DC38510828511831256AE88829D
:104E60008983A3A3A3A3A3A3E50EF0A3E50F123A9E
:104E7000DEEEF0A3EFF079010249DD124E7F22E071
:104E8000250CF8A3E0350D229002F5E0F8E50AC301
:104E9000982274F01226558A0E8B0F8C0A8D0B7592
:104EA0000D00750C0080507916EE2406F508E43FDD
:104EB000F5098E828F83A3A312287F8E828F83A30E
:104EC000A3A3A312287F85088285098312287F85E2
:104ED0000E82850F83A3A3124580120B187406124D
:104EE00025FBE9F50D7416650D706C850882850942
:104EF00083E4F0A3F0050C9002F5E0F8E50CC3980C
:104F00005066AA0C8A08750900740378081225D225
:104F1000850A82850B83A3A3124FC7E8FEE9FF8EA3
:104F2000828F83124F7D6040EA2401F508E434004B
:104F3000F5099002F5E065087002E50960148882C1
:104F40008983A3A3A3A3A3A3A3A31245AF600302D2
:104F50004EA77918024EA9E9609B1256AA74101246
:104F60002631124F6F124BD7A90D7F08022727E079
:104F7000FAA3E0F5838A8222F9888289831257A3F3
:104F8000EC4D2274F61226557C0080010C900352E1
:104F9000E0F8ECC398501E8C08750900740278087C
:104FA0001225D2124FBCE06A7003A3E06B70DDE8FB
:104FB000FAE9FB80047A007B0002505F9002F31252
:104FC0004FC78882898322E02508F8A3E03509F9D4
:104FD0002274F21226558A088B09750A0080278EE2
:104FE000828F83A3A3A3A3123AD560031216BE7CBB
:104FF000087D007900EEFAEFFB1216528E828F8345
:10500000E4F0A3F0050A124E885027850A0C750DAE
:10501000007403780C1225D2850882850983A3A326
:10502000E0250CFEA3E0350DFF8E828F831245AF85
:1050300070AD85088285098374FFF0A3F00257974D
:1050400074F6122655120AAC8A828B83E582458358
:1050500070067A007B008007A3A3A3A31245807F7C
:105060000202272774F412265589088C828D83E06A
:105070006402703C12564DFEA3E0F9EEF87402682B
:1050800070037429697029750A02750B00780A1279
:105090002868741012263112287F741012263112DB
:1050A000287FA90812146C74061225FBE9F9800206
:1050B0007901023B1274E812265574FB1225E5E9CA
:1050C000851882851983F08A168B17ECFEEDFF7523
:1050D00010008E828F83A3A3A3E0A2E4502D741D41
:1050E000122631124580120B068A828B83E5824597
:1050F0008370030254EC790AEEFCEFFDAA16AB179D
:10510000122653E9F51060030254EF741F12263182
:10511000E0F508A3E0F5097421122631E0F50AA3B1
:10512000E0F50B7423122631E0F50EA3E0F50F8EA7
:10513000828F83E06402600302548DA31256AE8511
:105140000882850983A3858212858313EE2406F5E0
:105150000CE43FF50D8882898312552CF514E4394F
:10516000F51578141228F20100002801288F510744
:1051700000022854520328C251002983530129AE4A
:105180005302294F5303298353042927548D54E58F
:105190000E450F6003025488850C82850D831256DC
:1051A000AEE8FAE9FB8A828B83E0850A82850B836D
:1051B0001255371228688A828B83A3E0FCA3E00291
:1051C0005411E50E450F6003025488850A82850B51
:1051D000837401F0125521850882850983F07C00D3
:1051E0007D008E828F83A3A3A3A3E02401FAA3E012
:1051F0003400FB1209B0EA4B60408A828B83E024C2
:1052000002F8850A82850B83E028F0EA2404F8E49A
:105210003BF988828983E085128285138312554584
:105220001255371228688A828B83A3125514E50819
:105230002403FAE43509FB025416850A82850B83A0
:10524000E02404F07C047D007900AA12AB1312164E
:10525000520254EFE50E450F6003025488125521A7
:10526000FEA3E0FF850A82850B837404F0EE8508B7
:1052700082850983F0EF851282851383F07403120F
:10528000264BEEFAEFFB1209B08A0C8B0DEA450DA6
:1052900070030253328A828B83A3A3123F4B7401A3
:1052A00012263B880E890F780E1228687405122684
:1052B0003112287F7CFF7DFF1209B674041225FB92
:1052C0008B0FEA450F7033850C82850D83125518BC
:1052D000122868850C82850D83A312287F7C027DAD
:1052E000007AE87B8A1207A674041225FBE9700A8B
:1052F000740112263174FFF0A3F08E828F83E06474
:10530000027039750C02750D00780C1228688E82B7
:105310008F83A3125514E5082404FAE43509FB121F
:10532000163A74021225FB850A82850B83E024025B
:1053300080097401122631EEF0A3EFF074011226F9
:105340003112550674011226311254FD025482E5C1
:105350000E450F6003025488850C82850D83125719
:105360009CAA16AB17121472850A82850B837402ED
:10537000F0850882850983EAF0851282851383EB24
:10538000025485E50E450F6003025488125521F83A
:10539000A3E0F9850A82850B837402F0E885088210
:1053A000850983F0E9851282851383025485850C73
:1053B00082850D83124580121634EAFAF8C3950EE1
:1053C000E4950F405CE8650E450F70047A0080217B
:1053D000851882851983E0FCE50E2CFCE4350FFD71
:1053E000C3EC98ED94005003E08005E50ECAC39A23
:1053F000FAEA850A82850B83F08A0A750B00780A1F
:10540000122868850C82850D83E0250EFCA3E0350B
:105410000FFDAA08AB0912163A74021225FB0254BA
:10542000EF7510070254EFE50E450F705B850C8297
:10543000850D831256AE850A82850B837407F0882A
:105440008289831254FE1254F6E0851282851383FA
:10545000F0E82402FAE439FB8A828B831255068A2B
:10546000828B831254FDA3A3123ADD12550BF0E890
:105470002405F85001098882898312550BA312551F
:1054800045A3A3A3A3F0806775100B8062741D125F
:105490002631124580120AAC8A828B83E5824583CD
:1054A000604A1256AE880C890DE8450D603E7425A1
:1054B000122631E0F510781012286C780E12286848
:1054C000780A12286878081228687407122631E0D2
:1054D000F9EEFCEFFDAA16AB17850C82850D831241
:1054E000265374071225FBE9F510800375100EA9E9
:1054F000107405024843F088828983A322A3E085C3
:1055000008828509832212554CF02212554CA3A320
:10551000229002F91257A322E0F50E750F00780EC3
:1055200022850C82850D831249E6E022E0FAA3E091
:10553000F8E4C8F9EA2822F08A828B83E0F50A753C
:105540000B00780A221254F612554C22E08508828C
:10555000850983A3A32274EE12265574FE1225E555
:105560008A088B09ECFEEDFF890AAC18AD19EEFA3A
:10557000EFFB1209B08A0C8B0DEA450D7003025641
:105580003E851882851983124580120AAC8A828B67
:1055900083E58245837003025639A3A31256AE8871
:1055A0000E890FE8450F7003025639741412263124
:1055B000E0F510A3E0F511E50AF50B780B12286C65
:1055C000741912263112287F7810122868741B1261
:1055D0002631E0F9AC0CAD0DAA08AB09850E828529
:1055E0000F8312265374051225FBE9F50B705274D4
:1055F000FE650A604C850C82850D83E06402704173
:1056000012564DFAA3E0F9EAF8740268700374299F
:1056100069702E85108285118312552CF50CE439A2
:10562000F50D780C122868EEFCEFFDAA08AB091204
:105630000B3074021225FB8008750B0E8003750B6E
:1056400001A90B74021225FB7F0A022727A3125619
:10565000B288828983E02274F612265574FE1225E0
:10566000E5740C1226311256AEE88518828519832E
:10567000F07401122631E9F0E4F508F50978081212
:1056800028687508027808122868740412263B8876
:10569000088909780812286879FE120B1874061216
:1056A00025FB74021225FB02505F8E828F831256F7
:1056B000B222E0F8A3E0F92274F7122655EAFEEBD5
:1056C000FF8908900310125514121472EA540260F4
:1056D0000BA908EEFAEFFB1209A4800279017F0101
:1056E00002272774F212265574FE1225E5EAFEEB16
:1056F000FF890A7401650A60147402650A60030276
:1057000057927901120D34E96003025792EEFAEFD5
:10571000FB120AFAEA4B6003120B00A818A91988B9
:105720000889097808122868750802750900780840
:105730001228687508D475098A78081228687CFFD1
:105740007DFF7A017B001209AA74061225FB8038BE
:10575000850882850983A3A3A3A3A3A312579CEE64
:10576000FAEFFB12145AE4F50CF50D780C122868C8
:10577000740212263112287F7CFF7DFFAA08AB0934
:105780001209B674041225FB8A088B09E50845093D
:1057900070BE74021225FB7F060227271249E6120B
:1057A00057A322E0FCA3E0FD2274F41226558A08D8
:1057B0008B09ECFEEDFF901A27E0F4604B7A097B31
:1057C0000012165EEA4B60408A828B8374B1F0A3AC
:1057D000E412580BF08A828B83A3A3E508F0A3E5BB
:1057E0000912580BA3EEF0A3EFF0740C122631123D
:1057F00056AE8A828B83A3A3A3A3A3A3A3124BD7E2
:10580000901A27E0F912166A023B12F08A828B8303
:10581000A3A3A3A3228003000000EAF8EBF9E82485
:10582000FF1AE934FFFBE84970ED02013274F4120B
:105830002655740C122631125890122864EA24F668
:10584000FA50010B12588724061274301226537432
:105850000402658874F4122655740C12263112580D
:1058600090122864EA24F6FA50010B125887240893
:1058700012743012265374041225FB126D1D50044D
:105880007AFF7BFF02658B901C57E0F8A3E0C822EB
:10589000E0F508A3E0F509E4F50AF50B780822C065
:1058A00082C083EA24F6FA50010B125887240A12A8
:1058B0007430122653D083D08202013274F412263F
:1058C0005574C01225E5EAFEEBFF742012263174F0
:1058D00030F074211226317420F075080275090029
:1058E0007808122868742212264B121910740212BA
:1058F00025FB7C007D00EEFAEFFB12191C780812E4
:105900002868742212264BEEFAEFFB12191074026B
:105910001225FB7C007D00EEFAEFFB12191C7508C6
:1059200000750A02750B00780A1228687422122684
:105930004BEEFAEFFB12191074021225FB750A01E7
:10594000780A122868740212264BEEFAEFFB12193D
:105950001674021225FB851882851983E064146091
:10596000197AA07B8612190A0508E5087002050954
:10597000C39406E509126D1F40A774066508450922
:10598000700F7C007D00EEFAEFFB12191C7AB880D4
:105990003275080175090078081228687402122609
:1059A0004BEEFAEFFB12191674021225FB126D1D55
:1059B00050047AB7800D851882851983E0641060E1
:1059C000067AB67BFF800F7C007D00EEFAEFFB12BB
:1059D000191C7A007B00744002658874F012265509
:1059E00074E01225E5EAFEEBFF85188285198374C1
:1059F00056F08C828D83E0C0E07401122631D0E035
:105A0000F08C828D83A385820C85830DE0C0E074C9
:105A100002122631D0E0F0EC2402F508E43DF5094D
:105A2000850882F583E0C0E07403122631D0E0F0EF
:105A3000EC2403F50AE43DF50B850A82F583E0C00A
:105A4000E07404122631D0E0F0740512263174207F
:105A5000F0750E06750F00780E1228687402122673
:105A60004B12191074021225FB750E01780E1228C4
:105A700068740212264BEEFAEFFB1219167402122A
:105A800025FB126D1D50057AFF025B21851882856A
:105A90001983E0641460057AFE025B2174301226DB
:105AA00031126663FAE9FB850C82850D83E08A82F8
:105AB0008B83F0850882850983E08A828B83A3F03B
:105AC000850A82850B83E08A828B83A3A3F0750805
:105AD000017509007808122868EA2403FCE43BFDFC
:105AE000EEFAEFFB12191674021225FB126D1D500F
:105AF000047AFD802C7808122868740212264BEE76
:105B0000FAEFFB12191674021225FB126D1D5004D8
:105B10007AFC800D851882851983E0641060067A0E
:105B2000FB7BFF80047A007B0074208002741012DB
:105B300025FB7F0802272774EE12265574F81225DC
:105B4000E5EAFEEBFF8C088D09EE241CF50CEF3422
:105B500001F50D850C8212665C6012EC24A3F50A37
:105B6000E43509F50B850A8212665C70077AFF7BC3
:105B7000FF025C1EEE2408F50EEF3401F50F7C01E8
:105B80007D00850E8212743412265375100475112F
:105B90000078101228687C007D00740212264312DF
:105BA00019E274021225FBAC18AD19850A82850B27
:105BB00083126D37120656740412263B880A890B2D
:105BC000780A122868740212264BEEFAEFFB850C55
:105BD00082850D8312743612265374021225FBE55A
:105BE00008241FF582E43509F583126D3712190A6E
:105BF000AC08AD09EEFAEFFBEE240CF582EF3401B0
:105C00001274341226537C007D00EEFAEFFB850EF1
:105C100082850F831274361226537A007B00740833
:105C20001225FB7F0A02272774F412265574F012FE
:105C300025E5EAFEEBFF7508007509000508E50893
:105C4000700205098518828519837450F074011259
:105C50002631126590122868740212264BEEFAEF74
:105C6000FB12191074021225FB750A01780A12281A
:105C700068740212264BEEFAEFFB12191674021228
:105C800025FB126D1D50047AFA807E8518828519D5
:105C900083E064157020C3E5089422E509126D1FA6
:105CA00040047AB38063EEFAEFFB121922126D1DE5
:105CB000508A7AB28053E0641460047AB1804A75E5
:105CC00008017509007808122868740212264BEE44
:105CD000FAEFFB12191674021225FB126D1D500407
:105CE0007AB08025851882851983E0641070067A61
:105CF000007B008016E0641370047AAF800BE064D0
:105D00001170047AAE80027AAD7BFF741002658850
:105D100074F012265574F01225E5EAFEEBFF8C0AAA
:105D20008D0B7508007509007420122631E0F50C02
:105D3000A3E0F50D0508E5087002050985188285C0
:105D400019837445F0780079008026E50C28F582E7
:105D5000E50D39F583E0C0E0851882851983E58279
:105D600028F582E58339F583A3D0E0F008E87001D7
:105D700009C3E8950AE9950BA2D265D03340CC0857
:105D8000E8700109851882851983E58228F582E586
:105D900083126A9BF50EE439F50F780E12286874A9
:105DA0000212264BEEFAEFFB12191074021225FBB9
:105DB000750E01750F00780E122868740212264BBA
:105DC000EEFAEFFB12191674021225FB126D1D502C
:105DD000057AF8025E57851882851983E06415708C
:105DE00023C3E5089422E509126D1F40047AF78069
:105DF00066EEFAEFFB121922126D1D4003025D34AC
:105E00007AF68053E0641460047AF5804A750801DC
:105E10007509007808122868740212264BEEFAEF12
:105E2000FB12191674021225FB126D1D50047AF430
:105E30008025851882851983E0641070067A007BBE
:105E4000008016E0641370047AF3800BE064117034
:105E5000047AF280027AF17BFF025B2D74F2122643
:105E60005574F71225E5EAFEEBFF75080075090089
:105E700085188285198374AAF0740112263174552D
:105E8000F074021226317455F0740312263174AA8C
:105E9000F074041226317417F0740512263174510F
:105EA000F074061226317431F0740712263174131F
:105EB000F07408122631E9F00508E50870020509BA
:105EC000750C09750D00780C122868740212264BA7
:105ED000EEFAEFFB12191074021225FB750C017813
:105EE0000C122868740212264BEEFAEFFB121916F8
:105EF00074021225FB126D1D50047AF0807E851805
:105F000082851983E064157020C3E5089422E509B1
:105F1000126D1F40047AEF8063EEFAEFFB12192234
:105F2000126D1D50937AEE8053E0641460047AED94
:105F3000804A7508017509007808122868740212F1
:105F4000264BEEFAEFFB12191674021225FB126DA6
:105F50001D50047AEC8025851882851983E0641031
:105F600070067A007B008016E0641370047AEB8080
:105F70000BE0641170047AEA80027AE97BFF74090D
:105F80001225FB7F0602272774EA12265574DC12BD
:105F900025E58A108B118C0A8D0BA818A919880881
:105FA000890978081228687C817D0012198E740294
:105FB0001225FB126D1D4023742212263B8808898E
:105FC0000978081228687C827D00AA10AB1112198A
:105FD0008E74021225FB126D1D500302647D85181C
:105FE00082851983C3E09402A3E09400501E8518B3
:105FF00082851983E064017002A3E0701474221298
:106000002631C3E0940BA3E094004005750804809A
:1060100003750803751200751300E50A242CF514A6
:10602000E4350BF5150512E51270020513750C2009
:10603000750D00780C1228687C007D00740412260F
:10604000431219E274021225FB74021226317442C3
:10605000F0E50A241CF582E4350BF583E0C0E0741A
:1060600003122631D0E0F07404122631E41264AB3E
:106070005403640370087405122631E48007740524
:1060800012263174011264ABF854026018E854040B
:10609000600B7406122631E4F0F5088008740612CD
:1060A00026317401F074071226317401F07408125D
:1060B00026317401F07C817D89AA0AAB0B1206801F
:1060C0008A0C8B0DAE0CAF0DEE4F600F12649F1259
:1060D000249D7409122631E50C80067409122631BC
:1060E000E4F0740A122631E4F07C7C7D89AA0AABC4
:1060F0000B1206808A0C8B0DAE0CAF0DEE4F600FAD
:1061000012649F12249D740A122631E0250CF07C43
:10611000E37D88AA0AAB0B1206808A0C8B0DAE0CAD
:10612000AF0DEE4F600F12649F12249D740A122669
:1061300031E0250CF07C257D89AA0AAB0B12068084
:106140008A0C8B0DAE0CAF0DEE4F600F12649F12D8
:10615000249D740A122631E0250CF07CD77D88AA94
:106160000AAB0B1206808A0C8B0DAE0CAF0DEE4FF6
:10617000600F12649F12249D740A122631E0250CD0
:10618000F07CD17D88AA0AAB0B1206808A0C8B0D9D
:10619000AE0CAF0DEE4F700302623A126487C0E09E
:1061A000740B122631D0E01264B4C0E0740C1226D5
:1061B00031D0E0F0EE2410F582E43FF583E0602B6F
:1061C000EE2415126492E0F50CA3E0F50D74087846
:1061D0000C1225B3740F122631E50CF08A828B83E2
:1061E000E0C0E07410122631D0E0F0EE2411FAE4A1
:1061F0003FFB8A828B83780C12249D7418780C12D2
:10620000239974131226311264C012249D741078DD
:106210000C12239974141226311264C012249D7436
:1062200008780C1225B374151226311264C012249A
:106230009D7416122631E50C8039740B12263174C8
:10624000FFF0740C12263174FFF0740F122631E443
:10625000F07410122631E4F07413122631E4F07455
:1062600014122631E4F07415122631E4F07416127B
:106270002631E4F07CAA7D88AA0AAB0B1206808A3C
:106280000C8B0DAE0CAF0DEE4F603F126487C0E07B
:10629000740D122631D0E01264B4C0E0740E1226E0
:1062A00031D0E0F0EE2411126492780C12249D7427
:1062B00008780C1225B374111226311264C012240E
:1062C0009D7412122631E50C801D740D1226317456
:1062D000FFF0740E12263174FFF07411122631E4AF
:1062E000F07412122631E4F074171226317420F083
:1062F000750C16750D00780C122868740412264B64
:10630000AA10AB1112191074021225FB750C01783A
:106310000C122868740412264BAA10AB111219161D
:1063200074021225FBC3EA9401126D1E400A740226
:10633000122631E064157025C3E5129422E513128C
:106340006D1F40057AE7026463AA10AB111219228F
:10635000126D1D40030260257AE6026463E0641456
:1063600060057AE5026463780C12286874041226CA
:106370004BAA10AB1112191674021225FB126D1DD7
:1063800050057AE40264637402122631E0641060FE
:10639000057AE3026463E5087003026467E50A2492
:1063A00021F582E4350BF583E0FA6010E50A24223A
:1063B000F8E4350BF988828983E0701174041226A1
:1063C0003174D7F0740512263174A080157404124C
:1063D0002631EAF088828983E0C0E0740512263114
:1063E000D0E0F0E50804C0E07402122631D0E0F0FD
:1063F000EE4F6015EE2415F582E43FF583E0C0E032
:106400007403122631D0E080067403122631E4F0C2
:10641000740465087001E4701EE50A2428F582E41E
:10642000350B12665C70087406122631E48007741E
:10643000061226317401F0740212263B880C890D75
:10644000780C122868E5082401FCE43400FDAA1049
:10645000AB1112193A74021225FB8B09EA45096047
:10646000067AE27BFF8016AC0AAD0BAA10AB11EAEC
:106470002418F582EB34011274341226537424125A
:1064800025FB7F0E022727EE2422F582E43FF583C9
:10649000E022F8E43FF9E8FAE9FB8A828B8322EEF6
:1064A0002411F582E43FF583780C22F0851482856F
:1064B0001583E022F0EE2423F582E43FF583E02209
:1064C000E50CF08A828B83780C2274F412265574C2
:1064D000E01225E5EAFEEBFF7508007509007C0077
:1064E0007D0012191C0508E50870020509741012D8
:1064F00026317451F07411122631126590122868F9
:10650000741212264BEEFAEFFB12191074021225C8
:10651000FB750A10780A122868740212264BEEFAEC
:10652000EFFB12191674021225FBC3EA9401126DD7
:106530001E400B851882851983E064157020C3E521
:10654000089422E509126D1F40047A9D8036EEFA08
:10655000EFFB121922126D1D508B7A9C8026E0648D
:106560001460047A9B801D7401122631E0F87410C7
:106570006870067A007B00800D74136870047A9A44
:1065800080027A997BFF74201225FB7F0402272763
:106590007420F0750A02750B00780A220201327429
:1065A000F612265574FA1225E5EAFEEBFF8C088DEB
:1065B00009EE2462FAE43FFB121A00EE24EAF582A7
:1065C000E43F12665C6019E8FAE9FB3395E0FC856C
:1065D0001882851983EAF0A3EBF0A3ECF0A38012F4
:1065E000851882851983E4F0A374C2F0A37401F0C6
:1065F000A3E4F08518828519837406122883EE249B
:10660000F6FCE43FFDAA08AB09901C571274361241
:10661000743612265374061225FB8A088B0974FF00
:106620006508700474FF650970047ABA80197C00EB
:106630007D00EEFAEFFB12191CEEFAEFFB121922A5
:10664000126D1D50067AB97BFF80047A007B0074BE
:10665000068069E514243CF582E43515F58312665D
:10666000634922E0F8A3E0F9E82274F6122655EA1D
:10667000FEEBFF8E828F83126D371215AA1215B6AC
:106680007CB17D881219FA8B09EA450970097900F5
:10669000EEFAEFFB121940EE24F6FE50010FFAEF6E
:1066A000FB901C57127436A3A3A3A31274361226B0
:1066B000538E828F8374FFF0A3F080031225FB7F3B
:1066C0000202272774E812265574DE1225E5851884
:1066D00082851983ECF0A3EDF0EAFEEBFF75140060
:1066E000751500EE2460F516EF3401F517743A12B3
:1066F0002631780C12249D0514E5147002051585C9
:10670000188285198312588A2440F582E438F5836B
:10671000E0F508A3E0F509E50845096072850C106D
:10672000850D11850E12850F13741078101223B386
:10673000E510F50A851682851783127436E0650A1E
:10674000604D740212264BAA08AB09120656780C4B
:10675000122864740612264BAA08AB0912065C7450
:10676000041225FB740212263B8808890978081256
:106770002868740412264BEEFAEFFB1219287402F3
:106780001225FB851682851783127436E50AF0748C
:10679000021226317455F07403122631E50CF074A0
:1067A00004122631E50DF074051226317420F075BF
:1067B00008047509007808122868740412264BEE44
:1067C000FAEFFB12191074021225FB7508107808F5
:1067D000122868741412264BEEFAEFFB1219167485
:1067E000021225FBC3EA9401126D1E400A741212B4
:1067F0002631E064157023C3E5149422E515126D6B
:106800001F40047AE0802EEEFAEFFB121922126D7F
:106810001D40030266F77ADF801BE0641460047A8F
:10682000DE80127413122631E0641070067A007B49
:106830000080047ADC7BFF7422800274141225FB32
:106840007F1002272774E812265574EC1225E58A7A
:10685000168B17742E122631E02410FAA3E03400B0
:10686000FB1217068A108B11EA451170057AA202F5
:106870006A85742C122631126D541219FA8B09EAAA
:106880004509702A7512469019201266632401FA90
:10689000E439FB901920EAF0A3EBF0E8A2E0D2F093
:1068A0004028A290A29030F001B39290802D7CAA53
:1068B0007D88AA14AB151219FA8B09EA45097005EF
:1068C00075124580C27ADB026A85A29130F001B36D
:1068D000E433F8A29130F001B3929112665370093B
:1068E000E5142434126657600974021226317402CA
:1068F000800774021226317401F0A3E4F0743012A0
:106900002631126D27122631126D488003126D0454
:10691000C3E50A9508E50B95094003026A89126DE3
:106920000F122631126D3D5005E8FEE98009742EE4
:10693000122631E0FEA3E0FF851882851983E4F07A
:10694000A3F0851882851983E02401F0A3E03400C8
:10695000F0A80AA90B7402122631126D3712255ABB
:10696000880C890DE4F50EF50F780C122864AC1430
:10697000AD15AA16AB1712196474041225FB126D1B
:106980001D5003026A98126AA5EEFAEFFB12139AE1
:106990008510828511837464F0EFA3F0EE85108278
:1069A000851183A3A3F0851082851183A3A3A3E59A
:1069B00012F08E0C8F0D780C122868126AA5E51063
:1069C0002404FAE43511FB1219DC74021225FBEEE3
:1069D0002404F8E43FF9E51028F582E511126A9BDA
:1069E000F50CE439F50D780C122868AC10AD11AA3D
:1069F00016AB1712191074021225FB750C10750DC9
:106A000000780C122868740612264BAA16AB1712CF
:106A1000191674021225FBC3EA9401126D1E400A76
:106A20007404122631E06415703585188285198347
:106A3000C3E09406A3E09400400BAA10AB11121718
:106A40000C7AD98040AA16AB17121922126D1D407C
:106A500003026942AA10AB1112170C7AD88026E003
:106A60006414600BAA10AB1112170C7AD78016743D
:106A700005122631E06410700302690DAA10AB11F3
:106A800012170C7AD57BFF800FAA10AB1112170CCE
:106A90007432122631126D3702683B39F583742047
:106AA000F0E8240122126CF8E0FCA3E0FD2274E877
:106AB00012265574EC1225E58A128B13742C1226BB
:106AC00031126D541219FA8B09EA4509701A7510C2
:106AD000461266537009E514243412665760257413
:106AE00002122631740280237CAA7D88AA14AB1579
:106AF0001219FA8B09EA4509700575104580D27A9A
:106B0000D4026CE974021226317401F0A3E4F0742B
:106B100030122631126D27122631126D48851882E7
:106B200085198374B1F0A37488F08003126D04C3D7
:106B3000E50A9508E50B95094003026CED126D31ED
:106B40001215AA1215B6851882851983126AA81221
:106B500019FA8B0DEA450D70067E007F01801A122E
:106B60006D0F122631126D3D5005E8FEE980097463
:106B70002E122631E0FEA3E0FF7516007517000502
:106B800016E51670020517A80AA90B740212263121
:106B9000126D3712255A880C890DE4F50EF50F7821
:106BA0000C122864AC14AD15AA12AB13121964743C
:106BB000041225FB74041226317474F08E0C8F0DB0
:106BC0007408780C1225B37405122631E50CF074A4
:106BD00006122631EEF07407122631E510F0740823
:106BE0001226317420F0750C05750D00780C1228F2
:106BF00068740612264BAA12AB13121910740212F3
:106C000025FB750C01780C122868740612264BAA15
:106C100012AB1312191674021225FB126D1D5005CA
:106C20007AD3026CE97404122631E064157025C32E
:106C3000E5169422E517126D1F40057AD2026CE921
:106C4000AA12AB13121922126D1D4003026B7F7A38
:106C5000D1026CE9E0641460057AD0026CE98E0C14
:106C60008F0D780C122868126CF8E0250AFCA3E05E
:106C7000350BFDAA12AB1312191674021225FB1262
:106C80006D1D50047ACF8061750C01750D00780C74
:106C9000122868740612264BAA12AB131219167426
:106CA000021225FB126D1D50047ACE803C126D310C
:106CB0001215AA1215B6851882851983126AA812B0
:106CC00019FA8B0DEA450D70117404122631E06437
:106CD000147003026B2C7ACD800F7404122631E0FD
:106CE00064107003026B2C7ACC7BFF800874321224
:106CF0002631126D3702683BE514242CF582E43509
:106D000015F58322E50A2EF50AE50B3FF50B22E582
:106D100008C3950AF8E509950BF9742E22C3EB9484
:106D200000A2D265D03322E0F50AA3E0F50B74325D
:106D300022851282851383E0FAA3E0FB22E0FAA306
:106D4000E0FBC3E89AE99B22E0250AF508A3E035B9
:106D50000BF50922E0F514A3E0F5157CD17D88AA96
:106D600014FB2274F012265574FE1225E5EAFEEBA0
:106D7000FF7412122631780812249D908A80780CB4
:106D800012249D7808790C121E96908A84780C1231
:106D9000249D7808790C121CF17808121B43850891
:106DA0000A85090BA818A9198808890978081228E2
:106DB000687C857D0012198E74021225FB8B09EA0E
:106DC00045097030851882851983E0F8A3E0F9C37E
:106DD000E50A98E50B995022780A1228687C857D8F
:106DE00000EEFAEFFB12199474021225FB8B09EAEC
:106DF000450960067AFF7BFF8015780A1228687CB7
:106E0000847D00EEFAEFFB12199474021225FB74D4
:106E100002025B2F74F012265574FE1225E5EAFE7D
:106E2000EBFF7412122631780812249D908A807824
:106E30000C12249D7808790C121E96908A84780C86
:106E400012249D7808790C121CF17808121B4385D6
:106E5000080A85090BA818A9198808890978081251
:106E600028687C847D0012198E74021225FB8B0920
:106E7000EA45097010851882851983C3E0950AA335
:106E8000E0950B50067AFF7BFF8015780A12286880
:106E90007C857D00EEFAEFFB12199474021225FB3B
:106EA000026E0F74E812265574FC1225E5EAFEEB1B
:106EB000FF851882851983E4F0A3F0A3F0A3F0F511
:106EC00008F509741C122631780C12249D908A94BE
:106ED000781012249D780C7910121C564003026F12
:106EE000BD908A88781012249D780C7910121C5657
:106EF000500E750C00750D40750E38750F00800A28
:106F0000780C121B43E4F50EF50F7C007D00ECF8C5
:106F1000EDF9E828F8E933F9747428F582741D391D
:106F2000F583126D37751400751580751670751719
:106F3000008A108B11740978101225D2F512F513FE
:106F4000781479101223167814790C121A8C405187
:106F5000EC2401F508E43DF5097510007511807504
:106F600012707513008A148B15E4F516F517780C5A
:106F700079141222967401780C1223CC7810790CB3
:106F8000122316E51024FFF50CE51134FFF50DE48E
:106F9000F50EF50F851882851983780C1224AC80C4
:106FA000100CEC70010DC39407ED94005003026FB8
:106FB0000E74076C4D70067AFF7BFF8049780812CB
:106FC00028687C867D00EEFAEFFB12199474021299
:106FD00025FB8B09A909EA49702C8518828519833C
:106FE000780812249D78081228687C877D00EEFAC4
:106FF000EFFB12199474021225FB8B09A909EA49C7
:1070000070047A007B00740402683D74EC1226550B
:107010007414122631780C12249D850C08850D09F4
:10702000850E0A850F0B908A9C781012249D780893
:1070300079101220B0908AA4781012249D780879D3
:1070400010121E967808121B4385080A85090B90BA
:107050008A9C781012249D780C7910121CA550057A
:10706000750A018014908A74781012249D780C7926
:1070700010121C565006750AFF750B00780A12286C
:10708000687C897D0012199474021225FB7F0C0222
:10709000272774F212265574F01225E5EAFEEBFF5D
:1070A0008C08750A00750B008007EEFAEFFB1219C9
:1070B00022050AE50A7002050B851882851983747A
:1070C00041F07401122631E508F074021226317481
:1070D00020F0750C03750D00780C122868740212EC
:1070E000264BEEFAEFFB12191074021225FB750CF9
:1070F00010780C122868740212264BEEFAEFFB127D
:10710000191674021225FBC3EA9401126D1E400B7E
:10711000851882851983E064157010C3E50A940E02
:10712000E50B126D1F40837ACA8027E06414600467
:107130007AC8801E7401122631E0F87402122631DA
:10714000E0FA74116A70047AC5800774106A6006E8
:107150007AC47BFF8014741E122631E0FAA3E0F596
:10716000838A82E8F0A3E4F0FAFB7410025F807473
:10717000F012265574F01225E5EAFEEBFF8C087537
:107180000C00750D007420122631E0F50A050CE59F
:107190000C7002050D8518828519837440F0740106
:1071A000122631E508F07402122631E50AF0740364
:1071B0001226317420F0750E04750F00780E122817
:1071C00068740212264BEEFAEFFB121910740212C9
:1071D00025FB750E01780E122868740212264BEEFC
:1071E000FAEFFB12191674021225FB126D1D5005E1
:1071F0007AC3027293851882851983E0641570241E
:10720000C3E50C9422E50D126D1F40057AC202728F
:1072100093EEFAEFFB121922126D1D400302718DDD
:107220007AC1806FE0641460047AC08066750801DA
:107230007509007808122868740212264BEEFAEFDE
:10724000FB12191674021225FB126D1D50047ABF31
:107250008041851882851983E0641070067A007B6E
:107260000080327808122868740212264BEEFAEF7A
:10727000FB12191674021225FB126D1D50047ABE02
:107280008011851882851983E0641170047ABD80AD
:10729000027ABC7BFF025B2D74F412265574F8123F
:1072A00025E5EAFEEBFF8C088D09740212263B8867
:1072B0000A890B780A1228687C807D0012198E7466
:1072C000021225FB740612263B880A890B780A12E3
:1072D00028687C817D00EEFAEFFB12198E74021291
:1072E00025FB740412263B880A890B780A12286849
:1072F0007C827D00EEFAEFFB12198E74021225FBE0
:10730000A818A919880A890B780A1228687C987D20
:1073100000EEFAEFFB12198E74021225FBAC08ADD9
:1073200009EEFAEFFB1219A0740802658874F612D0
:10733000265574F61225E5EAFEEBFF740812263B8B
:107340008808890978081228687C847D0012198EC3
:1073500074021225FB740612263B880889097808F6
:107360001228687C857D00EEFAEFFB12198E7402FC
:107370001225FB740412263B880889097808122814
:10738000687C867D00EEFAEFFB12198E74021225DE
:10739000FB740212263B8808890978081228687C49
:1073A000877D00EEFAEFFB12198E74021225FBA8FE
:1073B00018A9198808890978081228687C897D002D
:1073C000EEFAEFFB12198E74021225FB740A0266A4
:1073D000BCC082C0837C197D8B1219A00258B57481
:1073E000F6122655EAFEEBFF7A017B00121706EA39
:1073F000F8EBF9EE2460FCEF3401FDECFEEDFF8EBE
:10740000828F83E8F0A3E9F0E849602175080175EF
:10741000090078081228687C007D001219E27402C5
:107420001225FB8E828F8312743674FFF00266BFC2
:10743000F582E438F583E0F8A3E0F583888222C082
:1074400082C083EA2460F582EB127582126D3712D6
:1074500019CA0258B574F7122655EAFEEBFF7CB83C
:107460007D88EE2452FAE43FFB121A00EE240C123F
:10747000757F7446F0A37419F0EE240E12757F74B4
:107480009AF0A37419F0EE241012757F7452F0A3D1
:107490007419F0EE241212757F744CF0A37419F075
:1074A000EE241812757F7434F0A37419F0EE241AC8
:1074B00012757F742EF0A37419F0EE241C12757FE0
:1074C0007428F0A37419F0EE242212757F7458F01A
:1074D000A37419F0EE242412757F745EF0A374195E
:1074E000F0EE243012757F7426F0A37406F0EE24BB
:1074F0002E12757F743EF0A37406F0EE24261275EA
:107500007F746AF0A37419F0EE242812757F7470EA
:10751000F0A37419F0EE243412757F74A6F0A374EE
:1075200019F0EE243612757F7476F0A37419F0EE1C
:10753000243812757F747CF0A37419F0EE243A128B
:10754000757F7482F0A37419F0EE243C12757F7479
:1075500088F0A37419F0EE244A12757F74ACF0A37E
:107560007419F0EE244C12757F74B2F0A37419F004
:10757000EE240212757FE4F0A304F0FF022727F542
:1075800082EF3401F5832274EE1226558A088B09A6
:10759000890B8C0E8D0F900729E0700990072BE066
:1075A0007003027654900312E06003027654890C53
:1075B000750D00E92407FAE43400FB12165E8A1008
:1075C0008B11AE10AF11EE4F700302766574186523
:1075D00008700474206509600C74176508700474E1
:1075E000206509701090072BE0600AF50A8E828FE3
:1075F000837492800C900729E0F50A8E828F837441
:1076000091F0A3740E127EB57401127EBDE508F0F0
:10761000A3E509F0EE2405F8E43FF9E8FAE9FBEE0A
:107620002407F8E43FF98A828B83E8F0A3E9F07835
:107630000C122868AC0EAD0F8A828B83E0FAA3E0AF
:10764000FB12163A74021225FBEEFAEFFBA90A129E
:10765000166A8011780E122868AC0B790E120BC6D0
:1076600074021225FB7F0A02272774F5122655891A
:107670000AEAFEEBFF900729E06039900312E07000
:10768000337A067B0012165EEA4B60358A828B8362
:107690007491F0A3740F127859A3A3E50A127C1F0A
:1076A0007401127C2EEEF0A3EFF0900729E0F9129E
:1076B000166A800DEEFCEFFDAA0A7B00790F120B13
:1076C000C07F03022727127F8B1276D374041276B1
:1076D000D3A3221276D722F088828983E0FCA3E02C
:1076E000F5838C822274F712265574FC1225E5EA84
:1076F000851882851983F074011226317401F074A3
:1077000002122631ECF07403122631EDF0AC18AD04
:10771000197A04120BCC74041225FB7F010227276F
:1077200074F212265589098A0A8B0B8C0874072C6F
:10773000FA74FF65096004780380027802E82AFA87
:107740007B0012165E8A0C8B0DAE0CAF0DEE4F70E7
:107750000302783E8E828F837401F0A374FFF0EEF3
:107760002402FAE43FFBEE2404F8E43F1278E7E554
:1077700009127859E02402F8A3E03400F9890DE5F4
:107780000BF9740E122631127B3074FF6509602EDE
:10779000740325088882850D831278E0A374011292
:1077A0007863E50A127863A3E9F085080A750B008F
:1077B000780A1228688A828B83E024068066740225
:1077C00025088882850D83F08C828D83E0C0E08A55
:1077D000828B83127843D0E0F08C828D83A3E0C04B
:1077E000E012784ED0E0F08C828D83A3A3E0C0E05D
:1077F00012784EA3D0E0127852127B23E50A127859
:1078000052127B27E9F0E50824FDF50AE434FFF580
:107810000B780A122868EC2403FC50010D8A828B35
:1078200083E02408FAA3E03400FB12163A74021233
:1078300025FBEEFAEFFB900727E0F912166A7F06A8
:1078400002272712784722127D29A3A3A3221278A8
:107850006822127859127D112212785D22F08A82F4
:107860008B8322F0127868228A828B83127847A356
:107870002274F2122655890A8A0BECFEEDFF74077A
:107880002AFA7B0012165E8A088B09EA4509604DC8
:10789000127B77E435090A0AFBE5082404F8E4358D
:1078A000091278E7E50A1278E0E50BF06023F50CA1
:1078B000750D00780C122868EEFCEFFD8A828B8330
:1078C000E02403FAA3E03400FB12163A74021225F6
:1078D000FBAA08AB09900727E0F912166A02783E66
:1078E000127859127B6A22F98A828B83E8F0A3E925
:1078F000127D1E7404127D1EA3227F10022727749E
:10790000E81226558917EAFEEBFF8C168D13741AC0
:10791000122631E0F50CA3E0F50D741C122631E0BF
:10792000F508A3E0F509741E122631E0F50AA3E07C
:10793000F50B7420122631E0F512900729E0700350
:10794000027A057A157B0012165E8A0E8B0FEA45C5
:107950000F7003027B20127B367401F0EA2408FAD0
:10796000E4350FFBE50E2403F582E4350FF583E5DE
:1079700017701EE4F0751006F5117810122868745F
:107980001A122631127B3012163A74021225FB802D
:107990000C7431F07C067D007900121652850E823F
:1079A000850F83A3A3A3A3EEF0A3EF127B4AE516F2
:1079B000127B4AA3E513F0E50E240EF582E4350FA1
:1079C000F583E50CF0A3E50DF0E50E2410F582E457
:1079D000350FF583E508F0A3E509F0E50E2412F56F
:1079E00082E4350FF583E50AF0A3E50BF0E50E24FC
:1079F00014F582E4350FF583E512F0AA0EAB0F9073
:107A00000729027B1B90031EE0A2E5500890031695
:107A1000E0A2E04003027B207A1A7B0012165E8A05
:107A2000108B11EA45117003027B20127B77F50E53
:107A3000E43511F50FEA2404F8E43511F9850E82D6
:107A4000850F83E8F0A3E9127B547404127B54A3DE
:107A5000743E127B5B7413127B5BA37401127B7008
:107A6000E517127B70A3EE127B8A127B23EF127B49
:107A70008A127B27E516127B8A127CFEE513F075CD
:107A800014067515007814122868741A122631121B
:107A90007B30850E82850F83E02409FAA3E0340051
:107AA000FB12163A74021225FB127D07240FF58291
:107AB000E438F583E50CF0E50DF50C127D07241094
:107AC000F582E438F583E50C127B8A2411F582E413
:107AD00038F583E508F0E509F508127D072412F56D
:107AE00082E438F583E508127B8A2413F582E438B2
:107AF000F583E50AF0E50BF50A127D072414F582FB
:107B0000E438F583E50A127B8A2415F582E438F51A
:107B100083E512F0AA10AB11900727E0F912166A5C
:107B20000278FA127C16222407F582E438F58322C3
:107B3000E0FCA3E0FD228A828B837491127B4022B9
:107B4000F0A3743E12785DA3A322127B62A3A3A3C9
:107B5000A3A3A322127B62127D2122127B62127BDD
:107B60006A22F0850E82850F8322127D25A3A3222F
:107B7000127B6212786C22127B7B228A828B837446
:107B800001F0A374FFF0EA240222127B62127D113D
:107B90002274F4122655EAFEEBFF8908900729E0CB
:107BA000602E7A067B0012165EEA4B605F8A828B3B
:107BB000837491F0A37405127859A3A3E4127C1F77
:107BC000EEF0A3EF127C2EA3E508F0900729803792
:107BD000900317E0A2E450347A0B7B0012165EEAA1
:107BE0004B60291276C67405127C337404127C3300
:107BF000A3E4127C3DEE127C3DA3EF127EAF127C1B
:107C00000FE508F0900727E0F912166A027F1612B6
:107C10007D11127C16222406F582E438F5832212A7
:107C20007C2322127C272212785DA3A3A322127C3C
:107C300023A322127C37221276D7A3A322127C37E9
:107C4000A3A32274F41226558908EAFEEBFF8C09DF
:107C5000900318E0A2E34003027CFB7A0F7B001242
:107C6000165EEA4B7003027CFB127B77F50AE43B5D
:107C7000F50BEA2404F8E43BF9850A82850B83E8D6
:107C8000F0A3E9127D177404127D17A3740C127D02
:107C9000327408127D32A3E508127D39EE127D3967
:107CA000A3EF127D48127B23E509F0740C122631F4
:107CB000127B30850A82850B83127D0D127B27ECA7
:107CC000127D48127CFEEDF0740E122631E0F8A30E
:107CD000E0F9850A82850B83E0FCA3E0CC2409F55A
:107CE00082E43CF583E8127D48240AF582E438F505
:107CF00083E9F0900727E0F912166A027F1624083C
:107D0000F582E438F58322850E82850F83127D117A
:107D100022E0F8A3E0C822127D40127D21221278D1
:107D20005D127D2522127D2922E0F8A3E0F58388EB
:107D30008222127D40127B6A22127D4012786C22D0
:107D4000F0850A82850B8322127D40127D112274F8
:107D5000EC1226558A0C8B0D8C0E8D0F7414122686
:107D600031E0F50AA3E0F50B850A82F583A385824D
:107D70001085831190072BE060777A0F7B00121635
:107D80005E8A088B09AE08AF09EE4F7003027EAA27
:107D90008E828F837492F0A3743E127EB5740512A6
:107DA0007EBDE50CF0A3E50DF075080875090078B7
:107DB00008122868AC0EAD0FEE2405FAE43FFB1262
:107DC000163A74021225FB850A82850B83E0FA8538
:107DD0001082851183E0F9EAF8EE240DF582E43F84
:107DE000F583E8F0A3E9F0EEFAEFFB90072B027EB3
:107DF000A590031EE0A2E55008900316E0A2E4401F
:107E000006120DE2027EAA7A147B0012165E8A0820
:107E10008B09EA45097003027EAA127B77F8E435E4
:107E200009F9EA2404FAE43509FB88828983EAF037
:107E3000A3EB127EAFE0FEA3E0FF8E828F8374047B
:107E4000F0A3743EF0A3740DF0A37405F0A3E50C49
:107E5000F0A3E50DF0A3AE82AF83750C08750D009D
:107E6000780C122868AC0EAD0FEEFAEFFB12163A42
:107E700074021225FBEE2408FE50010F850A82854C
:107E80000B83E08E828F83F085100A85110BA30E81
:107E9000AF83850A82850B83E08E828F83F0AA08E8
:107EA000AB09900727E0F912166A7F0C022727F02A
:107EB0008882898322F08E828F83A3A322127EB5CB
:107EC000A32274F4122655EAFEEBFF89088C099070
:107ED000072BE060167A077B0012165EEA4B6036CD
:107EE000127FA2E509F090072B8026900317E0A2ED
:107EF000E750237A0B7B0012165EEA4B6018127F64
:107F0000777408F0A37404127F6BA3E509F090075F
:107F100027E0F912166A7F0402272774F412265507
:107F2000EAFEEBFF890890072BE060167A077B00DA
:107F300012165EEA4B6032127FA27401F090072B9A
:107F4000802290031CE0A2E7501F7A0A7B001216E1
:107F50005EEA4B6014127F777430F0A37403127FD3
:107F60006B900727E0F912166A80ABF0A3E508F0E2
:107F7000A3EEF0A3EFF022127F8B127EAFE0F8A306
:107F8000E0F9888289837404F0A322127B7BF8E4F1
:107F90003BF9EA2404FCE43BFD88828983ECF0A3EE
:107FA000ED228A828B837492127B407408127C23A8
:107FB000EEF0A3EF127FBEE508127FBEA322127C73
:107FC00027A3A322C082C083851882851983E0F885
:107FD000A3E0F9E84960128A828B83ECF0A3E824DD
:107FE000FF18E934FFF94870F2D083D082020132E1
:067FF00002013202013221
:087FF800851A87C2AF020132B5
:108000000300000300010300020300030300040354
:108010000005030006030007020000020001020041
:10802000020200030200040200050000060000072F
:108030000000000000010000020000030000040135
:108040000005010006010007010000010001010018
:1080500002010003010004010005010106010007FF
:1080600003000003000103000203000303000403F4
:1080700000050300060300070200000200010200E1
:1080800002020003020004020005000006000007CF
:1080900000000000000100000200000300000401D5
:1080A00000050100060100070100000100010100B8
:1080B000020101030100040100050101060100079E
:1080C00000000000000100000200000300000400A6
:1080D000000500000600000700000000000100008D
:1080E0000200000300000400000500000600000775
:1080F000010100010101010002010003010104016D
:108100000005010106010007010000010001010155
:10811000020101030100040101050100060101073C
:108120000000000000010000020000030000040045
:10813000000500000600000700000000000100002C
:108140000200000300000400000500000600000714
:108150000000000000010000020000030000040114
:1081600000050100060101070100000100010101F5
:1081700002010103010004010105010006010107DC
:1081800004000004000104000204000304000404CD
:1081900000050400060400070200000200010200BE
:1081A00002020003020004020005020006020007AA
:1081B00002000802000902000A02000B02000C0281
:1081C000000D02000E02000F01000001000101007D
:1081D000020100030100040101050100060100077E
:1081E0000000000000010000020000030000040085
:1081F000000500000600000700000000000100006C
:108200000200000300000400000500000600000753
:10821000010100010101010002010003010104014B
:108220000005010106010007010000010001010134
:10823000020101030100040101050100060101071B
:108240000000000000010000020000030000040024
:10825000000500000600000700000000000100000B
:1082600002000003000004000005000006000007F3
:1082700000000000000100000200000300000401F3
:1082800000050100060101070100000100010101D4
:1082900002010103010004010105010006010107BB
:1082A00004000004000104000204000304000404AC
:1082B000000504000604000702000002000102009D
:1082C0000202000302000402000502000602000789
:1082D00002000802000902000A02000B02000C0260
:1082E000000D01000601000701000001000101006E
:1082F000020100030100040101050100060100075D
:10830000040000040001040002040003040004044B
:10831000000504000604000702000002000102003C
:108320000202000302000402000502000602000728
:1083300002000802000902000A02000B02000C02FF
:10834000000D02000E02000F0100000100010100FB
:1083500002010103010004010105010006010007FB
:108360000000000000010000020000030000040003
:1083700000050000060000070000000000010000EA
:1083800002000003000004000005000006020007D0
:1083900002000802000902000A02000B02000C029F
:1083A000000D02000E02000F01000001000101019A
:1083B000020101030100040100050101060100079B
:1083C000040000040001040002040003040004048B
:1083D000000504000604000702000002000102007C
:1083E0000202000302000402000502000602000768
:1083F00002000802000902000A02000B02000C023F
:10840000000D01000601000701000001000101004C
:10841000020101030100040101050100060100073A
:108420000300000300010300020300030300040330
:10843000000503000603000702000002000102001D
:108440000202000302000402000502000600000709
:108450000000000000010000020000030000040012
:1084600000050100060100070100000100010100F4
:1084700002010103010004010005010106010007DA
:1084800003000003000103000203000303000403D0
:1084900000050300060300070200000200010200BD
:1084A00002020003020004020005020006000007A9
:1084B00000000000000100000200000300000400B2
:1084C0000005010006010007010000010001010094
:1084D000020100030100040100050101060100077B
:1084E0000000000000010000020000030000040082
:1084F0000005000006000007000000000001000069
:10850000020000030000040000050200060200074C
:1085100002000802000902000A02000B02000C021D
:10852000000D01000601000701000001000101012A
:108530000201010301000401000501010601000719
:10854000000000000000000000000000000000002B
:10855000000000000000000000000000000000001B
:10856000000000000000000000000000000000000B
:1085700000000000000000000000000000000000FB
:1085800000000000000000000000000000000000EB
:1085900000000000000000000000000000000000DB
:1085A00000000000000000000000000000000000CB
:1085B00000000000000000000000000000000000BB
:1085C00063616E277420616C6C6F632074616773E4
:1085D0002062756666657220666F7220257320734F
:1085E000697A65206F662025642062797465730D51
:1085F0000A0063616E277420616C6C6F6320627582
:10860000662062756666657220666F72202573202B
:1086100073697A65206F66202564206279746573BA
:108620000D0A002807E0093407E6094007EC094C69
:1086300007F2095807F8096A07F8097607FE094C96
:1086400007040A64070A0A0000000088070A0A945F
:1086500007100A00000000000000000000000000F9
:10866000000000000000000000000000000000000A
:108670000000000E1E0F1F2E3E2F3F4E5E4F5F6EFE
:108680007E6F7F667667776A7A6B7BBEFD0001003E
:108690000000020E1E0F1F2E3E2F3F4E5E4F5F6EDC
:1086A0007E6F7F667667776A7A6B7BBEFD0001001E
:1086B0000000000201061BFF4C000215FDA50693F9
:1086C000A4E24FB1AFCFC6EB076478252711E9E0EC
:1086D000C5BB48554F574549594920546563686E95
:1086E0006F6C6F677920436F2E2C204C74642E00C2
:1086F000010102010201010201020303040103015D
:108700000101010103030201036A0DBA14F812D634
:10871000165C0C38095C12520AE4172A14940A6891
:108720001500000000000000000000000000000034
:108730000000000000000000000000000000000039
:10874000000000000000000000000000456C6172A5
:1087500061000000000000000000000000000000B8
:1087600000666C6173683A773A426C696E6B2E688A
:1087700065783A6900BDF2BDE1BBCFB400BE01B679
:1087800001BC00BBBF99F9BBAF48414C5F5541529A
:10879000545F504F52545F30000000000000000052
:1087A000000000000000000087F401FA0096006459
:1087B000004B0032001E001400FB349B5F80000061
:1087C0008000100000000000000000000000000019
:1087D00000000000000000FE006578706572696DA1
:1087E000656E74616C41546D656761313238345027
:1087F000004572726F72205265736574006170700B
:108800006C69636174696F6E0041546D65676131B5
:108810003238340041546D6567613332385000415D
:10882000546D656761363434500041546D6567613D
:10883000333238007369676E617475726500302E6B
:10884000322E582E4131390041546D6567613634FE
:10885000340042696E20426C6F636B00426C696E3B
:108860006B2E6865780042696E2053697A650061F5
:1088700070707461626C650000000000001B786914
:10888000E0AB50C3F0D241726475696E6F006565EC
:1088900070726F6D006D3132383470006D31323866
:1088A0003470006D313238347000656570726F6DF0
:1088B000006D69623531300053544B353030007AE9
:1088C0000980090000221328130000A406AA06004C
:1088D00000666C61736800656675736500666C613F
:1088E0007368006C667573650000000C0B00006D0A
:1088F00031323834006D3332387000666C61736821
:10890000006D3132383400666C61736800312E348A
:108910002E31006D3634347000666C617368003A35
:1089200013000000006866757365006D31323834DD
:10893000006D36343470000000000000006D3332EA
:108940003870006D3634347000666C617368006D89
:1089500033323870008C1892180000C1F0C2F0C396
:10896000F0666C61736800EC15F21500006D36342A
:1089700034006675736500626F6F740066757365A9
:10898000006C6F636B0041413031006D3634340050
:108990006D333238006D333238006D363434006D4B
:1089A000333238000100FF000000FF007D000000AE
:1089B000E7FFFFFFD43000001900000001C80000ED
:1089C00074150000000100005000000001001000BC
:1089D000F6FFFFFF07000000FF000000430000005B
:1089E00040420F00419C000000680100FCFFFFFFB7
:1089F00000080000F401000058020000005C260599
:108A0000A00F000064000000983A0000501400001D
:108A10006810000088130000B80B00001A01000065
:108A200060EA0000A10F00001A000000F1FFFFFF44
:108A3000040000000D00000090D00300F4FFFFFFD1
:108A400000001000302E310071020000FFFFFFFF18
:108A500000FFFFFFD6BE898E0500000031B1E1FFA7
:108A6000F8FFFFFFFFFFFF00555555000200000013
:108A700003000000121191396179B3AF0A000000C0
:108A800039B4483D000020410100614A0000000067
:108A900080EE360001000000E8030000B4A291352A
:108AA000140000000000003F020A8B02148B02F445
:108AB0008A02F28A02EA8A02DA8A02EE8A02C28A0A
:108AC0000829C0F0052A7A15042A032A022A012A55
:108AD000002A0429022901290328F0FFF1FF861545
:108AE000F3FFF4FFF5FF30000128E0FFE1FFC0CC09
:108AF000002801180018192A502A2A2A292A282A67
:108B0000272A262A252A242A232A0A18F2FFC3CC38
:108B1000C2CCC1CC0F1880150C00C082C0839061FC
:108B2000907404F0A37448F0A37402F09061807410
:108B300040F09061BC7403F09061877419F090620A
:108B400065741BF0906249E0C3941390619C4010DF
:108B50007409F09060667401F090619F7428800D34
:108B6000740BF0906066E4F090619F742CF0128DAD
:108B7000057009C291900384746780059003847422
:108B800061F0128D56903800E493F46006E493F996
:108B9000120E2A79051210FA028D64C082C083E990
:108BA000540FF9906185E0696012E5C654B84441FC
:108BB000F5C6E59E5447644170F8E9F053C6B8E540
:108BC0009E544770FA028D64C082C083A8A853A83F
:108BD0007E906181E41299EAC2BA539AFEC2897505
:108BE0009B00C2C275E90075910075BF0075A9119F
:108BF00075B905906181F0A374C0F0A3E4F0D2BA16
:108C0000439A0174805842A8028D64F0A3F0028D4B
:108C100064C082C08374F81225E5900382129EEA34
:108C20007003028CFD900382E0544060177908AA1B
:108C300018AB19120F26AA18AB19120B96900382C3
:108C4000E054BFF0E054806010790C7A4A7B051242
:108C50000F26900382E0547FF0E0A2E0501E128DB8
:108C6000057009C291900384746780059003847431
:108C700061F0120B9C900382E054FEF0E05402601D
:108C80001E128D497009D2919003847471800590F1
:108C90000384746AF0120B9C900382E054FDF0E0B0
:108CA00054046010903804128D59120BA290038264
:108CB000E054FBF0E054086010903805128D591212
:108CC0000BA2900382E054F7F0E05410600D128D77
:108CD00056120BA2900382E054EFF0E05420600A99
:108CE000120BA2900382E054DFF0A3E05401600D68
:108CF000120E48120BA8900383E054FEF074081281
:108D000025FB028D6490619A128F56900524E064D1
:108D10000122C082C083E960051460178029128D8A
:108D2000057009C2919003847467801A900384745B
:108D3000618013128D497009D291900384747180FF
:108D400005900384746AF0801B90619A128F48909A
:108D50000524E0640122903806E493906186F022B5
:108D6000A2E092AFD083D08202013274EA1226557B
:108D700074F41225E5908A5CAC18AD1974041224C1
:108D8000F890380493F46003028EDD907808E0C315
:108D900094025003028EC190887E740412264B7494
:108DA000081224F8A818A919881489157404122621
:108DB0003B88088909AE08AF097510FF7511FF756A
:108DC0000EFF7C00750C48750D78801274086C706D
:108DD00003028E5774096C607E740A6C6079850C8E
:108DE00082850D83780812249D8E828F83A909E5E0
:108DF0000AC9F88812741878081223B3E5124508D6
:108E0000F8C3E098A3E099850C82850D8378081259
:108E1000249D40188E828F83741878081223B3E53E
:108E2000124508F8E0C398F8A3E0801A741878088F
:108E30001223B3E5124508FAE9FB8E828F83129B59
:108E4000B1EAC398F8EB99F9C3E89510E995115088
:108E500006881089118C0E0CE50C2404F50C5002C8
:108E6000050DECC394135003028DCC74FF65107094
:108E70000474FF65116024850E08740278081225B9
:108E8000D274482508F58274783509F5837808127C
:108E9000249D851482851583E508F0EE2402FE509A
:108EA000010F851482851583A3858214858315742B
:108EB0000C122631E5826E7003E5836F6003028D2C
:108EC000B97508017509007808122868740212261D
:108ED0004B7A017B0E1214CC74021225FB740C1217
:108EE00025FB7F0E022727C082C0839061AE746885
:108EF000F0A3746AF090624574FBF0A304F053F49D
:108F0000FD43FE029005247401F09061A0E0643AF4
:108F100090619A7019128F56740164017009C291A0
:108F20009003847467801E90038474618017128F8D
:108F300048740164017009D29190038474718005B2
:108F4000900384746A028C0D743FF0A3745AF090FD
:108F500061A0747FF0227433F0A37455F09061A087
:108F6000743AF0227F04022727C082C0839004D67F
:108F7000E06401700A9004DBE06004790C800279FF
:108F800000028D64C082C08375E1F19004D9E06075
:108F90005114600914605514604D147054120E5A27
:108FA0009004C8E0F97AC97B0412107C908A5412AC
:108FB00024BB1210B2908A681224BB12108890044D
:108FC000DAE0F912109479011210EE1290A3241A2B
:108FD000F582E438F5837472F0A3740EF079000220
:108FE0008D64120E6080B9120E6680B4120E6C8011
:108FF000AF791280EA74F412265575D90D9004CF1A
:10900000E0A2E0E4331313F81291DB484401F5D9F0
:109010007582C97583041291E57004E58364047058
:10902000F57582D0758304129324E58264D67004AA
:10903000E583640470F175E1959004CFE0F97AD08E
:109040007B04121082901A4B7400F0A3740E1291DC
:109050001A12916412915B12929E9004D9E06401FD
:109060009004C6700B1290AC12249D9089F0800978
:109070001290AC12249D908A3078081223FE908AB8
:109080006478081224641290A31291527808122472
:10909000AC1290A31291497413F09003807402F003
:1090A000028F649004C6E0F8A3E0C822129E5978AB
:1090B000082274F71226551291CBF5D97582C9751D
:1090C00083041291E57004E583640470F59004DF75
:1090D000E0600A78E07904FA1291BFDAFB12926C30
:1090E0001291E57004E583640470F59004FFE0607C
:1090F0000A78007905FA1291BFDAFB75E195901AAA
:109100004B740CF0A3740E12911A1291247412F085
:109110009003807401F0FF0227271292877406F0F3
:10912000A3740E2212916412915B1292A29004C653
:10913000E0F8A3E0C812915274FF1299D89004C6C7
:10914000E0F8A3E0C8129149222414F582E438F52E
:109150008322240EF582E438F58322F0A3741EF0F6
:10916000A3740E221291682212916C22F0A37486CD
:10917000F0A3740F2274F71226551291CB4402F516
:10918000D97582C97583041291E57004E58364047E
:1091900070F59004DFE0600A78E07904FA1291BF7C
:1091A000DAFB75E195901A4B1291EDF0A31291ED57
:1091B0001291277414F09003807404F002952088B3
:1091C000828983129328A882A983229004DF1291B6
:1091D000D222E02407F5D91291DB229004C8E0C422
:1091E000333354C022129328E58264CF22741812BC
:1091F00091FA1291FAF0A3740E22F0A3740EF0A368
:1092000074182274F71226551291CB4406F5D975BD
:1092100082C97583041291E57004E583640470F5D6
:109220009004DFE0600A78E07904FA1291BFDAFB7B
:1092300012926C1291E57004E583640470F5900459
:10924000FFE0600A78007905FA1291BFDAFB75E158
:1092500095901A4B7412F0A3740E12927D12912401
:109260007415F09003807403F00295209004FF12AF
:1092700091D24404F5D97582C9758304221292876C
:109280007486F0A3740F2212928B22129298748625
:10929000F0A3740F1292982212916CF0A3221292F2
:1092A000A222F0901A597486F0A3740F12928B7454
:1092B00086F0A3740F129168F022C082C0831290CE
:1092C000A32406F582E438F583E4028C0B74F712CC
:1092D00026559003AE129BA374B028F8740339F995
:1092E000E82405FAE439FB8A828B83129C66888223
:1092F0008983A3A3A3A3A3A3A3A3A3ECF0A3ED1229
:10930000931DA3A3A3A3A3A3E024FFF8A3E034FF2A
:10931000F98A828B83E8F0A3E9F0029520F0888235
:109320008983A32212932822E0F5D9A3229061D049
:10933000E0F87480C398FC12934022F0129340220C
:10934000EA2482F582E43BF583E02212935624045A
:10935000F8E43583F922F582E43FF583E5822212B1
:109360009328E865822274F7122655EAFEEBFF90F7
:1093700061D0E0707875D90E75D90375D904EE24E3
:109380008B1293F212935F7003E9658370F6EE24FB
:109390008312934B12935F7003E9658370F675E156
:1093A000957908EE248BFAE43FFB120F1A7904EE4C
:1093B0002483FAE43FFB120F1A7C00EE24AAF8E49F
:1093C0003FF9ECFAC3E49AFA95E0FBEE2AFAEF3B98
:1093D000FBEA248A129E7388828983F00CA3A882F8
:1093E000A983ECC3940840DA129501800279000247
:1093F00095201293562408F8E43583F922C082C0E0
:109400008375D90275D90375D90575E195EA246F7D
:10941000F582E43B129BAFEA2471F582E43B12959E
:109420000E028D6474F6122655EAFEEBFF90052AB3
:1094300074061294831228687C017903120F7A74DF
:10944000021225FB75D90675D90375822A75830525
:1094500012947B7004E583640570F575E1959003C3
:1094600080E064087010EE246FF582E43F129BAF39
:10947000EE2471129CE7790102964B129328E58243
:10948000642F22F075082A75090578082274F612EF
:109490002655EAFEEBFF9061D0E07036780190052A
:1094A0002A740BF0900380E06407701975082A7520
:1094B000090578081228687C017903120F7A740272
:1094C0001225FB7805129753129324DAFB1294FEAF
:1094D0008002790002964B74F7122655EAFEEBFFE4
:1094E00075D90375D90375D90DEE24DD129E4DF59E
:1094F000D975E19579041210B8129501802275E1B1
:1095000095EE246F129EF0EE2471F582E43FF58310
:10951000E8F0A3E9F0790122F0EEA2E092AF790041
:109520007F0102272774F612265512965860047898
:109530000480027800E8240BF8EAC39840477C09CD
:1095400090052AEC12959F1295AEDDFB129E4A60A3
:109550001B75082A75090578081228687903EEFA40
:10956000EFFB120F7A74021225FB7C0D12958A1202
:10957000965070FB75E19579041210B81298E1A32A
:10958000F079018002790002964B1295908C0822A6
:1095900074012CF5D975D90375822A75830522F0DB
:1095A000EE24E2F8E43FF97A2B7B057D0822129540
:1095B000B22288828983E08A828B8312931DA882DB
:1095C000A9838A828B83A3AA82AB832274F6122694
:1095D000551296586004780480027800E82408F850
:1095E000EAC3984064780690052A740CF090039DB5
:1095F000E090052BF090039EE090052CF090039FE7
:10960000E090052DF09003A0E090052EF09003A1CE
:10961000E090052F1296E7601B75082A75090578FA
:10962000081228687C067903EEFA120F7A74021287
:1096300025FB780A1296E112965070FB75E1957938
:10964000041210B8129501800279007F02022727C8
:109650001293281508E50822EAFEEBFF9061D0E09E
:10966000F87480C398FA1296EC2274F612265512FA
:1096700096586004780480027800E82404F8EAC36D
:10968000984059780290052AE8F0EE24F4129E4D95
:1096900090052B1296E7601B75082A750905780856
:1096A0001228687C027903EEFA120F7A74021225EE
:1096B000FB78061296E112965070FB75E195EE2448
:1096C000731298E4EE247F1298E41298E1A3F079E3
:1096D000041210B8EE240D1295048002790002964F
:1096E0004B129759880822F01296EC22EE2482F54C
:1096F00082E43FF583E02274F612265512932D6022
:1097000004780480027800E82404F8ECC398403E12
:10971000780290052A7407F0EA24F5129E739005EA
:109720002B12933B601975082A75090578081228D1
:10973000687C027903120F7A74021225FB780612F4
:109740009753129324DAFB75E19579018002790031
:1097500002964B129759E8FA22740128F5D975D967
:109760000375822A7583052274F7122655E9FFA234
:10977000AFE433FEC2AF7C0080010C1297FF5011A2
:10978000ECF8EA28F8E43BF91297F5E06F70EB800B
:1097900016EA246EF8E43BF9E0FCEA2CFAE43BFB21
:1097A000129822EF1298EDEEA2E092AF029520C03F
:1097B00082C083A2AFE433FDC2AF129E7014F07C6E
:1097C00000801BECF8EA28F8E43BF9E8246BF5820A
:1097D000E439F583E0C0E01297F5D0E0F00C129781
:1097E000FF40E0EA246DF582E43BF58374FF1298B4
:1097F0002CED028D60E8246AF582E439F5832212AB
:109800009E70F8ECC39822C082C083A8A8C2AF1291
:109810009822E912982CE8A2E7E433FAE8A2E702DA
:109820008D62EA246AF582E43BF58322F0EA24693A
:10983000F582E43BF583E4F02274F3122655EAFE48
:10984000EBFFECFAEDFB8A828B83A3A3A3A3E05486
:109850001FF0EE24361298E4750A00EE245DFCE455
:109860003FFD8A828B83E08C828D83F0750B00E54F
:109870000A33333354F8F50C8A828B83E0F508758C
:109880000900E50B78081225B3E508A2E05027EEA1
:109890002436F8E43FF988828983E0F508EE25084C
:1098A000F508E43FF509E5082438F582E43509F5C3
:1098B00083E50C1298ED050B050CE50BC3940840ED
:1098C000B7050A8A828B83A3AA82AB838C828D839D
:1098D000A3AC82AD83E50AC3940540867F050227C9
:1098E00027EE241DF582E43FF583E4F0221298F37D
:1098F00004F022F088828983E02274F712265590C2
:1099000003ACE0640170030299D09003B2E06003FD
:109910000299D07401F0A3E4F0A3F090041204F0D3
:10992000900417F09003B51299D79003BF04F090FC
:1099300003E5E4F09003C81299DEA3F090042FF041
:10994000900423F09004187480F0A3E4F090041EB7
:10995000F090049A1299F59004A3F0900432F090DC
:1099600004821299F5A3F0A3F090048EF090049075
:10997000F090048CF09004A61299F59004B9F09040
:1099800004B31299DE74FF90041A7804F0A3D8FC93
:109990007A0D7B0478BA79041299F064BF7003E9F8
:1099A000640470F47A927B04789479031299F064D9
:1099B0009C7003E9640370F49003ACE004F064016C
:1099C00070089003B4E09003AEF07AB07B0380049B
:1099D0007A007B00029520E41299EAA3F022129902
:1099E000E2221299EAA31299EA22F0A3F0A3F0224C
:1099F0001295B2E8221299E2A3F0A3F022C082C02D
:109A0000838A828B83A3A3A3E0600F8A828B83A3C4
:109A1000A3A3E4F09003ADE014F09003ACE014F0E5
:109A200070069003AE74FFF08A828B83A3A3E4F0E8
:109A30009004BFE0700D9003ADE064017005790003
:109A400012109A028D64C082C0839003B3E4F09038
:109A500003B2F09003ACF0A3F0A374FFF075E1F152
:109A6000028D64C082C083780079009003B3E06007
:109A70000478B0790388828983A3A3A3A3E0F902C1
:109A80008D6474EE1226558A0A890C9003ADE0F8B5
:109A9000E9C398502278FF79FF9003B3E0601390F8
:109AA0000423E06401700590042980039003DE1212
:109AB0009BB1E8FEE98011E96009A3129BA3129B08
:109AC000948005EA2AFEEB33FF8E0E8F0F74037825
:109AD0000E1225C39003ADE0F8C3E50E98E50F9490
:109AE000005003029B80E50A25E0F50AEB33F50BF5
:109AF000EC2CF508ED33F509AC0AAD0B8007EC242E
:109B000002FCE43DFDC3E5089CE5099D4060C3EC13
:109B10009EED9F403FECF8EDF9EEFAEFFB12255A6F
:109B20008B0FEA450F60068E0E8F0F8006750E00B4
:109B3000750F00ECF8EDF9EEFAEFFB12255A8A10DA
:109B40008B11EC9510F8ED9511F9E8250EFCE9352F
:109B50000FFD801AE0F8E50CC3985012EEF8EFF90B
:109B6000ECFAEDFB12255A8B0FEA450F7090C3EC0F
:109B7000950AED950B4009C3E5089CE5099D500643
:109B80007AFF7BFF8009ECFAEDC313FBEA13FA7F3F
:109B90000A02272774DE28F582740339F583E0FE74
:109BA000A3E022E0F875F00AA4C8AAF02AF922F589
:109BB00083129EF62274F612265574FC1225E5EAED
:109BC000FEEBFF803CEE2463F8E43FF97A007B0073
:109BD000A2AFE433F508129C60EC4D600F129EAF0B
:109BE000700A88828983A3A3E4F0A3F0E508A2E0C9
:109BF00092AF1216BE9004C0E004F09004C1E004DD
:109C0000F0EE2463F582E43FF583129EEA70B6908D
:109C100004C1E060358E828F83A3A3A3A3E08518DF
:109C200082851983F0A3E4F09004C1E0F874021275
:109C30002631E8F0A3E4F0740212264BAA18AB19FF
:109C40007901120C029004C1E4F0EEFAEFFB120E5F
:109C5000D2EEFAEFFB120FB074041225FB02964B02
:109C6000C2AF88828983E0FCA3E0FD2274F712264C
:109C700055EAFEEBFF8E828F83A3A3A3A3E0FA7BBA
:109C800000120BD8EEFAEFFB120EEA120F920295B9
:109C900020C082C083E49003947808F0A3D8FC909D
:109CA000039404028C0D74F6122655EAFEEBFFECC9
:109CB0002403F8E43DF988088909EC2407F8E43D19
:109CC000F9E8FCE9FD129CF312255AEE240D129CD2
:109CD000E7129CF312255A8B09EA45096006EE2427
:109CE0000D129D0602964BF582E43FF583E8F0A342
:109CF000E9F0228C828D83129EF685088285098385
:109D0000E0FAA3E0FB22F582E43FF583E02401F0D2
:109D1000A3E03400F02274F6122655EAFEEBFFEEC3
:109D2000242EF582E43FF583129C66780079FAECE4
:109D3000FAEDFB12255AEE246F129CE7780079FAAF
:109D4000ECFAEDFB12255A8B09EA45096006EE2470
:109D50006F129D0602964B74F4122655EAFEEBFF35
:109D60001210528A088B098C0A8D0B908A6C780825
:109D70001223FE908A6478081224647808122864FA
:109D80008E828F83129E551224BB1234D474041217
:109D900025FBE96003029E458E828F83E02402F852
:109DA000A3E03400F9E8FAE9FB740C1226317808D4
:109DB00012249D8A828B837808122411908A6478F9
:109DC0000812249D8A828B837808122477EE240B54
:109DD000F582E43FF583C082C0838E828F83A3A384
:109DE000A3A3A3E02401F8A3E03400F9D083D08238
:109DF000E0687003A3E06970047901804A8E828F65
:109E000083A3A3A3A3A3A3A3129D0CEE2473129E6A
:109E10004D64017013EE2474129E5F7003A3E06919
:109E20007006EE2474129D06EE247F129E4D64018E
:109E30007013EE2480129E5F7003A3E0697006EE3B
:109E40002480129D067900028F64EE2482F582E45C
:109E50003FF583E022129E5922129E94A3A3221260
:109E60009EF08E828F83A3A3A3A3A3A3A3E0682263
:109E7000EA246EF582E43BF583E02274F71226555E
:109E8000129EDF8A828B836005A3A3129E94129E8A
:109E90009D029518E0F8A3E0F583888222129ED5F2
:109EA000A3A3ECF0A3EDF08C828D83E4F0A32288D1
:109EB000828983E0FAA3E0FB8A828B83E0FCA3E043
:109EC000FD88828983129ED5E4F0A31298F3FCA347
:109ED000E0FDEC4D22ECF0A3EDF08A828B8322A210
:109EE000AFE433FEC2AF8A828B83129EF6E849222A
:109EF000F582E43FF583E0F8A3E0F92274F7122637
:109F000055E96006F8129F11D8FBECFAEDFB0295BB
:109F1000208C828D83E08A828B83129F278A828B9A
:109F200083A3AA82AB8322F08C828D83A3AC82AD03
:109F3000832274F6122655ECF8EDF9E86A7002E90E
:109F40006B700F7A007B00806888828983A3A88267
:109F5000A9838A828B83E0FEFC74BF2EC3941A50BF
:109F60000AEC2420FEE43400FF80027F008882890E
:109F700083E0F508FC74BF2CC3941A500CEC242029
:109F8000F508E43400F5098003750900EEC395086F
:109F9000FCEF9509FDEC4D7014EAFEEBFF8E828F0D
:109FA00083A3AA82AB838E828F83E0709CECFAED50
:109FB000FB7F0202272774F612265574FE1225E550
:109FC00074011226317472F0750801750900780861
:109FD000122868740212263B88088909780812281A
:109FE0006875080175090078081228687407122638
:109FF0004BEA241EF582EB12AF9D12265374061213
:10A0000025FB851882851983E05480FA7B00740251
:10A010001225FB809C74EB12265574FC1225E58AF0
:10A02000088B098C0A8D0B85188285198374F3F0CF
:10A030007401122631E9F0EA241EFEEB3401FFE43C
:10A04000F50CF50D780C122868780C122868750C40
:10A0500002780C122868740612264B8E828F8312A7
:10A06000AFA112265374061225FB8A0C8B0D74FFC8
:10A07000650C700474FF650D700302A1538518828E
:10A080008519837468F0E50A2419F50A5002050B56
:10A090007419122631780C12249DA90C850A828528
:10A0A0000B83781012249DE51029C0E0740112265C
:10A0B00031D0E0F0E4F510F511781012286878102E
:10A0C0001228687510027810122868740612264B40
:10A0D000AA08AB098E828F8312AFA1122653740691
:10A0E0001225FB8A108B1174FF6510700474FF65D4
:10A0F0001160608518828519837469F0850A8285EC
:10A100000B83781012249DE510250CE511350DC048
:10A11000E07401122631D0E012AF78122868780A74
:10A12000122868750A02780A122868740612264BEB
:10A13000AA08AB098E828F8312AFA1122653740630
:10A140001225FB8A088B0974FF6508700474FF658B
:10A150000970067AFF7BFF80047A007B007404128A
:10A1600025FB7F0D02272774E812265574F7122568
:10A17000E5EAFEEBFF8C088D09EE241CF510EF34A8
:10A1800001F51185108212B226700302A27C12A979
:10A190006612AF9F1226537C007D00EEFAEFFBEEB5
:10A1A000240612AF9A122653742112263112B037A8
:10A1B0007423122631780C12249D7427122631E064
:10A1C000F512A3E0F513E50812A3BA607A12AF5FA7
:10A1D00012B226700302A27CEEFAEFFB12061A8B73
:10A1E00011EA451170F2780C1228647900AC0AADBE
:10A1F0000BEEFAEFFB12062074041225FB74011219
:10A2000026317420F0750A01750B00780A1228684F
:10A210007812122868780A122868740712264BEE02
:10A22000FAEFFB85088285098312AFA112265374C9
:10A23000061225FB8A088B0974FF6508700474FFF9
:10A240006509603802A3B1E50A2434F582E4350BD0
:10A25000F58312A97845096016E50CA2E05007E5E0
:10A260000A243612A3C67401780C1223B38007E5C2
:10A270000A243012A3C6E508450970077AFF7BFF60
:10A2800002A3B5E50A2440F582E4350B12A98260E9
:10A290006B75140475150078141228687C007D0015
:10A2A00074031226431219E274021225FB74011280
:10A2B000264BAA0AAB0B120656780C1228647405BA
:10A2C00012264BAA0AAB0B12065C74041225FB740F
:10A2D0000512263B880A890B780A12286874031233
:10A2E000264BEEFAEFFB85108285118312AFA11287
:10A2F000265374021225FB12B302406B750A0475D3
:10A300000B00780A1228687C007D00740312264333
:10A310001219E274021225FB740112264BAA08AB33
:10A3200009120656780C122864740512264BAA08E6
:10A33000AB0912065C74041225FB740512263B88D7
:10A340000A890B780A122868740312264BEEFAEF7A
:10A35000FB85108285118312AFA11226537402125D
:10A3600025FB12B3025002804C851882851983E4C4
:10A37000F0A818A919880A890B780A1228687407A6
:10A3800012264BAA08AB0912066874021225FB7C40
:10A39000007D00EEFAEFFB85168285178312AFA1D0
:10A3A000122653851882851983E0851282851383CE
:10A3B000F07A007B00740902AFF512B0113509F58F
:10A3C00083A3E0540822F582E4350BF58312A3D170
:10A3D00022E0F508A3E0F5092274F4122655EA12EA
:10A3E000B2053BF583780812249DE50824FFF8E5C3
:10A3F000098005E824FF18E934FFF9C3E89401E96E
:10A4000012B304401E12B00C3B12A921F460E4E820
:10A410002401FAE439FBEAA2E0500C24010A5007B7
:10A420000B80047A007B007F0402272774E8122641
:10A430005574EE1225E57402122631ECF0A3EDF00E
:10A440008A148B15851882851983E4F0A3F0742A89
:10A4500012263112B2F1740212263112AFBB12066B
:10A46000808A0A8B0BAE0AAF0B742C12263112AF06
:10A47000BBEA4B6012AC08AD0912068085188285D4
:10A480001983EAF0A3EBF0EE4F700302A63012A896
:10A49000CD12249D78081228687CFF7D00EE12B052
:10A4A0000D3FF58312AFBB1219E274021225FBEEC9
:10A4B0002415F516E43FF517740C1226317477F065
:10A4C000A37489F0740A122631746FF0A37488F0B3
:10A4D000740812263174FDF0A37487F074061226F6
:10A4E000317449F0A3748912AF73242EF8A3E034B9
:10A4F00000F97404122631E8F0A3E9F07402122680
:10A500003112AF815408700302A635851682851773
:10A510008312B228700302A78EE514241EF510E5FD
:10A52000153401F51185108212B226700302A6358A
:10A53000AA14AB1512061A8B09EA450970F2908A23
:10A540008C12287B7900EEFCEFFDAA14AB151206E5
:10A550002074041225FB750C00750D00750E007536
:10A560000F00750800750900750A00750B0080085A
:10A57000908A94780C1223FE12A8C7121AAC5003CA
:10A5800002A8B585188285198312B228601AAA0C10
:10A59000AB0D740412263112AFA52AF8A3E03B8854
:10A5A00082F583E0A2E050C87808790C121A126094
:10A5B00023780C1228647900EEFCEFFDAA14AB1589
:10A5C00012062074041225FB850C08850D09850EE2
:10A5D0000A850F0B740E1226317424F07512017562
:10A5E0001300781212286812A902F512A3E039F5B7
:10A5F0001378121228687512017513007812122848
:10A6000068741412264BAA14AB1585108285118329
:10A6100012AFA112265374061225FB908A94780873
:10A620001223FE74FF6A700374FF6B600302A5704F
:10A630007AFF02A869E5142428F582E51534011291
:10A64000B226700302A78E12AFB5EA4B700302A7C1
:10A650008E7508007509008037908A94780C122353
:10A66000FE12A8DD121A8C501D85188285198312DE
:10A67000B2286012A80CA90DEE242EF582E43F1238
:10A68000A921A2E050D3E5082AF508E5093BF50920
:10A6900012A8F1121A6650C9750800750900750AEA
:10A6A0000012A8F1121A66500302A7308008908A9F
:10A6B00094780C1223FE12AFB512A8DD121A8C503A
:10A6C0006185188285198312B228601AAC0CAD0D11
:10A6D000740412263112AFA52CF8A3E03D8882F550
:10A6E00083E0A2E050C88A0C8B0D780C12286878A1
:10A6F00008122868780C1228688E0C8F0D780C12BE
:10A700002868740A12263112A9182428F582EB123F
:10A71000AF9D12265374081225FB12B30250037525
:10A720000A0185168285178312B021400302A6A173
:10A73000E50AA2E04058740612263112AFCF120685
:10A74000148B09EA45096036740812263112AFCF1E
:10A750001206148B09EA45096024740A1226311284
:10A76000AFCF1206148B09EA45096012740C122649
:10A770003112AFCF1206148B09EA4509700302A803
:10A78000B512A8CD12249DAA08AB0902A8C27C3438
:10A790007D88EEFAEFFB1219FA8B09EA4509703B46
:10A7A000E5142432F582E515340112A910880A89CE
:10A7B0000BE8450B60258E088F097808122868740D
:10A7C0000412263112B017AA14AB15850A828983A8
:10A7D00012265374021225FB02A8C2750C00750DD7
:10A7E00000750E00750F008008908A94780C122373
:10A7F000FE12A8C7121AAC407485188285198312FC
:10A80000B2286020A80CA90D7404122631E0FAA326
:10A81000E0F5838A82E028FAA3E0398A82F583E0B2
:10A82000A2E050C512A902F508A3E039F50978089D
:10A83000122868780C1228648E088F09780812286C
:10A8400068740A12263112A9182430F582EB12AF6F
:10A850009D12265374081225FBEA4B608C74FF6A24
:10A86000700374FF6B70827AFE7BFF805574061252
:10A87000263112AFCF1206148B09EA4509603674EF
:10A880000812263112AFCF1206148B09EA4509606F
:10A8900024740A12263112AFCF1206148B09EA452E
:10A8A000096012740C12263112AFCF1206148B09F4
:10A8B000EA45097009EEFAEFFB12062C8004AA0C97
:10A8C000AB0D741202AFF512A8D3780C2212A8D3E4
:10A8D000780822EE2411F582E43FF58322E5082A68
:10A8E000F510E5093BF511E4F512F5137810790C34
:10A8F0002212A8D385080C85090DE4F50EF50F7812
:10A900000C22A80CA90DEE12B0113FF583E028220D
:10A91000F583E0F8A3E0F92212B01BAA14AB15EA04
:10A9200022F583E028FCA3E0398C82F583E02274D1
:10A93000F01226558A088B098C0A8D0B80030000C3
:10A940000085080C85090D850A0E850B0F908A4C31
:10A9500078081223FEE50C450D450E450F70DF808B
:10A96000007F08022727EE2408F516EF3401F517BB
:10A970007C017D008516822212A3D1E50822F58292
:10A98000E438F583E0F50AA3E0F50BE50A450B2270
:10A9900074E812265574ED1225E57407122631EC81
:10A9A000F0A3EDF0E9851882851983F0EAFEEBFF4C
:10A9B000751400EE241CF582EF340112B2267003E8
:10A9C00002AC63740712263112AF81FB742D12267C
:10A9D00031780C12249DEB5408700302AB6F12AF58
:10A9E0005F12B226700302AC637C497D89742B121E
:10A9F000263112AFBB1219FA8B0BEA450B7003021A
:10AA0000AC63742B12263112B2202419F582E4387B
:10AA1000F583850C10850D11850E12850F137810A6
:10AA20001223FEE510A2E0500302AC63EEFAEFFB46
:10AA300012061A8B0BEA450B70F27C727D89742B1F
:10AA400012263112AFBB1219FA8B0BEA450B707547
:10AA5000850C10850D11850E12850F13908A947840
:10AA60001012248A78101228647914742F12263157
:10AA700012AFCF12062074041225FB740212263185
:10AA80007460F0740312263174FF12AF78122868D4
:10AA9000780A122868750A02780A1228687408125F
:10AAA000264BEEFAEFFB85088285098312AFA112CF
:10AAB000265374061225FBEEFAEFFB12061A8B0BD7
:10AAC000EA450B70F2780C122864791D742F122657
:10AAD0003112AFCF12062074041225FB7402122625
:10AAE0003112AF71C0E07403122631D0E012AF789A
:10AAF000122868780A122868750A02780A122868EB
:10AB0000740812264BEEFAEFFB8508828509831242
:10AB1000AFA112265374061225FB740212263112BD
:10AB2000AF71C0E07403122631D0E0F0E4F50A788A
:10AB30000A122868780A122868750A02780A122808
:10AB400068740812264BEEFAEFFB850882850983AC
:10AB500012AFA112265374061225FBEEFAEFFB1278
:10AB6000061A8B09EA450970F27A007B008062744C
:10AB70002B122631E0241012B20BF583E07064EB47
:10AB80005410705F740612263B88088909780812F1
:10AB90002868780C122864743112263112287F74C8
:10ABA0000F12263112B017EFFBEE243012AF9A12BB
:10ABB000265374081225FB8A088B09A808A909E8FE
:10ABC00049601374FF68700374FF6960167AFE7B36
:10ABD000FF741302AFF5751401740612263112AF1B
:10ABE000AA6086742B12263112B220243812A97E54
:10ABF0006012E50CA2E05037742B12263112B220FD
:10AC0000243A8028851682851783E06037742B12DA
:10AC1000263112B220243C12A97E6028E50CA2E065
:10AC2000500D742B12263112B220243E12B0318501
:10AC30000C10850D11850E12850F137401781012FA
:10AC400023B38013742B12263112B220243212B097
:10AC500031850C10850D11851008851109E50A450F
:10AC60000B70057AFF02ABCF7C0112AF9112265315
:10AC70007C007D00EEFAEFFBEE240612AF9A12265E
:10AC80005375100475110078101228687C007D003F
:10AC900074041226431219E274021225FB74021284
:10ACA000264BAA0AAB0B120656850810850911E43B
:10ACB000F512F5137810122864740612264BAA0AAE
:10ACC000AB0B12065C74041225FB85188285198370
:10ACD000E0F9740212264BAA0AAB0B120662740F3B
:10ACE00012263B88088909780812286874041226FD
:10ACF0004BEEFAEFFBEE241C12AF9A1226537402AD
:10AD00001225FB851682851783E07029742B122685
:10AD100031E0241FF8A3E03400F97409122631E869
:10AD2000F0A3E9F0E514A2E04014740912263112F0
:10AD3000AFC112063812AF8F12265302AB69740DE1
:10AD4000122631E4F0A3F0740B122631E4F0A3F0E4
:10AD5000851882851983E0F8742B122631E0F9A357
:10AD6000E0C92422F582E439F583E0686016742B8B
:10AD7000122631E0F9A3E0C92423F582E439F583F2
:10AD8000E068705C740912263112AFC11206387483
:10AD90000112263B880889097808122868780C1265
:10ADA0002864743112263112287F740F1226311252
:10ADB000AFDB12265374081225FB8B09EA45097094
:10ADC0000302AF0012AF8F1226537C007D00EEFA13
:10ADD000EFFBEE240612AF9A1226537AFB02ABCF9A
:10ADE0001217C08A108B118C128D13908A987808D4
:10ADF00012249D78107908122296740112263B883D
:10AE00000889097808122868780C122864743112AD
:10AE1000263112287F740F12263112AFDB1226530F
:10AE200074081225FB8B09EA4509601C12AF8F12CA
:10AE300026537C017D00EEFAEFFBEE240612AF9A5A
:10AE40001226537AFC02ABCF1217C08A088B098CEA
:10AE50000A8D0B740112263112AFAA700302AF00E3
:10AE6000740912263112AFA5F514A3E0F515339538
:10AE7000E0F516F517C014C015C016C017908A98D3
:10AE8000781412249D780879141222967808791083
:10AE9000122424D017D016D015D0147814790812A3
:10AEA0001A8C500302ADFA742B12263112B22024F0
:10AEB00021F582E438F583E0605B12AF8F122653F0
:10AEC000EE2476F582E43F12B2266049EEFAEFFBFB
:10AED000EE241612AF9A122653908A381224BB120F
:10AEE0000638740712263112AFCFEE240C12AF9A37
:10AEF00012265312B302400302AB697AFD02ABCFB4
:10AF0000740112263112AFAA709D740B122631748F
:10AF100001F0A3E4F0740D122631E02401F0A3E067
:10AF20003400F0740B12263112B228600302AD35E2
:10AF3000740D122631C3E09406A3E012B30450034B
:10AF400002AD5012AF8F1226537C017D00EEFAEF56
:10AF5000FBEE240612AF9A1226537AFA02ABCF12F6
:10AF6000AF6685088222EE241EF508EF3401F5094C
:10AF700022746412AFFDE022F0E4F50AF50B780AC2
:10AF800022E0F8A3E0C812B01138F583A3E0227CD8
:10AF9000007D00EEFAEFFBEE2408F582EF3401F5B8
:10AFA0008312AFEC2212AFECE022E0F88518828524
:10AFB0001983E06822851682851783E0FAA3E0FBF7
:10AFC0002212AFECE0FAA3E0FB3395E0FCFD221285
:10AFD000AFD32212B01BEEFAEFFB2212AFD3EE2456
:10AFE00030F582EF3401F58312AFEC22E0F8A3E0F4
:10AFF000F5838882221225FB7F10022727F085180F
:10B000008285198322EA2406F582EB22EA12B01126
:10B0100022242CF582E42212B01B22E0FCA3E0FDE6
:10B0200022E02508F508A3E03509F509E50AA2E0C4
:10B0300022F582E438F583E0F50AA3E0F50B2274EB
:10B04000E812265574FC1225E57402122631ECF044
:10B05000A3EDF08A0A8B0B750800750900741C12A9
:10B06000263112B017740212263112AFBB120680BD
:10B07000851882851983EAF0A3EB12AFFD12B2287E
:10B0800070077AA37BFF02B2007C007D00AA0AABA6
:10B090000B12B00512AF9D122653851882851983B5
:10B0A00012B22012B20538F583781012249D741E56
:10B0B000122631E0F50CA3E0F50DE4F50EF50F785E
:10B0C00010790C121A3C500C850C10850D11850E50
:10B0D00012850F13E50A2426F582E50B340112B21E
:10B0E00026700302B1FC851882851983E0241512AD
:10B0F000B20B12B226700302B1FC1213827E007FE3
:10B10000007514008E0C8F0D7810790C121A3C40CB
:10B110000302B1F0D290742012263112B2286032AC
:10B120008E088F09780812286874021226311228B6
:10B130007F740612263112B217242AF582EB12AF61
:10B140009D12265374041225FB8A088B0912B30240
:10B15000407B12AFB5EE2AF50CEF3BF50D78107978
:10B160000C121A3C501BD29085168285178312A3AD
:10B17000CD78081228688E0C8F0D780C1228688004
:10B1800023851008851109E508C39EF508E5099F88
:10B19000F50978081228688E088F0978081228683F
:10B1A0008A088B097808122868740612263112283A
:10B1B0007F740A12263112B2172426F582EB12AFE1
:10B1C0009D12265374081225FB8A088B09C3E509D2
:10B1D00012B3045003751401C2908516828517833B
:10B1E000E02EFEA3E03FFFE514A2E0400302B1041D
:10B1F000E514A2E04006AA10AB118004AA08AB092E
:10B20000740402AFF52411F582E422F516A3E034AC
:10B2100000F5178516822212B01BAA0AAB0BEA2290
:10B22000E0F8A3E0C822F583E0F8A3E0F9E84922BA
:10B2300074F0122655ECFEEDFF741012263112B296
:10B24000F11206808A0A8B0BEA450B700302B2DF0B
:10B25000AC08AD09EEFAEFFB1206808A088B09EA0A
:10B260004509607BE50A12B00D350B12A910E8FC08
:10B27000E9FD12B00C350912A910E8FEE9FF12B27F
:10B28000F8780C12249DA80CA90D74121226311204
:10B29000AFBB12B2E65004E8FAE9FB78007900800F
:10B2A0000508E870010912B2E65038E508242EF5C9
:10B2B00082E43509F583E028F50AA3E039850A829E
:10B2C000F583E0A2E050DAEC28F582ED39F583E071
:10B2D000F50AEE28F582EF39F583E0650A60C27A57
:10B2E000FF7BFF02A961C3E89AE99BA2D265D03334
:10B2F0002212A3D1AC08FD22E50A12B205350BF5E6
:10B300008322C3EB9400A2D265D033221225FB7FA7
:10B3100008022727A908800BE0F8A3E0F922740EA1
:10B320001225FB7F0402272774F012265574B112F0
:10B3300025E58C0C8D0D908937742012264B7406F0
:10B340001224F8742012264B1213CAE9F508745F10
:10B35000122631E0F50AE9C3940A400302B4A67547
:10B36000F006E9A4F509744112264B7A0E742025E3
:10B3700009F9121778E97009744D122631E0FF803F
:10B38000027F00901B79E064027005750E01800356
:10B39000750E007408650A700474228002742125F9
:10B3A00009F50F7C1B7D00790074261226431216C6
:10B3B00052EFA2E0E433FE742612264B7A1BA90F4B
:10B3C000121778E970257440122631E024F9C394ED
:10B3D0000A5018780E12286C742712264BEEF9AA20
:10B3E0000CAB0D12086074011225FB7C147D0079F2
:10B3F00000740C122643121652740C12264B7A104B
:10B4000074242509F9121778E970307C1079FF74DB
:10B410000C1226431216B2E97021741C122631ACAC
:10B4200082AD837A0474252509F9121778740C12F9
:10B43000264BEEF9AA0CAB0D120848AC18AD197AE0
:10B440000C74702508F9121778E97049AA18AB191D
:10B450001213F47E00EE75F003A4F8A9F0851882AB
:10B46000851983E58228F8E58312BBD412BDB56047
:10B470001D88828983A3A3E0F50875090078081266
:10B480002868AA0CAB0D120B1E74021225FB0EEEDF
:10B49000C3940440C0EFA2E1500C900750E0F9AA19
:10B4A0000CAB0D120B247404650A7028901B79E014
:10B4B000640270207A00900764E060027A019007CD
:10B4C00051E06004780480027800E84AF9AA0CABE5
:10B4D0000D1209147900744F02B30C74F71226553B
:10B4E00012093EE9704F9007F9E0640170151214DB
:10B4F000189007F9E4F07C0AFDF97AFA7B07121636
:10B5000052802A750800A80874FA28FEE43407FF60
:10B510008E828F83E06401700BA90812141E8E8244
:10B520008F83E4F00508E508C3940A40D9795012E6
:10B53000177E12140C02BEF174F012265574F0122C
:10B5400025E5EAFEEBFF8C088D09750A0AE9600C17
:10B5500014600914603B14607D02B62E121406E9D3
:10B56000F50AC3940A400302B62EE50845097003A4
:10B5700002B62E750C06750D00780C122868EEFCCC
:10B58000EFFDAA08AB0912163A74021225FB02B6A7
:10B590002E750C00750E06750F00780E122868EED9
:10B5A000FCEFFDE50C75F00EA4F8A9F0747228FA12
:10B5B000740739FB12164C74021225FBE9700B0557
:10B5C0000CE50CC3940A506680CA850C0AE50AC3D0
:10B5D000940A505A8049750C00AC18AD197A107550
:10B5E000F006E50CA42423F9121778E9701C7C10EE
:10B5F00079FFAA18AB191216B2E9700EEEFCEFFD36
:10B60000AA18AB19120824E9600B050CE50CC394C9
:10B610000A501B80C4850C0AE50AC3940A500FE542
:10B620000845096009AA08AB09A90A121400A90A69
:10B63000741002B30C74F412265589097508157438
:10B64000FF6A700374FF6B70277E00AC097A027B7F
:10B6500000EEF91213E2E960037508000EEEC394E0
:10B660000A40E8E50960537A307B14120D58804A8D
:10B67000120D288A0A8B0BAE0AAF0BEE4F60387C96
:10B68000007D00EE2405FAE43FFB8E828F83A3A3A6
:10B69000A3A3E0F91213CAE9F9C3940A500CAC0948
:10B6A0007A027B001213E2750800E509600CEEFADD
:10B6B000EFFB121430800375081402B31474F212F5
:10B6C0002655ECFEEDFF750815740E122631E0F5D7
:10B6D0000AA3E0F50B74FF6A700374FF6B702175A9
:10B6E0000900AC0AAD0BEEFAEFFBA9091213E8E969
:10B6F00060037508000509E509C3940A503F80E21C
:10B70000120D288A828B83E5824583602D7C007D23
:10B7100000E5822405FAE43583FBA3A3A3A3E0F9A3
:10B720001213CAE9F9C3940A5013AC0AAD0BEEFA2E
:10B73000EFFB1213E87508008003750814A90802CE
:10B74000BB9C74EF12265574EC1225E5EAFEEBFF64
:10B75000EE240CF50CE43FF50DEE2405F50EE43F68
:10B76000F50FEE2409F50AE43FF50BEE2403F50886
:10B77000E43FF5098E828F83A3A3E024FA700302CD
:10B78000BA1824FD700302B93A14700302B81814F1
:10B79000601024FD700302B90E14700302B9710227
:10B7A000BA1E12C63A6049E0F583888212B318883F
:10B7B0000E890FE8450F6038850C82850D83E0F512
:10B7C0000C780C12286CEE240BF582E43FF583E034
:10B7D000F9850A82850B8312BDBB0A0A0AAB09856B
:10B7E0000E82850F8312265374011225FB02BA1EA6
:10B7F000850A82850B8312287F9007661224BB126C
:10B80000085A74021225FBE9700302BA1E790185F9
:10B810000A82850B8302B9E87510008E828F83A39C
:10B8200085820A85830BE0600302B8DB850E828582
:10B830000F83E0A2E0400302B8DB90080412C63D8B
:10B84000600302B8DB7C0E7D007900AA18AB1912E8
:10B850001652850C82850D8312C26DEA4B601075FD
:10B860000C06750D00780C122868EA2410801B1253
:10B87000C267120D28EA4B700302BA1E750C0675DA
:10B880000D00780C122868EA2405FCE43BFD7402E4
:10B8900012264312163A74021225FB850E82850F7A
:10B8A00083E0A2E25004D2F08002C2F0A2F0E433BE
:10B8B000F8740C122631E048F0EEFCEFFDAA18AB4C
:10B8C000191213FAE970117A027B00900750E0F91F
:10B8D00012168E790002BA2075101512C63A70033E
:10B8E00002BA1E12C236700302BA1E850A82850B86
:10B8F00083E0FC790112BA2A122653E51070030284
:10B90000BA1EFC790312C26712C21C02BA1312C615
:10B910003A700302BA1E12C24912B318890BE845E5
:10B920000B700302BA1E8E828F83A3E0FC79021291
:10B93000C2678882850B8302BA137C007D00EE24E7
:10B9400004FAE43FFB850882850983E0F91213CAF3
:10B95000E9F8C3940A400302BA1EEE240AFCE43F4D
:10B96000FD7A0475F006E8A42425F912177202BACC
:10B970001E12C267900765E06007901B7AE0F980AD
:10B980006A901B79E0700479058060120D288A0C9A
:10B990008B0DA80CA90DE849700302BA1EE8240417
:10B9A000F50CE439F50D8E828F83A3A3A3A3A3A383
:10B9B000A3E0A2E0503A850C82850D83E0FE603062
:10B9C000850A82850B83A3E054027024740E12262C
:10B9D0004BE82405FAE439FBEEF91213CAE97010BA
:10B9E000790385088285098312C26D120854802E5E
:10B9F000AC0EAD0F850C82850D83E0F912C2671283
:10BA0000143C12C63A601712C23660127C007900EC
:10BA100012BA2A122653800612C2671213C4790181
:10BA200074141225FB7F0902272785088285098364
:10BA3000E0FAA3E0FB8E828F832274F51226557400
:10BA4000F21225E5EAFE8C0A75F006E9A42420F539
:10BA500008AC18AD197A0EF9121778E970467C0611
:10BA600079FFAA18AB191216B2E97038740C1226B5
:10BA70003112C26DEAF8E50A6005EEC8488004EEAE
:10BA8000F4C858F8EA687001EB6015740C1226319E
:10BA9000E8F0A3E4F0AC18AD197A0EA908121772F9
:10BAA000790180027900740E1225FB7F030227279B
:10BAB00074F212265574E61225E5890A8A088B0964
:10BAC000ECFEEDFF740C12264B7A0E75F006E9A41D
:10BAD0002420F9121778E9600302BB957C0679FFF0
:10BAE000740C1226431216B2E9600302BB957470FF
:10BAF000250AF50BAC18AD197A0CF9121778E96024
:10BB00000302BB91AA18AB191213F4E5084509709A
:10BB10001D7C0C7900AA18AB191216B2E970727C60
:10BB20000C7D007900AA18AB191216528051AC187E
:10BB3000AD19AA08AB091213EE8A0C8B0DA80CA93B
:10BB40000DE8497022EE4F604CAC18AD197A007BBD
:10BB5000001213EEEAF8EBF9EA4B60398882898328
:10BB6000E508F0A3E509F012BC10FAEE6A7001EFE7
:10BB7000601FEEF04F700888828983E4F0A3F0AA7A
:10BB800018AB191213F4AC18AD197A0CA90B1217D3
:10BB900072790180027900741A1225FB7F06022750
:10BBA0002774F71226557E00EE75F003A4F8A9F06D
:10BBB000EC28F8ED12BBD4E06A7003A3E06B7006CA
:10BBC000E8FAE9FB800B0EEEC3940440DB7A007BBD
:10BBD0000002BEF139F9888289832274F712265552
:10BBE0007C00EC75F003A4F8A9F0EA28F8EB12BB8E
:10BBF000D4E0F4FEA3E0F4FF88828983EEF0A3EFA3
:10BC0000F012BC10F4F00CECC3940440D502BEF169
:10BC1000E82402F582E439F583E02274F412265513
:10BC200074F41225E5EAFEEBFF8C088D09900804F8
:10BC300012C63D704FEE4F700302BD94EC45097083
:10BC40000302BD94121406E9901B7DF0C3940A40D0
:10BC500033750B007C0679FFE50B75F00EA4FAAB8B
:10BC6000F0746C2AFA74073BFB1216B2E960030207
:10BC7000BCF5050BE50BC3940A40D9750A0AE50A21
:10BC8000901B7DF0901B7DE0C3940A400302BD949D
:10BC900075F006E0A4FB90080412C63D705CEEFC53
:10BCA000EFFD7A0E74202BF91217727C0C7D00794F
:10BCB000FFAA18AB19121652AC18AD197A0C901BCA
:10BCC0007DE02470F9121772750A0E750B00780A60
:10BCD000122868EEFCEFFD901B7DE012BE5112169B
:10BCE0003A74021225FB900804E508F0A3E509F078
:10BCF000790002BD96850B0A8084E0C8240612BD37
:10BD0000AF60197A1B74212BF912177212BD9B2494
:10BD100006F582E438F583E4F0A380D312BD9B24BA
:10BD20000A12BDAF60107A1B74222BF9121772121F
:10BD3000BD9B240A80DB12BD9B240C12BDAF60109A
:10BD40007A1074232BF912177212BD9B240C80C138
:10BD500012BDA412BDAF60307A1074242BF91217F3
:10BD60007212BDA4F582E438F583E02410FCA3E050
:10BD70003400FD7A0475F006901B7DE0A42425F9BB
:10BD800012177212BDA480899007F8E060031214A4
:10BD9000481214367901740C02B320900804E0F8BC
:10BDA000A3E0C822900804E0F8A3E0C8240822F524
:10BDB00082E438F58312BDBBEC4D22E0FCA3E0FD2C
:10BDC0002274F412265574F21225E5EAFEEBFFE91F
:10BDD000C3940A5004EE4F700479028034AC18AD5D
:10BDE000197A0E75F006E9A42420F9121778E9F5FE
:10BDF00008701C750A06750B00780A122868740210
:10BE000012264BEEFAEFFB12163A74021225FBA92A
:10BE10000802B31E74F4122655EAFEEBFF75080003
:10BE2000750A06750B00780A122868EEFCEFFDE52E
:10BE30000812BE5112164C74021225FBE96004A9C7
:10BE400008800B0508E508C3940A40D4790A02B3B8
:10BE50002375F00EA4F8A9F0746C28FA740739FB66
:10BE60002274F7122655750800E50875F00EA4F83F
:10BE7000A9F0746C28FE740739FFEEFCEFFD7A0E12
:10BE800075F006E508A42420F9121778E960297CEA
:10BE9000067D0079FFEEFAEFFB1216527C067D005C
:10BEA00079FFEE2CFAE43FFB121652EE240CF582D9
:10BEB000E43FF583E4F0A3F00508E508C3940A40E5
:10BEC000A89007F8E0600312144812143680227418
:10BED000F71226557E007F007C06EF12BE5174FFDC
:10BEE000F91216B2E970010E0FEFC3940A40E9EEA1
:10BEF000F97F0102272774F71226557E00EEF9120A
:10BF0000141EE9F90EEEC3940A5003E960EF80E1D4
:10BF100074F312265574CB1225E58908901B7DE039
:10BF20006508701B7A017B00900750E0F9121694A7
:10BF30007A027B00900750E0F91216941214549084
:10BF40001B7EE0650870127A047B00900750E0F9D0
:10BF5000121694901B7E740AF075F006E508A4FF93
:10BF600074202FFE742712264B7A0EEEF9121778E2
:10BF7000E9600302C0327C0679FF7427122643125F
:10BF800016B2E9600302C0327C0E7D0079FF74278F
:10BF90001226431216527C1B7D0079FF740C122668
:10BFA000431216527C0C7D0079FFAA18AB191216A9
:10BFB00052742712264B7A0EEEF9121772E9FE74AC
:10BFC0000C12264B7A1B74212FF9121772E9F5090E
:10BFD000740C12264B7A1B74222FF9121772E9F592
:10BFE0000A740C12264B7A1074232FF9121772E977
:10BFF000F50B740C12264B7A1074242FF912177259
:10C00000E9F50C740C12264B7A0474252FF91217DB
:10C0100072E9FFAC18AD197A0C74702508F9121783
:10C0200072E9F8E509450A450B450C4F48CE4EFE2E
:10C0300080027E00EEF974351225FB7F050227276A
:10C0400074F7122655E9900750F012140C7A7F7B92
:10C050001B12096E02BEF174F412265574F21225F9
:10C06000E5EAFEEBFF5480700302C120900750E028
:10C07000F91216768A088B09EA4509700302C1187D
:10C080007A01E5082404F8E43509F9880A890B8562
:10C0900008828B83E02450604014600624E16067CE
:10C0A000806C88828983E070688508828B83A3A373
:10C0B000A3A3A3A3A312287F8508828B83A3A3A392
:10C0C000A3A312BDBB8508828B83A3A312C26D12EA
:10C0D00013D674021225FB803888828983E0641E9F
:10C0E000700F79008508828B83A3A312C26D12138F
:10C0F000D0850A82850B83E0F9E5082405FAE4354A
:10C1000009FB120A88800AAA081213DCE9FAEA601D
:10C1100007AA08AB09121664EEFAEF648002C21295
:10C12000EE54026026EE6402FE7C007D007A007B05
:10C13000001213FAE960047A0180027A027B00900F
:10C140000750E0F912168EEE02C210EEA2E0504C3B
:10C150006401F508EFF50912C22A12144EE9602AAB
:10C1600012C63A602012C236601B7C00790112C2EE
:10C170002A8E828F831226537C00790312C22A12E0
:10C18000C21C122653121454800C7A017B009007B3
:10C1900050E0F912168EAA08AB09807D5404607530
:10C1A000901B7EE0C3940A5064E0F50875F006A485
:10C1B0002420F509AC18AD197A0EF9121778E97038
:10C1C000467C0679FFAA18AB191216B2E9703875C9
:10C1D0000A06750B00780A122868E50875F00EA4A7
:10C1E000F8A9F0747228FC740739FD74081226311E
:10C1F000AA82AB8312163A74021225FBAC18AD1951
:10C200007A0EA909121772901B7E740AF0EE64046C
:10C21000FAEFFB80047A007B0002B31E90076AE00D
:10C22000F8A312C241F58388822290080412C62A1C
:10C23000E0FAA3E0FB2212C241F9E8FEE9FFEE4F6B
:10C240002212C249E0F8A3E022E0F5838882A3A38A
:10C2500022C082C083900750E0F98A828B83A312A8
:10C26000C26D120B24803B850882850983E0FAA306
:10C27000E0FB22C082C08374FF1225E5121412E98C
:10C28000C394028518828519834004740280027465
:10C290000AF0AC18AD197A01790512095C74011223
:10C2A00025FBD083D08202013274F212265574E845
:10C2B0001225E5EAFEEBFF890A8C088D097C187DC2
:10C2C000007900AA18AB19121652851882851983B5
:10C2D000EEF0A3EFF0900752E0C0E07402122631B6
:10C2E000D0E0F0900753E0C0E07403122631D0E0B4
:10C2F000F0901B7CE0C0E07417122631D0E0F0749F
:10C3000015122631E054FEFAA3E0FB901B7BE0A25D
:10C31000E0E433F8EA48F8EBF9741512263112C458
:10C320004DA2E15004D2F08002C2F0E854FDFAA21E
:10C33000F0E43325E0F8EA48F8741512263112C407
:10C340004DA2E45004D2F08002C2F0E8FAE954FEB3
:10C35000FBA2F0E433F9EB49F9741512263112C44B
:10C360004DA2E55004D2F08002C2F0E954FDFBA2D8
:10C37000F0E433F50C750D007409780C1225D2EA3F
:10C38000F8EB450DF9741512263112C44DA2E65092
:10C3900004D2F08002C2F0E954FBFBA2F0E433F5D2
:10C3A0000C750D00740A780C1225D2EAF8EB450DD5
:10C3B000F9741512263112C44DA2E25004D2F08055
:10C3C00002C2F0E854FBFAA2F0E433F50C750D005C
:10C3D0007402780C1225D2EA450CF8741512263135
:10C3E000E8F0A3E9F0900753E0601D750C10780C9D
:10C3F0001228687C547D077406122631AA82AB830A
:10C4000012163A74021225FB900764E06011E50AE7
:10C4100060097415122631E04402F0780180027838
:10C42000007414122631E048F0900751E06004785F
:10C4300004800278007414122631E048F0AC08AD94
:10C4400009AA18AB1912084E741802BB99E8F0A398
:10C45000E9F0901B7BE02274F612265574FA12253F
:10C46000E5E9FF74036F7065120D288A088B09A82F
:10C4700008A909E8496056E82405FAE439FB1214D2
:10C4800006E9FEC3940A5045AA18AB1979031209AC
:10C4900062E9703975080675090078081228687411
:10C4A0000212264BEE75F00EA4F8A9F0747228FA69
:10C4B000740739FB12164074021225FBEE901B7EA6
:10C4C000F07A047B00900750E0F912168E74061281
:10C4D00025FB7F0202272774F7122655120B787569
:10C4E0000800E50875F00EA4F8A9F0746C28FE7435
:10C4F0000739FF7C0679FFEEFAEFFB1216B2E970FE
:10C5000009EEFAEFFB7900120B7E0508E508C394EB
:10C510000A40CF02BEF174F612265574FD1225E5CD
:10C52000EAFEEBFF90080612C63D703975080875E3
:10C530000908780812286875080275090078081239
:10C5400028687508D475098A78081228687CFF7DE8
:10C55000FF7A017B001209AA74061225FB900806D7
:10C56000EAF0A3EBF090080612C63D700302C61F66
:10C570007508FF780812286CE4F508F509780812A8
:10C580002868740512263B880889097808122868EB
:10C59000740512263B8808890978081228689008D3
:10C5A0000812287F790290080612C632120B127404
:10C5B000091225FBE97036851882851983E0FA7423
:10C5C00001122631E0F8E4C8F9EA28F508E439F563
:10C5D00009EA45096017780812286890080612C60B
:10C5E0002AA312C6321213D674021225FBE4F508F0
:10C5F000F509780812286890080812287F7CFF7DCA
:10C60000FF90080612C26D1209B674041225FB9041
:10C610000806EAF0A3EBF090080612C63D70047914
:10C620000180027900740302C4CFE0F8A312C2496A
:10C63000A32212BDBBEEFAEFFB2290076AE0F8A33B
:10C64000E0F9E84922C082C08390080412C63D6028
:10C650001090080412C26D121664900804E4F0A34E
:10C66000F0901B7D740AF002C2A2C082C0839002C7
:10C67000ECE075F005A4FAABF01217069002E8EAB8
:10C68000F0A3EBF09002E812CB1C70047913805AEF
:10C690007A00801574FFF0A312C6EDF088828983BA
:10C6A000A3A312C6EDA3E4F00A9002ECE0F8EAC3FB
:10C6B000985020EA75F005A4F8A9F09002E8E02867
:10C6C000F8A3E039F9EA8882898370C874FEF0A380
:10C6D0000480C57ADA7B09120A407A2E7B0A120698
:10C6E000BC7A3A7B0A120D16790002D6DFF08882F6
:10C6F0008983A3A3A32274F2122655EAFEEBFF8ED0
:10C70000828F8312CB1C6055EE240312D63D12C8D3
:10C710004F750B00780A1228688A828B83A312282F
:10C720007F7C027D007AF07B8A1207A674041225B2
:10C73000FBE9702E85088285098312C84F780A129A
:10C7400028688A828B83A312287F7C027D007AE886
:10C750007B8A1207A674041225FBE9700579020290
:10C76000C83F8E828F83A3A3E024F9C3940A4005B7
:10C77000791802C83F901A2512CB1C600CC3E498AC
:10C78000FAE499FB12C8425005790102C83F7A07C2
:10C790007B001217068A0A8B0BEA450B700579138A
:10C7A00002C83F7A007B00803D901A2512D3748A1C
:10C7B0000C8B0D7403780C1225D2850882850983B1
:10C7C000E0250CF8A3E0350D8882F583A3A3A3A38D
:10C7D000ECF0A3EDF0901A25E02401F0A3E0340082
:10C7E000F00AEA70010B12C84240BE850A82850B2E
:10C7F00083E4F0A3F0750805F5097808122868EEBF
:10C80000FCEFFDE50A2402FAE4350BFB12163A743C
:10C81000021225FB9002EA12CB1C9002EA6017E09C
:10C82000FAA3E08003E8FAE9FB8A828B8312CB1C2F
:10C8300070F38A828B83E50AF0A3E50BF07900029E
:10C84000CA0D8E828F8312D392C3EA98EB9922127B
:10C85000CEA58A828B83E0F50A22C082C083E9904C
:10C860001A24F002D6DF74F61226558A088B09E9DD
:10C87000FFECFAEDFB74145F60071209C2740180CB
:10C8800009EFA2E6500E1209C2E4FCAA08AB091295
:10C890000D52800AA2E0400479028002790002CEA3
:10C8A000CE74F61226558A088B09E9FFECFAEDFBE7
:10C8B000EFA2E5500F1209C27401FCAA08AB0912DD
:10C8C0000D52804974885F603974085FFE1209C296
:10C8D000EEFCAA08AB09120D52E9F9602E740A1297
:10C8E000263112CEA18A828B83A3A3A3A3A3A3E0A4
:10C8F000601B8A828B83A3A3A3A3A3E06401600BC4
:10C90000800BEFA2E1400479038002790002CECED1
:10C9100074F212265574FB1225E58A088B09890AE0
:10C92000E4F50CF50D780C122868750C02780C12E1
:10C930002868750CC4750D8A780C1228687CFF7DF8
:10C94000FF7A017B001209AA74061225FB8A0C8B60
:10C950000DAE0CAF0DEE4F700302CA04E4F50CF5FA
:10C960000D780C1228687C047D00791DAA08AB099B
:10C97000120A8274021225FB7403122631EAF0A314
:10C98000EBF0740312263112CB1C60748E828F83FD
:10C9900012D38A851882851983E8F0A3E9F074021E
:10C9A0001226317404F01412263112D1907401F061
:10C9B000740312263112D190A3E4F07403122631CD
:10C9C00012D190A3A374FFF0740312263112CA127D
:10C9D00074FFF0E50AF50B780B12286C79007401EE
:10C9E00012264BAA08AB091209C874011225FBE9EB
:10C9F000FE6013740312263112CEA11216BE8006F9
:10CA00007E1580027E01EEF974051225FB7F060279
:10CA1000272712D194A3A3A32274EA1226558A12BF
:10CA20008B138C108D119002EAE0F508A3E0F50954
:10CA30007416122631E0F514A3E0F51574181226C9
:10CA400031E0F50AA3E0F50B800D850882850983A6
:10CA5000E0F508A3E0F509E5084509700302CB13EA
:10CA60007E007F00E5082405F50EE43509F50F800A
:10CA7000050EEE70010F85088285098312D38CC3E1
:10CA8000EE98EF9950C48E0C8F0D7403780C12251C
:10CA9000D2850E82850F83E0250CF50CA3E0350DC1
:10CAA000F50D850C82F58312D38AC3E89512E995BA
:10CAB0001340BEC3E51098E5119940B5E50A450B52
:10CAC0006023780A1228687814122868850C8285F9
:10CAD0000D83E0FC7D00A312CEA11207A674041200
:10CAE00025FBE9608C741A12263112CB1C601E855E
:10CAF0000E82850F83E0FAA3E0F5838A82A3A3A3C5
:10CB0000A312CEA188828983EAF0A3EBF0AA0CAB32
:10CB10000D80047A007B007F0E02272712D392E853
:10CB2000492274EE122655ECFEEDFF9002EAE0FC7D
:10CB3000A3E0800A8C828D8312D38EE8FCE9FDECA1
:10CB40004D700302CBE08C828D83A312D38A8808B8
:10CB500089098882F583A3A3A3A3E0F50CA3E0F5DC
:10CB60000DC3EA950CEB950D40CA8C828D83A3A36F
:10CB7000E0F50EA3E0F50FE50C250EF8E50D350FF9
:10CB8000F9C3EA98EB9950AC750A00750B00800860
:10CB9000050AE50A7002050BC3E50A950EE50B953B
:10CBA0000F5091850A10850B11740378101225D24D
:10CBB000E5082510F8E5093511F988828983A3A3D2
:10CBC000A3A3E06A7003A3E06B70C5EE4F600B8E09
:10CBD000828F83E50CF0A3E50DF0E8FAE9FB800411
:10CBE0007A007B007F0A02272774F012265574FE14
:10CBF0001225E5EAFEEBFF7508007509008518822D
:10CC0000851983E4F0A3F0EE2404F50CE43FF50D60
:10CC1000850C82F58312D81EA385820A85830B7446
:10CC2000FF6A700374FF6B6038A818A91988088917
:10CC30000978081228688E828F83E0F5087509004C
:10CC40007808122868850A82850B8312287FEA24D7
:10CC5000010A50010B1209AA74061225FB8A088BDF
:10CC6000098E828F83E0F50E750F00780E1228680A
:10CC7000850A82850B8312287F7C027D007AF07BF7
:10CC80008A1207A674041225FBE970288E828F830E
:10CC9000E0F50E780E122868850A82850B8312282B
:10CCA0007F7C027D007AE87B8A1207A67404122535
:10CCB000FBE9600B850C82850D8312CEA180458E29
:10CCC000828F83E0F50E780E122868850A82850B24
:10CCD0008312287F7C027D007AD87B8A1207A67493
:10CCE000041225FBE96036741212263112CEA1E53A
:10CCF000084509600F851882851983E06A7003A3CF
:10CD0000E06B60051209D4801F850882850983A322
:10CD1000A3A3A3E024FFFAA3E034FF800A850C82DA
:10CD2000850D83E0FAA3E0FB741412263112D38E32
:10CD300088828983E58245836005EAF0A3EBF0AA47
:10CD400008AB0902D64974F6122655120A168A82D1
:10CD50008B83E5824583600512CEA180047A007B37
:10CD60000002CECE74F6122655120A168A828B83E2
:10CD7000E58245836006A3A3E0F98002791002CE24
:10CD8000CE74F212265574FC1225E5EAFEEBFF8CF8
:10CD9000088D09890A740212264B120A1CE9F50B48
:10CDA000707FE50A602212CE8D1209B08518828547
:10CDB000198312CEA11209C2E9F97C01EEFAEFFB48
:10CDC000120D52E9F50B7059AC08AD09EEFAEFFB04
:10CDD000120710E9F50B7049740212263112CE28A1
:10CDE0007412122631E0F50874FF65086033EE24F2
:10CDF00002F50CE43FF50D780C122868750C1E75D1
:10CE00000D00780C122868EEFCEFFD7A347B0A12D4
:10CE10000A6474041225FB8E828F83A3A3A3E50802
:10CE2000F0A90B740402CA0AE0FEA3E0FF2274F525
:10CE300012265574FC1225E5EAFEEBFF8C088D09DD
:10CE4000890A740212264B120A1CE9F974176960E8
:10CE500032E50A602112CE8D1209B085188285193B
:10CE60008312CEA11209C2E9F97C01EEFAEFFB129E
:10CE70000D52E9F9700DAC08AD09EEFAEFFB12079F
:10CE80000AE9F974041225FB7F030227278518821B
:10CE9000851983E4F0A3F0AC18AD198508828509E3
:10CEA0008312CEA522E0FAA3E0FB2274F6122655E7
:10CEB000EAFEEBFF1209BCEA4B600FEE24FFF8EF2D
:10CEC00034FFF9EA28FAEB398003EEFAEFFB7F0230
:10CED00002272774EC12265574E61225E58A088B82
:10CEE000098C0C8D0D7E007F00EC2402F50AE435E0
:10CEF0000DF50B850A82F583E0F8741E68705C12EC
:10CF00000A228A0C8B0DAE0CAF0DEE4F700302CFD0
:10CF1000AE8E828F83A3A3E0F874FE68700302CF05
:10CF2000AE74FF68700302CFAEE4F50CF50D780C1B
:10CF3000122868850A82850B83E0FD7C00AA08AB75
:10CF4000098E828F83A3A3A3E0F9120A5E740212F2
:10CF500025FBEEFAEFFB120A2880538C828D83A307
:10CF60008582108583117412687005E06401604346
:10CF7000120A228A0E8B0FAE0EAF0FEE4F6034EE08
:10CF80002404F50EE43FF50F850E82F583E0FC6086
:10CF900022A2E74019850A82850B83E0F9AA08AB33
:10CFA00009120A76850E82850F83E0D2E7F07900B8
:10CFB00002D186901A24E0F46068850A82850B838A
:10CFC000E0FA74FE2AC394175058EAC313F50E759D
:10CFD0000F007402780E1225D27423250EF8748681
:10CFE000350FF9E824FCF50EE934FFF50F850E82C4
:10CFF000F58312D374EC4D6029E824FEF582E93400
:10D00000FFF58312CB1C601A850C82850D83E0FB33
:10D01000700B851082851183E06401700A74126AB6
:10D020006005790602D186740412263B88128913A2
:10D030007812122868850C82850D83A3A3A3122879
:10D040007F850C82850D83A3A3A3A3A312D374852C
:10D050001082851183E0FAEBF9850E82850F831229
:10D06000D19012265374041225FBE9F50C600302DB
:10D07000D184740412264BAA08AB09850A82850B59
:10D0800083E0C313F50C750D007402780C1225D2E1
:10D090007421250CF5827486350DF58312D190121A
:10D0A0002653E9F50C600302D12C850A82850B8397
:10D0B000E0FD74046D700302D184740412263B8871
:10D0C0000C890D780C1228687C00AA08AB09901A0C
:10D0D00024E0F9120A5E74021225FBE9F50C6003E4
:10D0E00002D184850A82850B83E0F97404122643F9
:10D0F000120A7C8B09EA4509600A742E1226311245
:10D10000D190E4F0850A82850B83E0F87412687090
:10D110000B851082851183E064016068EE4F6064C6
:10D12000E88E828F83A3A3A3A3F080588510828505
:10D130001183E0704F850A82850B83E08518828514
:10D140001983F07403122631E9F0850A82850B8376
:10D15000E0F8740468600D7406686008740868601C
:10D1600003741068740412263112D38E74011226CF
:10D1700031E8F0A3E9F0AC18AD19AA08AB09120622
:10D18000C2750C00A90C741A1225FB7F0C0227270C
:10D1900012D19422E0F8A3E0F5838882227900027C
:10D1A000013274EA12265574FA1225E58A108B11A1
:10D1B0008C828D8312CEA1EC2402F512E43DF5138E
:10D1C000851282F583C3E09AA3E09B4004EA4B708A
:10D1D00005790102D36C851882851983E4F0740205
:10D1E000122631E4F0A3F08007E82401FAE439FBC9
:10D1F000E4F508F509780812286878081228687894
:10D200000812286885128285138312D3741209AA22
:10D2100074061225FB8A088B09EA4509700302D3BC
:10D220000D8A828B83A385820E85830FEA2404F501
:10D230000AE43509F50B851882851983E06003023D
:10D24000D31A740412263B880C890D780C122868B6
:10D250007CFF7DFF7905AA10AB11120A82740212BD
:10D2600025FB8A0C8B0DAE0CAF0DEE4F70057911BE
:10D2700002D36C7402122631EEF0A3EFF08508821F
:10D28000850983E06402702374011226317401F071
:10D290007404122631E0F514A3E0F5157402781435
:10D2A0001225C385140C85150D8079740112263161
:10D2B0007402F0740412263112D38E7A127B00129B
:10D2C000255A880C890D12D39875081075090078B5
:10D2D0000812286812D37A12163A74021225FBEE4D
:10D2E0002410FE50010F851882851983E004F0C3D5
:10D2F000950CE4950D5016850A82850B8312D38E0A
:10D3000074FF68700374FF69600302D1E9851882B5
:10D31000851983E0703B790A80527401122631E04E
:10D32000640170A2850882850983E0640270DE12C0
:10D33000D398750802750900780812286812D37A04
:10D3400012163A74021225FBEE2402FE50980F804A
:10D3500095AC18AD19AA10AB111206CEE9600B748A
:10D360000212263112CEA11216BE790074061225C1
:10D37000FB02CB17E0FCA3E0FD22850E82850F8324
:10D38000E0FCA3E0FDEEFAEFFB22A3A3A3A312D3DC
:10D390009222E0F8A3E0F922850A82850B83E08ED1
:10D3A000828F83F0A3AE82AF83850A82850B83A32D
:10D3B000E08E828F83F0A30EAF832274F61226557F
:10D3C00012D4634004EA4B700479018039E4F50813
:10D3D000F50978081228688C828D83A3A3A3A3E0A3
:10D3E000F508780812286812D457122868EEFCEF66
:10D3F000FD1209AA74061225FB8B09EA450970047F
:10D40000790A8002790002CECE74F612265512D423
:10D41000634004EA4B700479018039E4F508F509AA
:10D4200078081228688C828D83A3A3A3A3E0F50853
:10D43000780812286812D457122868EEFCEFFD1203
:10D4400009AA74061225FB8B09EA45097004790ABA
:10D450008002790002CECEEC2405F508E43DF50902
:10D460007808228C828D83A3A312CE288C828D8390
:10D4700012CEA5C3EE9AEF9B2274F612265574FEC7
:10D480001225E5EAFEEBFF8C828D83AC18AD1912F4
:10D49000CEA11209B08A088B09A808A909E8497029
:10D4A000047901800A12D57EEEFAEFFB1209987416
:10D4B000021225FB02CECE74F012265574FE122500
:10D4C000E58A0A8B0B8C088D09750C008002050C0F
:10D4D000850882850983A3A3E0F8E50CC3985075FD
:10D4E000AE0CEE2EFEE433FF850882850983E02E24
:10D4F000F8A3E03FF988828983AC18AD19E0FAA35C
:10D50000E0F8E4C8F9EA28E439FB1209B08A0E8B86
:10D510000FA80EA90FE849701812D56CE08882890F
:10D5200083F012D56CA3E088828983A3F07901800F
:10D530002612D57EAA0AAB0B120998E9F9608F1260
:10D54000D55AE08A828B83F012D55AA3E08A828B67
:10D5500083A3F08002790002D64985088285098379
:10D5600012CEA5EA2EF582EB3FF58322850882854F
:10D57000098312D392E82EF582E93FF583228518BC
:10D5800082851983E0FCA3E0FD88828983A3A3A39D
:10D59000E0F92274F0122655ECFEEDFF8E828F83A7
:10D5A00012D38E12D63AC3E098A3E0994004E8491A
:10D5B0007005790102D638EE2405F50EE43FF50F2B
:10D5C000EE2404F50AE43FF50B850A82F583E0F5C5
:10D5D0000C750D00780C122868780E1228687C02F1
:10D5E0007D007AF07B8A1207A674041225FBE9708D
:10D5F0000479108043E4F50C780C122868850A82BF
:10D60000850B83E0F50A750B00780A122868780EFE
:10D6100012286885088285098312D3748E828F83CD
:10D6200012CEA11209AA74061225FB8B09EA45093C
:10D630007004790A800279008014EE2402F508E46F
:10D640003FF509850882F5832274021225FB7F08C5
:10D6500002272774F412265574FE1225E5EAFEEB24
:10D66000FF8C088D0912CE971209B0EA4B7004792D
:10D670000180227808122868740212263112D374AD
:10D680008A828B83A3A3A3E0F9EEFAEFFB12099E33
:10D6900074021225FB74021225FB7F040227270265
:10D6A000D19DC082C0839002EA800488828983125F
:10D6B000CB1C602788828983A3A3A3A3A3E0FCA338
:10D6C000E0F5838C82A3A3A3A3E06A7003A3E06BBD
:10D6D00070D9E82402FAE439FB80047A007B00D098
:10D6E00083D08202013274F6122655ECFEEDFF1251
:10D6F0000A228A088B09A808A909E849602BEE4F7D
:10D7000060098E828F83E8F0A3E9F088828983A381
:10D71000A3E0F874FE6870047917800F74FF6870D6
:10D72000047900800679168002790202CECEC0828A
:10D73000C0837C0080010C9002ECE0F8ECC39850B0
:10D7400025EC75F005A4F8A9F09002E8E028F8A30C
:10D75000E039F988828983E06A7003A3E06B70D6B0
:10D76000E8FAE9FB80047A007B0002D6DF74F71246
:10D770002655EAFEEBFFEE2402FAE43FFB120A6AAA
:10D780008E828F83A3A3A374FFF07F0102272774E7
:10D79000F6122655E9FE120A228A088B09A808A962
:10D7A00009E849601BE82404F582E439F583EEF8C2
:10D7B000E07B00240150010B684B7004E05480F0C2
:10D7C00002CECE74F4122655EA4B604FEA2402F5DD
:10D7D00008E43BF509850882F583E0F874FF68608A
:10D7E0003A74FE686035EA2403FEE43BFFE4F50A80
:10D7F000F50B780A1228687D1E7C178A828B8312AB
:10D80000D81EE0F9120A5E74021225FB8508828593
:10D81000098374FEF08E828F8304F002D69A12CEB2
:10D82000A58E828F832274F01226558A0A8B0B896B
:10D830000C74FE650A700474FF650B700302D8FB5C
:10D84000E9702B120A228B09EA4509701E7AFF7BC8
:10D85000FF120A228A088B09AE08AF09EE4F600B4F
:10D860008E828F83E50AF0A3E50BF002D8FB7401EA
:10D87000650C701A120A228A088B09AE08AF09EEED
:10D880004F60788E828F8374FFF0A3F08021740242
:10D89000650C70677901120D34E9705FAA0AAB0B51
:10D8A000120A228A088B09AE08AF09EE4F604C12AB
:10D8B000D63AE0F874FF68603874FE686023E4F5D7
:10D8C0000EF50F780E1228687D1E7C14AA0AAB0B89
:10D8D0008E828F83A3A3A3E0F9120A5E740212253D
:10D8E000FBEEFAEFFB120A2885088285098374FF94
:10D8F000F08E828F83A3A3A3A3E4F002D64E74F428
:10D90000122655907803E064427056900529E01481
:10D91000F0704EC2AF12D91800782AD0E0F618D0B5
:10D92000E0F6E59F5407F870057509FF8003750957
:10D930007FC4C0E07829E6F50808E65509F50974C2
:10D940000B78081225C3D0E02508F8906270E0A299
:10D95000E740F8E8C333906272F0906270E0D2E082
:10D96000F09003AEE0F4700302DBD412E29F12DB0E
:10D97000F012E2DD601512DBF012E22CEE2400F56D
:10D9800082EF3401F583E0F912168E8E828F83A325
:10D99000A3A3A3A3A3A312DC1D12E1FC906054E097
:10D9A000900387F0906055E0900388F0906056E017
:10D9B000900389F0906057E090038AF0906058E0FF
:10D9C00090038BF0906059E090038CF090605AE0E7
:10D9D00090038DF090605BE090038EF090605CE0CF
:10D9E000FA90038FF090605DE0FC900390F09060FF
:10D9F0005EE0FD900391F090605FE0FB900392F099
:10DA000090038DE02AF508E43400F509E5082DF5CA
:10DA100008E43509F509E5082CFCE43509FDEC2B93
:10DA2000FCE43DFDEE24F612E68E2CF0A3E03DF082
:10DA3000EE24F812E68E2AF0A3E03400F0EE24FA89
:10DA400012DC2AEE24FEF582E43FF58312E2DD606B
:10DA50003E12DC0FF582E912DBD93DF0906000E068
:10DA6000FA90038FE0FCEA2AFAE433FBE82AFAE9A9
:10DA70003BFBEA244AF582E412DBD93400F012DCE5
:10DA80000FF8E93BF9E82494F582E43912DC2E9092
:10DA9000038DE0700E900390E07008A3E07004A383
:10DAA000E060638E828F83A3A3A3A3A312E2E31299
:10DAB000DBFB700312EA49900388E0601FEE241C30
:10DAC00012E67E12EA0EE07013EE247312E68E70F8
:10DAD0000BEE247F12E68E700312EA49906062E03A
:10DAE000700302DB738E828F8312EA57E82406FCF0
:10DAF000E439FDE82402FAE439FB12104C8E828FDF
:10DB00008312E279807412E1E8F090038FE0600AFA
:10DB100012DBFB702612E2858020EE24FC12DC2A48
:10DB2000906000E0F825E0F8E433F9EE24FE12E21C
:10DB30000B24DEF582E43912DC33F012DBE212DC76
:10DB40001DE0687003A3E069600302DAB712E68B98
:10DB500060128E828F83A3A3A3A3A3E06405700247
:10DB6000A3E0600479088002793EEEFAEFFB120E22
:10DB7000F08061EE241DF582E43FF583E4F0A3F02C
:10DB8000906060E0C0E0EE2468F582E43FF583D069
:10DB9000E0F09061C8E06006122B59E970F48E82C3
:10DBA0008F83A3A3A3E0602C9061C8E0700690600F
:10DBB000607480F0EEFAEFFB12100AE96401601461
:10DBC0007902EEFAEFFB122CEA120FFEE964016013
:10DBD00003120F927F040227273BF583E02CF0A36A
:10DBE000E022EE12DBE722240BF582E43FF58322EC
:10DBF000EE2401F582EF3401F58322EE240FF58245
:10DC0000E43FF583E4F0EE241C12E69264012290D6
:10DC10006000E0FA25E0FAE433FBE82A2212EA5B2E
:10DC20008E828F83A3A3A3A3A322F582E43F12DCF9
:10DC300033F022F583E02401F0A3E034002253BF47
:10DC4000EF02013274F01226559003AE12E29F905B
:10DC500061D0E0700EEE2463F582E43FF58312E2BA
:10DC6000DD600512E1E88023EE246912E68E701C67
:10DC7000EE247312E68E7014EE247F12E68E700C82
:10DC8000EE241C12E6B2700412E285F08E828F83BD
:10DC9000A3A3A3A3A312E224241D12E20B240108D0
:10DCA000500109EE2407F50AE43FF50B850A8212BC
:10DCB000E20212DBE3C3E098A3E09950208E828F4A
:10DCC00083A3A3A3A3A3A3A3C082C08312DBE212F6
:10DCD000EA57D083D08212EA75501B802112DBE212
:10DCE000C082C0838E828F83A3A312EA52D083D0D6
:10DCF0008212EA6150089004C5E06401701512E1D7
:10DD0000E8F012E25D8E828F83A3A3A3A3A3A3A353
:10DD100012E1FCEE247312E6B2600302DDB712E1F9
:10DD2000D012287F8E828F83A3A3A3A3A3A3A3E0F3
:10DD3000FCA3E0FD8E828F83A3A3A3A3A312E22CF6
:10DD4000122B0874021225FBE9606C8E828F83A36C
:10DD5000A3A3A3A3A3A3C082C08312E25DD083D0F8
:10DD600082E0687003A3E069604DEE247412E68ED1
:10DD7000687003A3E069603FEE2474F508E43F8512
:10DD80000882F583E024FFFAA3E034FFFB850A82D2
:10DD9000850B83EAF0A3EBF08E828F83A3A3A3A36A
:10DDA000A3E0FCA3E0FD122B51EA24FFF8EB34FFC3
:10DDB000F9EE241D12E1F6EE247312E6B2600302BE
:10DDC000DF1212E1D0C082C08312E25DD083D08224
:10DDD000E0687003A3E069600302DF12EE2474F5CB
:10DDE00008E43FF509850882F58312EA57850A821F
:10DDF000850B8312E2042476FCE43FFDEEFAEFFB90
:10DE0000120EFCEE247B12E21E2420F582E43F1267
:10DE1000E202241C12E66A12E6C8F0EE240F12E6B3
:10DE20009A850A82850B8312E2E38E828F83A3A3F5
:10DE3000A3A3A3E0FCA3E0FD85088285098312E289
:10DE40002C122B518A088B0912E1BA12E22CE4F54C
:10DE50000AF50B8A0C8B0DF50EF50F7808790C126C
:10DE60002296EE247712E1EC7808790C1223EBEE7F
:10DE7000247912E68E6A7003A3E06B701812E24EEA
:10DE8000E0687003A3E069700C12E232E06870038E
:10DE9000A3E0696043EE247DF582E43FF58312E65A
:10DEA000E91225C3780C122868EE247BF582E43F42
:10DEB000F58312287FEE247912E68EFCA3E0C313CB
:10DEC000FDEC13FC8E828F83A3A3A3A3E0FA7B0057
:10DED000120BFC74041225FBEE247612E68EC0E0D1
:10DEE000EE242BF582E43FF583D0E0F0EE247912A6
:10DEF000E21E242E12E1F612E23212E1FC12E24E90
:10DF000012E204FAEFFB120F02EE247312E66AF03B
:10DF1000800312E2B312E1C4121A277014EE241F18
:10DF200012E68EF8EE241D12E68E687002A3E06001
:10DF300030EE2412F50CE43FF50D780C122868EE53
:10DF40002410F582E43FF58312287F12E1DA1228CB
:10DF50007FAA08AB09AC0AAD0B1236727406122503
:10DF6000FB12E1C41224ACEE241D12E68EC0E0EEDA
:10DF7000241FF582E43FF583D0E0F0EE2412FCE4A8
:10DF80003FFD12E2101235AE906062E0600A7C78CC
:10DF90007D8812E2101235AE8E828F8312EA578886
:10DFA000828983A3A3E82408FCE439FD74061224C3
:10DFB000F88E828F83E02402F8A3E03400F9E8FAB7
:10DFC000E9FBEE241D12E1ECE4F50EF50F908A94C6
:10DFD000780C1223FE780C79081222968A828B83A1
:10DFE000780C122411908A64780C12249D8A828BFA
:10DFF00083780C1224779004BFE06401600302E18F
:10E0000039790112109A12E2287508FF7509FF7517
:10E010000AFF750BFFEA240EF582E43BF5837808CE
:10E020001224ACEA2412F8E43BF9E8FAE9FBEE2406
:10E0300012F582E43FF583780812249DE50875F017
:10E04000E2A4C508A8F075F004A428F875F0E2E58C
:10E0500009A428F5098A828B83E02508F0A3E0351E
:10E0600009F0EE241612E68EF508A3E0F509740413
:10E0700078081225C3E5082401F8E43509F98A82F5
:10E080008B83E028F0A3E039F0906062E08E828F0D
:10E0900083700302E19212E270F0A3E03401F01207
:10E0A000E68B602CEE242B12E68EF875F071A4C876
:10E0B000AAF075F002A42AF98E828F83E0FAA3E019
:10E0C000CA2412F582E43AF583E028F0A3E039F09F
:10E0D00012E2288A828B83A3A3C082C08312E2B398
:10E0E000D083D08278081223FE908A6078081223A9
:10E0F000FE908A647808122464EA2416F582E43BD0
:10E10000F58378081224ACEA2414F582E43BF58305
:10E110007410F08E828F83E0F8A3E0C8241AF58291
:10E12000E438F5837478F0A3740EF0EEFAEFFB1286
:10E130002A4679007F080227279089C87808121A92
:10E14000AC500302E00612E1DA12E2DD600302E005
:10E15000067808122864EEFAEFFB120F0874041216
:10E1600025FBE96401600302E00612E68B60128E73
:10E17000828F83A3A3A3A3A3E064057002A3E0603E
:10E180000479088002793EEEFAEFFB120EF0790175
:10E1900080A212E270F8A3E034FFF97A717B0212D8
:10E1A000255A8808890912E1BA12EA57C3E5089886
:10E1B000E50999500302E09F80C7EE242EF582E422
:10E1C0003FF58322EE2418F582E43FF58378082298
:10E1D000EE2474F582E43FF5832212E1DE22EE2480
:10E1E0001DF582E43FF5832212E6CD2212E692F578
:10E1F0000CA3E0F50D22F582E43FF583E8F0A3E9F6
:10E20000F022F583E8F0A3E9F0EE2212E2F5E8222D
:10E210008E828F83E02402FAA3E03400FB22F58291
:10E22000E43FF58312E247228E828F83E0FAA3E077
:10E23000FB22EE247B12E2412430F582E43FF58399
:10E2400022F582E43FF583E0F8A3E0F9EE22EE2424
:10E250007D12E2412432F582E43FF583228E828FE3
:10E2600083A3A3A3A3A3E02401F8A3E03400F9222D
:10E2700012E279F583E0241022E0F8A3E0C824122A
:10E28000F582E4382212E28922EE2420F582E43F6E
:10E29000F583E0F8A3E0F912E1DEE8F0A3E922E07B
:10E2A000F875F00AA4C8AAF02AF974B028FE74031D
:10E2B00039FF22EE242E12E692F508A3E0F509E4D8
:10E2C000F50AF50B22EE2471F8E43FF98882898380
:10E2D000E024FFF0A3E034FFF08882898312EA5B38
:10E2E000E8492212E247240D12E2F5EE12DBE7E8DC
:10E2F000F0A3E9F022F582E43FF583E028F8A3E0FB
:10E3000039F92274EC122655EAFEEBFF8C828D83DC
:10E31000E0F8A3858208858309603B14700302E45A
:10E320006B14700302E63514700302E4B024FD7030
:10E330000302E57014700302E66314700302E598AB
:10E3400024FE700302E57514700302E58E14700359
:10E3500002E5DD02E653EE2476F510E43FF511E028
:10E3600085108285118312E6DAEE2477F50EE43FFC
:10E37000F50F7902AC08AD09AA0EFB120F148A083A
:10E380008B09EE2479F50CE43FF50D7902AC08AD6C
:10E3900009AA0CFB120F148A088B097902AC08AD8C
:10E3A00009EE247BFAE43FFB120F148A088B09EE76
:10E3B000247D12E69F120F148A088B09851082852E
:10E3C0001183E0C333F0850E82850F8312E6FE854C
:10E3D0000E82850F8312E1FC850C82850D8312E687
:10E3E000FE850C82850D8312E1FC850A82850B83F4
:10E3F00012E6E91225D2850A82850B83E50CF0A38B
:10E40000E50DF0EE247412E69F120F14850A828542
:10E410000B83C082C08312EA4ED083D08212E6F50D
:10E420005079EE247D12E2B6EE247B12E68E2401B2
:10E43000F50CA3E03400F50DE4F50EF50FEE2479AC
:10E44000F582E43FF58312E6FE88108911E4F512A7
:10E45000F513780C79101222967808790C121A8C20
:10E460004004793B8037EE2473803C7905AC08ADDD
:10E47000097ABA7B04120F148A088B09EE248012E1
:10E48000E69F120F14850A82850B83C082C0831217
:10E49000EA4ED083D08212E6F540097928EEFAEFF1
:10E4A000FB02E64EEE247F12E67E12E6C802E594F9
:10E4B000EE24E112E68E700D12E67212E708700388
:10E4C000EB640370F6EE24E212E68EA2E0EE40105A
:10E4D00024DDF582E43FF583741AF0790D02E62F0E
:10E4E00012E6B824E012E69A7908AC08AD09EE24E9
:10E4F0009BFAE43FFB120F148A088B097902AC08DF
:10E50000AD09EE24A3FAE43FFB120F148A088B092D
:10E51000EE2493F50AE43FF50B7908AC08AD09AA9F
:10E520000AFB120F148A088B097908AA0AAB0B128E
:10E530000F1AEE2487F50AE43FF50B7904AC08AD19
:10E5400009AA0AFB120F147904AA0AAB0B120F1ABC
:10E55000EE248BFAE43FFB120F2CEE2483FAE43F07
:10E56000FB120F32900382E04480F0790402E62F20
:10E57000EE24DE801CEE12E6B824D212EA0424DC7B
:10E5800012E9FC24D312E66AF0790B02E660EE246D
:10E59000DF12E67EF002E66312E67212E70870030D
:10E5A000EB640370F612E6728A828B83E0FC8508C6
:10E5B00082850983E05C8882898312E6DA8A828B0D
:10E5C00083A3AA82AB8388828983A3A882A983EAD2
:10E5D000649C7003EB640370CF79098052EE24EAE7
:10E5E00012E6B2606E850882850983E0C0E0EE2401
:10E5F000EDF582E43FF583D0E012E6DA7902AC086B
:10E60000AD09EE24EEFAE43FFB120F148A088B09E1
:10E610007902AC08AD09EE24F0FAE43FFB120F14C6
:10E62000EE24EA12E9FC24EC12E68E7036790CEE48
:10E63000FAEFFB802BEE24F4F8E43FF9E0888289BE
:10E6400083F0EE24F312E69A88828983E0F9120EB1
:10E65000F08010EE24F5F582E43FF583E8F07907C9
:10E66000120EB47F0C02272724DEF582E43FF583E7
:10E67000E422EE24E2F8E43FF97A947B032212E6E6
:10E680008222F582E43FF583740122EE240F12E624
:10E690009222F582E43FF583E02212E682F022F531
:10E6A0000AE43FF50B7902AC08AD09AA0AFB22EE99
:10E6B000246912E6926401222462F582E43FF58324
:10E6C000E412EA2AE4F0EE22F012E6CD22EE241D56
:10E6D000F582E43FF583E4F0A322F0850882850902
:10E6E00083A385820885830922E0F50CA3E0F50D5C
:10E6F0007404780C2212EA6A94FFE9947F2212EAE9
:10E700005BE828F8E933F9228A828B83E0888289E2
:10E7100083F08A828B83A3AA82AB8388828983A3B6
:10E72000A882A983EA649C2274F6122655EAFEEBBD
:10E73000FF02E894EEFAEFFB120EA802E9C212E61D
:10E74000AF703C90038AE0700302E923EEFAEFFB1E
:10E75000120EBAEE24A3F508E43FF5097808122852
:10E7600068EE249BFCE43FFD8E828F83A3A3A3A3CA
:10E77000E0FA7B00120BE474021225FB02E894EE2F
:10E78000FAEFFB120E7E02E9C212E6AF702E900382
:10E790008AE06011EE248212E9FC24D412E9F3EE3F
:10E7A00024D812E9F3EE24DE12E6B2600302E92374
:10E7B0007906EEFAEFFB120EC002E894EE24D212B4
:10E7C000E6B2701BEEFAEFFB120E84E964016003FF
:10E7D00002E9D8EE12E66812EA0E740102E9C6EE0A
:10E7E00024D312E68E700302E9D8EE24B2F508E4D1
:10E7F0003FF5097808122868EE248BFCE43FFDEE13
:10E8000024C2FAE43FFB120F3874021225FBEE24F7
:10E81000D212E67E805A12E6AF705890038AE070FA
:10E820000302E92312EA49EEFAEFFB120EBA12EAEA
:10E830001DEE24DC12E6B2701379008E828F83A362
:10E84000A3A3A3E0FA7B00120BF080137C017900F4
:10E850008E828F83A3A3A3A3E0FA7B00120BEAEEC0
:10E8600024DC12EA0424E012EA0412EA0212E66846
:10E87000F08021EEFAEFFB120E8A02E9C212E6AF37
:10E880007066EE24DF12E6B2600302E923EEFAEFCF
:10E89000FB120EBAEE246E12E68E700302E9D8EE79
:10E8A000246A12E68E24FE602C24FE700302E73EEA
:10E8B00014700302E78914700302E816147003024F
:10E8C000E9C924FE607124FE60B314700302E957A5
:10E8D00014603280BF12E6AF600302E73490038910
:10E8E000E06040791602E9ABEEFAEFFB120E90E918
:10E8F0006401600302E9D8EE12EA02248212EA04FB
:10E90000246902E81112E6AF702390038AE0600ADE
:10E91000EE248212E66AF012EA1D900389E0600399
:10E9200002E88D12E2C5600302E9D8807CEEFAEFBE
:10E93000FB120E9602E9C212E6AF701290038AE053
:10E9400060E1EE24E112E69A12EA4902E88DEEFA5D
:10E95000EFFB120E9C806B12E6AF705AEE24EA12A7
:10E96000E6B27027EE24EB12E6B2600302E88D12E5
:10E97000E9DF12287F12E9E912287F12EA357900CF
:10E98000120BDE74041225FB02E88D12E2C57048FA
:10E9900012E9DF12287F12E9E912287F12EA35799D
:10E9A00022120BDE74041225FB7922EEFAEFFB1221
:10E9B0000EF079018024EE24EC12E9FCFAEFFB1250
:10E9C0000EA212EA13E9F0800FEEFAEFFB120EAE80
:10E9D000E96401700302E88D79007F02022727EEC7
:10E9E00024F0F582E43FF58322EE24EEF582E43F45
:10E9F000F5832212E6D0F0A3F0A3F02212E682F013
:10EA0000EE2224DFF582E43FF583E4F0EE22F012FB
:10EA1000EA1322EE2469F582E43FF58322EE2462B4
:10EA200012E68212EA2A7401F022F0EE2467F582DF
:10EA3000E43FF58322EE24ED12E692FC8E828F8372
:10EA4000A3A3A3A3E0FA7B002212E289F0228E8224
:10EA50008F83A3A3A3A3A312EA5B22E0F8A3E0F9A8
:10EA60002212EA6A94ABE9941022E0C398F8A3E07A
:10EA700099F9C3E82212EA6A94AAE994102274F27E
:10EA80001226558909EAFEEBFF8C0A75081274FEFE
:10EA90006E700374FF6F70189002AE12F71D6072F3
:10EAA00012EB17606D7AFE7BFFA909122653805A7C
:10EAB00074FF6E700374FF6F70359002AE12F71D15
:10EAC000601312EB17600E7AFF7BFFA90912265321
:10EAD000E9F508600CAA0AA909120890E9F508707E
:10EAE00031E5099002BAF0E50A9002BBF0802312EA
:10EAF0000D288A828B83E58245836016E065097064
:10EB00000EA90AEEFAEFFB120B42E9F50880037535
:10EB10000803A90802F309E0F583888212F3FC8850
:10EB2000828983E58245832274EE122655EAFEEB44
:10EB3000FFEE2402F50EE43FF50FEE2404F50CE49D
:10EB40003FF50DEE2406F50AE43FF50BEE2408F53B
:10EB500008E43FF509850882F58312287F850A823B
:10EB6000850B8312287F850C82850D8312F25585D3
:10EB70000E82850F8312F523120C0E74041225FBEE
:10EB8000E97005790202EC38790112F51F120D3493
:10EB9000E97005791402EC3812F51F120D3AE96498
:10EBA0000470579019B3E0F47003A3E0F4600579A2
:10EBB0001102EC388E828F8312F30E12F3F2850E5F
:10EBC00082850F8312F3F89002B212F3F2850C8261
:10EBD000850D8312F3F89002B412F3F2850A828550
:10EBE0000B8312F3F89002B612F3F28508828509BE
:10EBF0008312F3F89002B812F3F2E4F510F51178ED
:10EC000010122868781012286885088285098312F6
:10EC1000287F850A82850B8312287F850C82850DCB
:10EC20008312287F850E82850F8312F25512F51FFD
:10EC3000120C26740A1225FB02F87F74F212265574
:10EC400089088C0A8D0B90028DE064026005E064F7
:10EC50000170047912805DEC450B700479028054D8
:10EC6000120D288A0C8B0DAE0CAF0DEE4F7004798F
:10EC7000148041E508600B8E828F83A3A3A3E0D2AA
:10EC8000E1F0750C10750D00780C122868AC0AAD17
:10EC90000BEE2410FAE43FFB12163A74021225FB25
:10ECA00012FB831224D3EE2420F582E43FF5831275
:10ECB00024DF790002F30974F0122655EAFEEBFF17
:10ECC0008C0A8D0BEE4F7005790202EDC612F51F0E
:10ECD000120D288A088B09EA45097005791402ED9E
:10ECE000C690028DE06402601FE06401601AEA24AD
:10ECF0000BF50CE43509F50D850C82F583E064080D
:10ED0000700BE50A450B6005791202EDC69002AC66
:10ED100012F71D6005791102EDC67A1F7B001217EC
:10ED2000069002AC12F4D79002AC12F71D70057970
:10ED30001302EDC67C1F7D00790012165212F51FDA
:10ED400012EDC9A312F4D7750E16750F00780E12C6
:10ED50002868EE2402FCE43FFD9002ACE02403FAB4
:10ED6000A3E03400FB12163A74021225FB12EDC91F
:10ED70007402F0850C82850D83E0640870047901CB
:10ED8000800279009002ACE02403F50CA3E034008B
:10ED9000F50D780C1228688E828F8312F25590023E
:10EDA000C2E0FA12119C74021225FBE9FEE50A4545
:10EDB0000B600BAC0AAD0BAA08AB091211D8EE60C0
:10EDC0000312089CEEF902F3E79002ACE0F8A3E02E
:10EDD000F58388822274F412265574FF1225E5EA21
:10EDE000FEEBFF8908120D288B0BEA450B700479A6
:10EDF000148014851882851983E508F0AC18AD19C4
:10EE0000EEFAEFFB1211C074011225FB7F040227FA
:10EE10002774F012265574F01225E58A0C8B0D8CA0
:10EE20000E8D0F7420122631E0FEA3E0FFEEFAEF04
:10EE3000FB120D288B09EA45097004791280659050
:10EE400089E0780C121AAC5004790280577C107D4E
:10EE5000007900AA18AB19121652851882851983F9
:10EE6000E50CF0850D09E509F5087401122631E578
:10EE700008F0850C08850E0A850F0B7410780812AF
:10EE800023B37402122631E508F07418780C1223AB
:10EE9000B37403122631E50CF0EEFCEFFDAA18ABBB
:10EEA000191211A274101225FB02F3E774F1122655
:10EEB000558A0A8B0B890E8C0C8D0D90028DE064A7
:10EEC000026005E064017005791202EF7AEC450DED
:10EED0007005790202EF7A120D288A088B09AE08B4
:10EEE000AF09EE4F7005791402EF7AEE2424F5088D
:10EEF000E43FF50985088212EF88600312170C7C45
:10EF00001B7D00AA0CAB0D1216468508828509836D
:10EF100012F4D712F24FEC4D70047913805C12F9A1
:10EF200068E06408703D740F122631E06035EC240F
:10EF300012F508E43DF5097808122868EC2410F56C
:10EF400082E43DF58312287FEC241AF582E43DF536
:10EF500083E0F9AA0AAB0B1211DE74041225FBE957
:10EF6000F980027900EE2403F582E43FF583E0D2D4
:10EF7000E2F0E50E6004E0D2E1F07F0702272712FD
:10EF8000FB7A241BF582E438F58312F527EA4B223D
:10EF900074EE122655120D288A088B09AE08AF09A7
:10EFA000EE4F700302F03FEE2420F508E43FF50930
:10EFB00074121226311224D3850882850983122403
:10EFC000DF7A267B001207C4EAF50A70078E828F6B
:10EFD00083E0F50A850882850983780C12249D8ECA
:10EFE000828F83A3A3A3A3E0F50B7A0E7B001216F6
:10EFF0005E8A088B09EA4509604512F042740912DD
:10F00000F053E50B12F972122868EE2405FCE43F78
:10F01000FDEA2404FAE43509FB12163A74021225BB
:10F02000FB850882850983A3A3A3A3A3A3A3A3A30A
:10F03000A3780C1224ACAA08AB09A90A12166A021A
:10F04000F87F8A828B8374D0F0A3E4F08A828B836A
:10F05000A3A322F08A828B83A3A3A32274EA12269D
:10F06000558A0C8B0DEA450D700302F1E58A828BFF
:10F0700083A3A3A3A3A3A3E07005750B0880037566
:10F080000B049002AA12F71D600512EDCF800390C9
:10F090001964E0F50A9002C312F71D600F12EDCF5C
:10F0A000A3A312EB1C60057900122653E50C24077C
:10F0B000F50EE4350DF50FE50C2408F508E4350DE3
:10F0C000F509AA08FB850E82850F83E0F91207EE89
:10F0D000E9FB850E82850F83F0E50C2403FEE43501
:10F0E0000DFFE50C2404F514E4350DF515E50C24AD
:10F0F0000EF510E4350DF511E50C2414F582E43518
:10F100000DF583E0F5127513007812122868E50CEE
:10F110002412F582E4350DF58312287FE50C2410C6
:10F12000F582E4350DF58312287F851082851183E1
:10F1300012287FE50BF50C780C12286C851482855B
:10F14000158312287FAC08AD09AA0A8E828F83E04E
:10F15000F912087E740B1225FB8E828F83E07041BA
:10F16000750C17750D00780C1228688510828511B2
:10F170008312287F780B12286C7808122868850E75
:10F1800082850F83E0FD7C0185148285158312F54D
:10F1900023A90A120D1C74071225FBE98E828F83A6
:10F1A000F09002AA12F71D60031208A29002BAE0C2
:10F1B00060339002BBE0FA9002BAE0F9120890E9DD
:10F1C00060238E828F83E0FB74316B601385148221
:10F1D00085158312F2559002BAE0FAEBF912088411
:10F1E0009002BAE4F07F0E02272774F6122655E447
:10F1F000F508F50978081228687808122868EA24C2
:10F200000CF582E43BF58312287F8A828B83A3A3CB
:10F21000A3A3A3A3A3A3A3A312287F8A828B83A360
:10F22000A3A3A3A3A3A3A312287F8A828B83A3A350
:10F23000A3A3A3A312F2558A828B83A3A3A3A31231
:10F24000F523120C20740A1225FB7F020227278562
:10F250000882850983E0FCA3E0FD2274F2122655A2
:10F26000EAFEEBFF750A00EE2403F8E43FF9880894
:10F2700089098882F58312F523120D288A828B83EF
:10F28000E5824583600FE0F50A85088285098312CF
:10F29000F523120D229002BAE06019650A701590EC
:10F2A00002BBE0FA9002BAE0F9120890E9602490FB
:10F2B00002BAE4F0E50A601B8E828F83A3A3A3A3A6
:10F2C000A3E0FB12F24FAA0A8E828F83A3A3E0F978
:10F2D0001208849002AC12F71D600312089C850886
:10F2E0008285098312F523120D3AE96404701A85A8
:10F2F000088285098312F30EE0687003A3E0697049
:10F30000089019B374FFF0A3F07F0602272712F3C9
:10F31000FC9019B32274F012265589098A0C8B08C7
:10F320008C0A8D0B7A147B0012165E8A0E8B0FAE40
:10F330000EAF0FEE4F700302F3E78E828F8374D00F
:10F3400012F4C3A3A3740512F4BCE508F0EE240480
:10F35000FAE43FFBE50A450B6019750E06750F00D0
:10F36000780E122868AC0AAD0B12163A74021225F8
:10F37000FB80097C067D007900121652741012265B
:10F380003112F3F88E828F83A3A3A3A3A3A3A3A315
:10F39000A3A312F3F27412122631E0C0E012F95E58
:10F3A000D0E0F0741312263112F402240D12F3ECA3
:10F3B000741512263112F402240F12F3EC74171292
:10F3C000263112F402241112F3EC7419122631E0E2
:10F3D000C0E0EE2413F582E43FF583D0E0F0EEFACE
:10F3E000EFFBA90C12166A7F08022727F582E43F7B
:10F3F000F583E8F0A3E9F02212F3FC22E0F8A3E0A1
:10F40000F92212F3FCEE2274F212265589098A08B9
:10F41000ECFEEDFF8B0A7A067B0012165EEA4B606B
:10F42000238A828B8374D0F0A3E50912F04B740613
:10F4300012F053EEF0A3EF12F053A3A3E50AF0A9E4
:10F440000812166A02F30974F0122655890C8A080C
:10F450008B098C0A8D0B7A0C7B0012165E8A0E8B40
:10F460000FAE0EAF0FEE4F6050AA08AB09120D2879
:10F470008A828B83E58245837003901964E0F98E5C
:10F48000828F8374D0F0A3E50C12F6D9740712F4BE
:10F49000BCA3E50812F4C312F4DD74101226311275
:10F4A000F4EB12F4D7741212263112F4EBA3A31268
:10F4B000F4D7EEFAEFFB12166A02F3E712F4CBA3CD
:10F4C000A3A322F0A3E50912F4CB22F08E828F834E
:10F4D00022F582E438F583EAF0A3EBF022A3A3A39C
:10F4E000A3A3A3E50AF0A3E50BF02212F5278E8271
:10F4F0008F83A3A3A3A3A3A3A3A32274F6122655C9
:10F50000EAFE120D2E8A828B83E5824583600BEE24
:10F51000F9A312F523120B428002791202F24A8EED
:10F52000828F8312F52722E0FAA3E0FB2274EC120B
:10F53000265589118A0A8B0B8C10120D288A0E8B86
:10F540000FEA450F700302F6D49002AC12F71D705B
:10F550000302F6D47A0E7B00E0C8241912F7176074
:10F56000027A2912F7126008EA2414FAE43400FB44
:10F570007414122631E0F50CA3E0F50DE50C450DF1
:10F580006007EA241BFAE43BFB12FB9512F71760B5
:10F5900007EA2416FAE43BFB12165E8A088B09AED2
:10F5A00008AF09EE4F700302F6D47C0E7D0079009F
:10F5B0001216527A267B001207C48A088B09EA4584
:10F5C000097009850E82850F83E0F5088E828F838E
:10F5D00074D0F0A3E51112F6D9740A12F4CB12F428
:10F5E000E08E828F83A3A3A3A3A3E510F0EE240EE5
:10F5F000F50AE43FF50B9002ACE0241912F6DF1295
:10F60000F71D6018EE240612F6EA1228688C828D27
:10F610008312F25512163A74021225FB9002ACE0E6
:10F62000241D12F6DF12F71D6038EE2408F8E43FBF
:10F63000F98882898312F4E38882898312F523EAA8
:10F640002414F50AE43BF50B750E14750F00780EC3
:10F650001228688C828D8312F25512163A740212A7
:10F6600025FBE50C450D6015EE240A12F6EA12287A
:10F6700068AC0CAD0D12163A74021225FB9002AC68
:10F68000E0241BF8A3E03400F9E8FAE9FB8A828B56
:10F690008312F71D6032EE240CF8E43FF9880C88E1
:10F6A00082F58312F4E3750A16750B00780A1228A6
:10F6B000688A828B8312F255850C82898312F52326
:10F6C00012163A74021225FBEEFAEFFBA908121685
:10F6D0006A12089C7F0C02272712F4CBA3A322FCFA
:10F6E000A3E03400FD8C828D8322F8E43FF9888208
:10F6F0008983E50AF0A3E50BF08882898312F52758
:10F70000EA241BF50AE43BF50B750E1B750F007818
:10F710000E2212FB7A241DF582E438F58312F3FCE5
:10F72000E84922C082C0839002AC12F71D602FE02E
:10F73000C8241912EF84600312170C12EF7F6003C4
:10F7400012170C12FB8F12EF84600312170C900239
:10F75000AC12F52312170C9002ACE4F0A3F0D083A6
:10F76000D082020132C082C0839002AA12F71D60CB
:10F77000109002AA12F52312170C9002AAE4F0A32B
:10F78000F080DB74F0122655890C8A0A8B0B120D5F
:10F79000288A088B09EA4509604C7A267B00120703
:10F7A000C48A0E8B0FAE0EAF0FEE4F700885088225
:10F7B000850983E0FE7A057B0012165E8A088B09B4
:10F7C000EA450960217C057D00790012165212F885
:10F7D0008F740EF085088285098312F4E0AA08ABC5
:10F7E00009EEF912166A02F3E774EE122655890C37
:10F7F000EAFEEBFF8C0A8D0B120D288A0E8B0FEAA6
:10F80000450F607B7A0B7B0012165E8A088B09EA33
:10F810004509606B7C0B7D0079001216527A267BBD
:10F82000001207C48A108B11A810A911E8497008AA
:10F83000850E82850F83E0F812F88F740F12F88A14
:10F84000EEF0A3EF12F884E50A12F884A3E50BF0BA
:10F85000741212263112F8A9F0741312263112F81C
:10F86000A9A3F07414122631E5082409FCE4350933
:10F87000FD74021224F8AA08AB09E8F912166A7F8F
:10F880000A02272712F88AA3A32212F89FA322852F
:10F89000088285098374D0F0A3E50C12F89F22F04A
:10F8A000850882850983A3A322E0850882850983D0
:10F8B000A3A3A3A3A3A3A32274EE1226558A0A8BA3
:10F8C0000B890E120D288A0C8B0DEA450D70030270
:10F8D000F95B7A0D7B0012165E8A088B09AE08AFC1
:10F8E00009EE4F60767A267B001207C48A088B09DE
:10F8F000EA45097009850C82850D83E0F5088E8242
:10F900008F8374D0F0A3E412F6D9740B12F972123B
:10F910002868E50C2405FCE4350DFDEE2403FAE42B
:10F920003FFB12163A74021225FB8E828F83A3A32B
:10F93000A312F4DD12F968E50EA2E0500474018010
:10F9400001E4F012F95EE50EA2E1500474018001B9
:10F95000E4F0EEFAEFFBA90812166A02F87FEE2433
:10F960000CF582E43FF58322EE240BF582E43FF5AB
:10F970008322F075100675110078102274E81226A3
:10F980005589108A0FECFEEDFF8B0EEEFAEFFB129D
:10F990000D288A088B097418122631E0F50CA3E0B3
:10F9A000F50D741A122631E0F514A3E0F515741C58
:10F9B000122631E0F516A3E0F517741E122631E089
:10F9C000F50AA3E0F50BEA4509700302FAA8E51071
:10F9D000600302FAA8EA2403F582E43509F583E01E
:10F9E000D2E4F0E50EA2E2E05004D2E18002C2E1EE
:10F9F000F0E50C450D7012E5144515700CE5164543
:10FA0000177006E50A450B606AE0D2E2F0E50A45A8
:10FA10000B603412FB831224D3E5082420F582E422
:10FA20003509F5831224DF75121075130078121250
:10FA30002868AC0AAD0BE5082410FAE43509FB127E
:10FA4000163A74021225FBE5082424F50850020535
:10FA500009E50C450D6021E50F701D8508828509BB
:10FA60008312EF8A600312170C7C1B7D00AA0CAB7B
:10FA70000D8027E0C2E2802FE5144515602A74014D
:10FA8000650F702485088285098312EF8A6003124E
:10FA9000170C7C1B7D00AA14AB1512164685088234
:10FAA000850983EAF0A3EBF09002AC12F71D700316
:10FAB00002FB75E50C450D6039E0C8241912F717F3
:10FAC000700F7A1B7B0012170612FB7A241912F4AE
:10FAD000D112FB7A241912EF84601775081B75097F
:10FAE000007808122868AC0CAD0D12163A74021298
:10FAF00025FBE5164517603112FB9512F717700DBF
:10FB00007A167B0012170612FB9512F4D112EF7FC2
:10FB100060177508167509007808122868AC16ADCC
:10FB20001712163A74021225FBE50A450B603112D2
:10FB3000F712700D7A147B0012170612FB8F12F465
:10FB4000D112FB8F12EF84601775081475090078C5
:10FB500008122868AC0AAD0B12163A74021225FB83
:10FB60007814122868AC0EEEFAEFFBA91012089672
:10FB700074021225FB7F100227279002ACE0F8A345
:10FB8000E0C822E50A2410F582E4350BF583221241
:10FB9000FB7A241D2212FB7A241B22C082C0839090
:10FBA00002B012F4D702F75E74F6122655EAFEEBA5
:10FBB000FF75082C75090178081228687C007D0003
:10FBC0007A597B0E1219E274021225FB12FCC674DC
:10FBD00059F0A3740EF0EE242E12FFD512FF9712E7
:10FBE00028687CDD7D88EEFAEFFB121A0C74021295
:10FBF00025FBEE240F12FFEA241012FFF424111249
:10FC0000FFD57480F0A3E4F0A3F0EE241512FCA954
:10FC1000241712FC9C241D12FCB7241F12FCB724CD
:10FC20002212FFCBEE242312FFCBEE2424F582E434
:10FC30003FF5837441F0EE2425F582E43FF58374AB
:10FC400006F0EE242612FCA9242812FC9C12FF8741
:10FC500074A0F0A37482F0EE2436F582E43FF583BD
:10FC600074C0F0A37483F0EE243CF582E43FF58386
:10FC70007400F0A37480F0EE243EF582E43FF58337
:10FC80007460F0A37480F0EE2442F582E43FF583C3
:10FC900074E0F0A37484F07F02022727F582E43F2A
:10FCA000F583E4F0A304F0EE22F582E43FF58374DB
:10FCB00080F0A3E4F0EE22F582E43FF5837494F043
:10FCC000A37411F0EE22EE242CF582E43FF583229A
:10FCD00074E8122655EAFEEBFF8C148D15EE2428ED
:10FCE00012FFD5F0EE242AF582E43FF5837404F088
:10FCF000A3E4F012FCC67421F0A3E4F0750803F548
:10FD00000978081228687CFF7D00EE2423FAE43F7E
:10FD1000FB1219E274021225FBEE243812FFEA24CA
:10FD20008E12FFCB7C087D007A477B0E12159E1247
:10FD3000FF7DEAF0A3EBF0EE2425F516E43FF5177E
:10FD4000EE2424F512E43FF513EE2423F510E43FEE
:10FD5000F511EE240FF50EE43FF50FEE241BF50828
:10FD6000E43FF509EE2410F50AE43FF50B750CF5B8
:10FD7000750D88AC0CAD0DAA14AB151219FA8B15C4
:10FD8000EA4515703875140C75150078141228683A
:10FD9000AC0CAD0DAA0AAB0B121A0C74021225FBA7
:10FDA00012FF901228687C147D88EEFAEFFB121A7D
:10FDB0000C74021225FB12FFA0740F8036750C0C18
:10FDC000750D00780C1228687C957D89AA0AAB0B0A
:10FDD000121A0C74021225FB12FF901228687C2A5A
:10FDE0007D88EEFAEFFB121A0C74021225FB12FF4B
:10FDF000A07414F0EE248E12FFF412FCC7E044400D
:10FE0000F0EE2459F582E43FF58374B6F0EE245AFF
:10FE100012FFF4245BF582E43FF5837411F075085A
:10FE20001478081228687C757D87EE245CFAE43F1C
:10FE3000FB1219DC74021225FBEE241CF582E43F50
:10FE4000F5837486F0EE2421F582E43FF58374D7C0
:10FE5000F0EE2422F582E43FF58374C2F0EE241F15
:10FE6000F582E43FF5837428F0A37423F0EE24A513
:10FE7000F582E43FF58374E0F0A37481F0EE24A3EF
:10FE8000F582E43FF5837440F0A37482F0EE242EF3
:10FE9000F582E43FF58374C8F0EE242FF582E43F49
:10FEA000F5837464F0EE2430F582E43FF583741931
:10FEB000F0EE2431F582E43FF5837420F0EE243235
:10FEC00012FFEA2433F582E43FF5837403F0EE1267
:10FED000FF877453F0EE243512FFF4243612FFF43A
:10FEE0002437F582E43FF5837401F0750820780823
:10FEF0001228687C937D86EE2439FAE43FFB1219C0
:10FF0000DC74021225FBEE2470F582E43FF5837465
:10FF100064F0EE247112FFEA247212FFC1EE247322
:10FF200012FFF4247412FFDF247512FFF4247612FA
:10FF3000FFEA247712FFDF247812FFDF247912FF13
:10FF4000EA247AF582E43FF583740AF0EE247D1208
:10FF5000FFEA247E12FFC1EE247F12FFEA24801202
:10FF6000FFC17AFF7B0D1215CE7CFF7D0D12FF7D48
:10FF7000E0FAA3E0FB1215A47F10022727EE24A7C6
:10FF8000F582E43FF583222434F582E43FF58322B1
:10FF9000850882850983E4F0750810F50978082240
:10FFA000850E82850F83E4F0851082851183741E8F
:10FFB000F08512828513837495F0851682851783E8
:10FFC00022F582E43FF5837405F022F582E43FF5E3
:10FFD0008374FFF022F582E43FF583E4F0A322F579
:10FFE00082E43FF583740FF0EE22F582E43FF5835F
:0FFFF000E4F0EE22F582E43FF5837401F0EE2297
:020000040001F9
:1000000074F012265574FD1225E57402122631E9AA
:10001000F08A088B098C0A8D0B7415122631E0FECC
:10002000A3E0FF851882851983E4F0A3F08E828F08
:1000300083A3AA82AB83901DB7780C12249D780805
:10004000790C121C2A70118E828F8374691284EBD2
:10005000746EF0A37466801878087908121C2A6000
:10006000188E828F83746E1284EB7461F0A3746EA9
:10007000F0A30A0AAB8302848A901DBB780C122479
:100080009D7808790C121C56500302812D908A8CA1
:10009000780C12249D7808790C121C2A60030281C6
:1000A000817417122631E070030281C3851882859E
:1000B0001983C082C0837413122631128F3FD083FC
:1000C000D0821284C4502F851882851983C3E0948E
:1000D000FCA3E094FFA2D265D033401A740212262A
:1000E00031E412902FF8A3E0F97413122631C3E023
:1000F00098F0A3E099F074131226311284E1741879
:10010000122631E070030281C07417122631E40216
:1001100081C2901DBF780C12249D7808790C1220A2
:10012000B0851882851983E0240A12904D901DC372
:10013000780C12249D7808790C121C5640D4908AB1
:1001400084780C12249D7808790C121C5640030206
:1001500080A1908A84780C12249D7808790C122052
:10016000B012904480D8901DBF780C12249D78085E
:10017000790C121CF1851882851983E024F612840B
:10018000E4901DC7780C12249D7808790C121CA5E8
:1001900040D4901DBB780C12249D7808790C121C59
:1001A000A540030280A1908A84780C12249D7808CF
:1001B000790C121CF18518828519831284E180D292
:1001C0007401F07402122631E060057A0002825058
:1001D0001284D0507F8E828F837430F0EAFEEBFF62
:1001E0007413122631E0FCA3E0FDEC4D7008741886
:1001F000122631E0600B8E828F83742EF0A30EAF37
:10020000837A007B0080118E828F83743012850C7C
:1002100074131226311284E1EA24FF1AEB34FFFB37
:100220008518828519831284B8500C7413122631F4
:10023000128F3FE84970D085188285198374FFC3F7
:100240009CF874FF9DF91284C450030283A27A01C2
:100250007B00807B851882851983128F3FC3E498C9
:10026000FAE499FB806985080C85090D850A0E85DD
:100270000B0F780C121B43AC0CE50D3395E0F50E1B
:10028000F50F780C121ACB7808790C121E71908A2F
:1002900084780C12249D7808790C121CF1EC1285DC
:1002A00006EAF8EBF9E824010AE439FBE849701F93
:1002B0007413122631128F3FE84970087418122601
:1002C00031E0600B8E828F83742EF0A30EAF8374A7
:1002D000131226311284B8508D901DCB780C122445
:1002E0009D7808790C121C5640030283A27C01EE13
:1002F00024FFF8EF34FFF97415122631E0F508A356
:10030000E0F50988828983E0642E6010E02CF064B7
:100310003A70077430F07C0180027C00E8FAE9FB57
:10032000EA24FF18EB34FFF9C3E5089AE5099B407E
:10033000D2ECA2E0506C7402122631E0603BEEF881
:10034000EF800DEC88828983F0E824FF18E934FF00
:10035000F9C3E50898E50999501A128494E0FC74F1
:100360002E6C70DFE824FEF582E934FFF5831284F9
:10037000A1F980D5129044801E8E828F83A3AE8215
:10038000AF83EEF8EF80061284941284A1F9C3E5DE
:100390000898E5099940F07415122631128F697496
:1003A00031F07417122631E07005801C1EAF83EE09
:1003B00024FFF582EF34FFF583E0F874306860ECD9
:1003C000742E6870031EAF837402122631E070032E
:1003D000028486128508A3A9831284D08E828F831B
:1003E0005014742DF00EE9FF851882851983128F41
:1003F000811284F98006742BF00EE9FF7C007D00E9
:10040000EE240AFE50010F0CEC70010D1284AA12AA
:100410002552EA1285061284AA1225528518828571
:100420001983E8F0A3E912902F4970DBC3EC940222
:10043000ED128EFE40D1ECFAEDFBC3E49CF8E49D96
:10044000F9EE28F582EF39F583E0C0E0C3E49AF8CD
:10045000E49BF9EE28F8EF39F9E82CF8E93DF9E8E2
:1004600024F5F582E934FFF583D0E0F0EC24FF1C9D
:10047000ED34FFFDC3EC9401ED128EFE50BCEE2472
:10048000F6FEEF34FFFFEEFAEFFB74031225FB7F5D
:1004900008022727E824FFFAE934FFFB8A828B83CE
:1004A00022E088828983F018EB22851882851983DF
:1004B000128FC77A0A7B0022C3E09AA3E09BA2D2E4
:1004C00065D03322C3E098A3E099A2D265D033224D
:1004D000851882851983C3A3E09400A2D265D03326
:1004E00022E024FFF0A3E034FFF022F0EAFEEBFF6D
:1004F0008E828F8322A3E03400F9851882851983C8
:10050000E8F0A3E9F02224308E828F83F0A3AE823C
:10051000AF832274F012265574AE1225E585188239
:10052000851983128FFD7417122631ECF0A3EDF0BC
:10053000740F122631E4F0A3801B7462122631126C
:100540008F2F7417122631128F69122653740F12CF
:100550002631128F06F0128FA3F985188285198330
:10056000E02401FAA3E03400FB8518828519831288
:100570008FFD7425696010E970C0740F1226311266
:100580008F2F745202848C128FA3642570198518E2
:1005900082851983E02401081284F57462122631E1
:1005A000128F2F7925809B740E122631E4F0740D82
:1005B000122631E4F0740C122631E4F07405122690
:1005C00031E4F0742012263B7402122631128500A9
:1005D000741E1226317482F0A3741D8019740512E2
:1005E0002631E070077405122631EAF085188285FD
:1005F0001983E8F0A3E912902F128EF3128F98FA64
:1006000024E060D924FD601724F860D924FE600638
:1006100024FD600F8011740C122631E00480CC742C
:100620000D80F5740E80F1128F98642A705C7464EA
:10063000122631128F9EFAA3E0FB8A828B83E0FCA4
:10064000A3E0FD740A122631ECF0A3EDF0EA2402D7
:10065000FA50010B7464122631128FF5740A1226B7
:10066000311284D6501F740A122631128F2FC3E420
:100670009AFAE49BFB740A122631128FFD740C1255
:100680002631E004F01284FA8043740A122631E421
:10069000F0A3802D740A122631128F2FEA75F00A0A
:1006A000A4FAA9F075F00AEBA429FBEA28F8E43BC8
:1006B000F9E824D0F8E934FFF9740A1226311290CF
:1006C0005412903CF874D028C3940A40C7740C129A
:1006D0002631E06007740E122631E4F0128FA36415
:1006E0002E7079851882851983E0240108128F53B2
:1006F000E8F0A3E912903C642A7026746412263153
:10070000128FBC88828983E0FEA3E0FFE82402F810
:100710005001097464122631128F8B129054F080AC
:100720003F7E007F00128FB074D028C3940A5030EF
:10073000EE75F00AA4FEA9F075F00AEFA429FFEE09
:1007400028F8E43FF9E824D0FEE934FFFF85188259
:10075000851983E02401F81284F580C97EFF7FFFAC
:100760007A00851882851983E02401F8128F53E0FE
:10077000FBA3E0F5838B82E024B4600824E46006E8
:1007800024FC70057A011284FA128FB085188285D4
:100790001983E02401FCA3E03400FD85188285194B
:1007A00083ECF0A3EDF07404122631E8F07003023C
:1007B0008D9A24BB7003028C6324FE7003028C4567
:1007C00024EF700302899424F5700302888A147060
:1007D00003028A3F147003028C63147003028C615D
:1007E000147003028C4524FE7003028A3F24FB60D0
:1007F0002414700302897814700302899424FD7014
:10080000030288C124FE700302899424FD70030250
:100810008988028DA67464122631128FE312263164
:1008200012900B122631128FBCE8FCE9FD740612FF
:100830002631E02402F508A3E03400F509EAA2E03D
:10084000740F502F122631128F3F3395E0FA8C82AD
:100850008D83E8FCE9FDEAFEECF0A3EDF0A3EEF0F9
:10086000A3F07464122631128F69E508F0A3E5093C
:10087000028555122631128F3F8C828D831285009E
:100880007464122631128F8B80E074641226311248
:100890008FB6128FABC0E07420122631D0E0F07416
:1008A00064122631128F69128FCD122631128F8B6E
:1008B0001285007421122631A882A983741102893D
:1008C0006E7464122631128FE312263112900B12CD
:1008D0002631128FE3122631E02402FAA3E034001D
:1008E000FB7464122631128FF574021226311285C0
:1008F00000E849700C74021226317493F0A3741D41
:10090000F0128EFC50047E107F277408122631E40A
:10091000F0A380087408122631128F06F0740212B8
:100920002631128F3F88828983A3AA82AB83740207
:10093000122631128FFD88828983E0600A740812C2
:100940002631128F4340CD7402122631128F1D744E
:10095000111226311285007408122631128F81F986
:100960007411122631E028F8A3E039F97402122636
:1009700031E8F0A3E9028DBD740D122631E0600864
:10098000EE4F70047E017F00741E12263174A2F0B7
:10099000A3741DF07464122631128FE312263112F3
:1009A00085007404122631E06470703274061226D9
:1009B00031128FD9122631129013122631128FCD97
:1009C000122631128F8B128500741A122631741080
:1009D00012901DA3F07405122631E4028ACBEAA21C
:1009E000E07406501B122631128F691224D374133F
:1009F0001226311224DF7406122631E024048012FC
:100A0000122631128FD9122631129013122631E09C
:100A10002402128FD0122631128F8B12850074049B
:100A2000122631E0646F7009741A1226317408803E
:100A30009FE064757093741A122631740A80917461
:100A400064122631128FE3122631128500EAA2E0E9
:100A500074065015122631128F69780812249D747D
:100A600006122631E02404801B122631128FA9F5CC
:100A700008A3E0F5093395E0F50AF50B7406122694
:100A800031E02402128FD012263112902412263126
:100A900078081224AC908A8C7808121A6640217467
:100AA00005122631742DF0741312263178081224A1
:100AB0009D7808122388741312263178081224AC0A
:100AC000741A122631740A12901DA3F07451122662
:100AD00031A882A983740212263112850074111282
:100AE00026311290271226311224D3E8494A4B604E
:100AF0000A74191226317401F0800E74191226310D
:100B0000E4F0EE4F7003028BB57402122631128F9F
:100B100063122631129027122631780C12249D740C
:100B20001A122631780812249D780C79081223169F
:100B3000741E122631E02508F8A3E035098882F5F5
:100B400083E0C0E07402122631128F69D0E0F074A5
:100B500013122631780C12249D741A12263178084B
:100B600012249D780C7908122316741312263178FA
:100B70000C1224AC74131226311224D3E8494A4BC8
:100B80007087128EFC502E740E122631E06026748F
:100B900005122631E06004D2F08002C2F0740A121D
:100BA0002631128F0F800E7402122631129003121A
:100BB0002631128F7A7402122631128F1D7451124F
:100BC0002631C082C0837402122631128F2FD08347
:100BD000D082E582C39AFAE5839BFBC3EA9EEB12BF
:100BE0008F4C40C3740D122631E07003028DBE7429
:100BF00019122631E0A2E04003028DBE74041226D1
:100C000031E064786005E064587010E08882898380
:100C1000F0E824FF18E934FFF98017E0646F6003FF
:100C2000028DBE7402122631128F9E643070030250
:100C30008DBE7402122631129003122631128F6972
:100C40007430028DBD74081226317401F0A3E4F0F3
:100C50007404122631E024FEF0EE4F700F7E018006
:100C600012E4F07408122631E4F0A3F0128EFC5066
:100C7000047E067F007464122631128FE31226313F
:100C800012900B122631128F69780C12249D740673
:100C9000122631E02404128FD01226311290241231
:100CA0002631780C1224AC908A8C780812249D7816
:100CB0000C7908121CA550227405122631742DF0EF
:100CC0007413122631780812249DE50BB2E7F50B58
:100CD000741312263178081224AC740A1226317467
:100CE0002012263B8909E028F8A3E03509F97402AF
:100CF000122631128500740D122631E0F5087808AD
:100D000012286C7409122631E0F508780812286C54
:100D1000740412263112287F8E088F097808122851
:100D200068740A122631E0F974191226311224BBB4
:100D30001219D074061225FB7411122631128FFD80
:100D4000740E122631E060767405122631E06004DC
:100D5000D2F08002C2F0740A122631128F0F741181
:100D6000122631C082C0837402122631128F3FD006
:100D700083D082E0C398F8A3E099F9C3E89EE91212
:100D80008F4C503A7402122631128F6312263112A0
:100D90009003122631128F7A80C4851882851983B8
:100DA000128F261284F9740212263174B3F0A374E0
:100DB0001DF0741112263174B6F0A3741DF0741175
:100DC000122631C082C0837402122631128F3FD0A6
:100DD00083D082E0C398FEA3E099FF740A12263103
:100DE000128F43500A7408122631E4F0A380307445
:100DF00005122631E06004D2F08002C2F0740A12BB
:100E00002631E0C39EFAA3E09FFBA2F0E433F8EAA8
:100E100098F8EB9400F97408122631E8F0A3E9F091
:100E2000740C122631E0702B801974621226311274
:100E30008F35122631128F69122653740F12263104
:100E400012904A7408122631128FE9122631128448
:100E5000D650D77405122631E060517462122631E3
:100E6000128F2F7405122631E0F9741712263112F1
:100E70008F69122653802D7462122631128F2F74BF
:100E800002122631128FA9F97417122631128F69B6
:100E90001226537402122631E0128EF374021226C7
:100EA00031128500740F12263112904AEE24FF1E73
:100EB000EF34FFFFC3128EFE50BD740C122631E0DA
:100EC00070030285567408122631128FE9122631FA
:100ED0001284D650030285567462122631128F3561
:100EE000122631128F69122653740F122631129076
:100EF0004A80D22401F8A3E03400F922C3EF940021
:100F0000A2D265D03322E02401F0A3E0340022A273
:100F1000F0E433F8E098FEA3E09400FF22128F2162
:100F200022128F26F922E024FFF8A3E034FF22E00A
:100F3000FAA3E0FB22E0FAA3E0FB79207417221267
:100F40008FC722C3E09EA3E0128F4C229FA2D265DE
:100F5000D03322128F5722A3E03400F985188285FE
:100F6000198322128F21740222128F6D22128F7127
:100F700022E0F8A3E0F583888222128F6D7430F0AE
:100F800022128FC7C3E498F8E49922128F8F22E0CF
:100F9000FAA3E0F5838A8222851882851983128F4D
:100FA0008FE022851882851983E0F8128F73E02282
:100FB000851882851983128F6DE0F822128FC02266
:100FC000128F71128FC722E0F8A3E0F922E0240209
:100FD000F8A3E03400F9746422128FC0E8FAE9FB48
:100FE000741322128FC0740622E024FFF0A3E034B1
:100FF000FFF0740822E0FCA3E0F5838C82EAF0A302
:10100000EBF022E8F0A3E9F0740222E8F0A3E9F0A3
:10101000740622EAF0A3EB12901D740622F0A3E4FA
:10102000F0A3F022128F8FE8F0A3E9F074132212DC
:10103000903322F0851882851983E02212903312B2
:101040008F72E022851882851983E02401F0A3E0E5
:101050003400F022E8F0A3E91290332401F8128F53
:1010600057E8F0A3E92274F4122655E990037FF0C3
:1010700012106A907800E0C4540F5407640370049F
:10108000793F8002797F7508067509007808122873
:10109000687C6D7D037AEA7B071214C67402122500
:1010A000FB90036DE0F47049A3E0F47044A3E0F416
:1010B000703FA3E0F4703AA3E0F47035A3E0F4705D
:1010C0003090780EE090036DF090780FE090036E12
:1010D000F0907810E090036FF0907811E09003703A
:1010E000F0907812E0900371F0907813E090037222
:1010F000F09003731291FC129F4490039D7406F0CC
:10110000A3740D129A497441F0A37401F09004C9BC
:101110001291FC9004C8E4F09004D6F0A374A012DD
:101120009A497403F0A37407129A497428129A49D1
:1011300004F0A3E4F09004FFF090052274FFF0A304
:10114000E4F0900524F090052604F09005277490B3
:10115000F0A37401F0120E42120D7C1210107901EE
:101160007A297B05120F26900529E075F01484E595
:10117000F004F0790C7A4A7B05120F26120F3E7AA2
:101180000090037FE0F912171E907803E06442702C
:1011900056900529E014F0704EC2AF12919E00786F
:1011A0002AD0E0F618D0E0F6E59F5407F8700575F0
:1011B00009FF800375097FC4C0E07829E6F50808B7
:1011C000E65509F509740B78081225C3D0E0250807
:1011D000F8906270E0A2E740F8E8C333906272F0E2
:1011E000906270E0D2E0F09003AAE4F0A3F07A807D
:1011F000FB90037FE0F912168E0296C174FF1295E0
:101200008FF0A3F02274F4122655EAFEEBFFEEA253
:10121000E05040900381E0C39480E0500F25E0F857
:10122000E433F9744B28F582741A800EF425E0F843
:10123000E433F9745928F582741A39F583129DF64E
:101240001226537A0090037FE0F912171EEE640114
:1012500002941954026037750800780812286CE46B
:10126000F509780812286878081228687808122882
:101270006878081228687D007C017A007B00793C40
:10128000120BD274091225FBEE6402029419EE547B
:101290000470030293229003AEE0F875F00AA4C82C
:1012A000AAF02AF974B028FA740339FBEA242AF563
:1012B00082E43BF583E0F508780812286CEA2432D2
:1012C000129425F509740478081225C378081228A9
:1012D00068EA2420F582E43BF58312287FEA242E75
:1012E000129425C313F509E50813F50878081228A8
:1012F00068EA2403F508EB3401F509780812286838
:10130000129431FD7C018A828B83A3A3A3A3E0FA0C
:101310007B007900120BD274091225FBEE640402E3
:101320009419EE54406037750800780812286CE470
:10133000F5097808122868780812286878081228B1
:101340006878081228687D007C017A007B00793B70
:10135000120BD274091225FBEE6440029419EE546C
:10136000806037900527129A41602A790012171879
:10137000900527E0F508A3E0F509E4F50AF50B78F8
:10138000081228647A007B0190037FE0F912179C11
:1013900074041225FBEE6480807FEF5401600C79A9
:1013A00001121718EEFAEF64018070EF5402600A20
:1013B000C2AF75C9AB75C95B80FEEF5404600A12F9
:1013C00037F8EEFAEF64048052900386E06401700F
:1013D0004DEE54206048900380E014601214600FBA
:1013E00014600C14600924FD601114600E802779CC
:1013F00000120DD07901120DD0801B793F9003AE01
:10140000E0FA75F00AA4CAA8F028FB74B02AFA74AE
:10141000033BFB120EF0EE6420FAEFFB80047A002F
:101420007B000296C1F582E43BF583E0F508A3E07A
:1014300022EA2409F582EB3401F583E02274F612E6
:101440002655EA540F6004780180027800E8F98A92
:10145000088B09740478081225C3E50829F5087576
:101460000900740478081225D2E5082408FAE43546
:1014700009FB1216B88A088B09A808A909E849606F
:1014800009E82404FAE439FB80047A007B00029B1B
:10149000D874F6122655EA2405FA50010B1216B834
:1014A0008A088B09A808A909E8496009E82405FA0F
:1014B000E439FB80047A007B00029BD8C082C083A1
:1014C000C2AF121040E5E170FC75E101120E3075FB
:1014D000E1F1121076120E2479071210E879011248
:1014E00010EE79021210A01210BE1210DC79001258
:1014F00010E279011210E2908A681224BB1210885F
:101500009004D6E4F0A3F0A3F09004DA7407F0900E
:1015100004D97403F09004DFE4F09004DEF090044A
:10152000FFF0120ED8120F8C120EF679001210F482
:101530009004BA74FF12958F741FF0906012E4F05B
:10154000A3F0906063F0752100900380F09004BFD9
:10155000F09004C0740CF09004C1E4F09004C20454
:10156000F09004C3E4F09004C404F09004C5E4F0E7
:10157000900382F0A3F0900385F090038604F0902E
:10158000039C04F0900525E4F0D2AFF9029F0AF025
:10159000A3F0A3F0A3F0A322C082C08390036D1236
:1015A00096FB90036E129725F090036F1297309080
:1015B000037012973690037112973B900372129743
:1015C00025A3A3A3A3029F07C082C0838A828B8323
:1015D000E0900373129F22E09003741296F590033B
:1015E00075129F29900376129F35900377129F30D2
:1015F000E0900378029F07C082C083120E4EE9F983
:1016000070051210BE7900029F0A74F7122655EA7F
:10161000FEEBFF8908120E4EE9F9702CE508600A0E
:1016200074016508600A7912801E7C0079008004CC
:101630007C007901EEFAEFFB1210C4E9F87403683C
:101640007004790780027900029DFF74F612265516
:10165000EA4B600EEC4D600A740A122631129F1696
:1016600070047912800F7808122868120F387402FB
:101670001225FB7900029BD874F4122655EAFEEB82
:10168000FF8908900380E064096014E0640A600F39
:10169000E0640B600AE0640C6005E0640D7004799E
:1016A0000C801E120FB68B0BEA450B700BA908EECF
:1016B000FAEFFB120F268009900382E04440F07994
:1016C0000D7F0402272774F6122655EA4B6003E9C2
:1016D00070047912801CEAFEEBFF8908120F20E9E2
:1016E0008E828F83F0A3AE82AF831508E50870EC7D
:1016F0007900029BD8129F22A3E022E08A828B838A
:10170000F022C082C083E9F8740168700B9005254F
:101710007401F07900029F0AE87006900525E480C4
:10172000F1791280F012972922E08A828B83A3221A
:10173000129729A3F022129741F022129741A3F0A9
:1017400022129729A3A322C082C083900380E06461
:101750000C701290618EE0F874806870258C828D18
:1017600083747F8029C3EB940F5013EA4B700F9062
:1017700003B3E070047902801890041880D87912BD
:10178000800F900384E0F9E8C3998C828D83F0790F
:1017900000029F0A74F7122655E9FE74056E601E5A
:1017A00074136E601974146E601474156E600F7487
:1017B0001A6E600A74296E6005743B6E7026C3EB66
:1017C000940F5020EA4B701C9003B3E07004790230
:1017D0008026900419E064017016A3E0640270088A
:1017E000793A8014791280101297FB120EC080068D
:1017F0001297FB120EB47900029DFFEE9004A4F044
:101800009003CDE4F0A3F079027AB07B032274EC6C
:10181000122655EC4D6014E9C3941C500E7414123A
:101820002631E0F8600A74016860057912029A278F
:10183000C3EB940F5019EA4B70159003B3E070049A
:101840007902800D9004C0E0700A7907029A277926
:1018500012029A27EC24FEFCED34FFFD8C828D836E
:10186000E9F0E87004740280027401A3F0EC24FE35
:10187000FCED34FFFD7A137B04120F0EA9A8C2AF52
:101880009004C0E014F0E9A2E7E433F8E9A2E7929B
:10189000AF900380E064086008E064076003029A88
:1018A000259003AEE06003029A2579007AB07B03AD
:1018B000122CEA9061D0E07003029A259004C4E0F3
:1018C00064016003029A259003CD129A41700302CD
:1018D0009A25A2AFE433F50CC2AF120FB68A088B7B
:1018E00009AE08AF091210528A088B098C0A8D0BB9
:1018F0008A108B118C128D13908A9478101223FE0B
:1019000078101228648E828F83A3A31224BB123412
:10191000D474041225FBE964016003029A1F90034A
:10192000DEE02406F510A3E03400F511E4F512F52D
:1019300013780879101223EB78081228648E828FAE
:1019400083A3A31224BB1234D474041225FBE964CC
:10195000016003029A1FEE2408F50EE43FF50F859F
:101960000E82F58312287BAA08AB09AC0AAD0B12D4
:10197000353074041225FB9003DE12287F12318C5F
:1019800074021225FB8A088B098C0A8D0B7410785F
:10199000081223B39003B9129A2C9003B5E8F0A370
:1019A000E9F0E82CF8E93509F9A3E8F0A3E9F085B6
:1019B0000E82850F83C082C083129A32122296D083
:1019C00083D08278081223FE908A647808122464F7
:1019D0008E828F83A3A378081224AC129A3212232A
:1019E000EB908A6078081223FE908A6478081224AB
:1019F00064EE2416F582E43FF583E508F0A3E509DB
:101A0000F0A3E50AF0A3E50BF09003E5E09003E412
:101A1000F07AB07B03122A46EEFAEFFB120F98E53C
:101A20000CA2E092AF79007F0C022727E0F8A3E038
:101A3000F9229003DEE0F510A3E0F51178087910A3
:101A400022E0F8A3E0F9E84922F0A3E4F0A322742D
:101A5000F6122655EAFEEBFF8909740B122631E0D7
:101A6000F508740C122631129A2CE50960487401AD
:101A700065096012740365096026740265096020B7
:101A800074046509707DE8496079E50860067401B1
:101A90006508706F74036509600674026509702A31
:101AA000EE2460FAEF129BE85059EC2460FAED1234
:101AB0009BE84016804DEE24E0FAEF129BDD504388
:101AC000EC24E0FAED129BDD5039C3EC9EED9F4013
:101AD00032740A122631E0FC600574016C702474C3
:101AE0000F122631E0FA600F74016A600A74026A0C
:101AF000600574036A700C740E122631E0FB7407E3
:101B00005B70057912029BD89004D6E064017005E1
:101B1000790C029BD874075B9004DAF0E509900415
:101B2000D9F0EA9004DBF0EC9004C8702FE4F09058
:101B3000036DE09004C9F090036EE09004CAF09049
:101B4000036FE09004CBF0900370E09004CCF09031
:101B50000371E09004CDF0900372802E7401F09038
:101B60000373E09004C9F0900374E09004CAF0900D
:101B70000375E09004CBF0900376E09004CCF090F5
:101B80000377E09004CDF0900378E09004CEF074F9
:101B9000016509700B129BF39004D7E4F0A3803524
:101BA000740465097005129BF38023EA70047900C0
:101BB000801974016A70047901801074026A7004DB
:101BC0007902800774036A700579031210CA9004C1
:101BD000D7EEF0A3EFF079007F0202272734FFFB56
:101BE000C3EA94E1EB943F2234FFFBC3EA9461EB38
:101BF000943F22E508A3F088828983E09004D01204
:101C00009C28E09004D1129C28A3E09004D2129C5E
:101C100028A3A3E09004D3129C2FE09004D4129C3C
:101C20002FA3E09004D5F022F088828983A322F0CC
:101C300088828983A3A3A3A32274F6122655E9FE02
:101C4000C39420500BEE9004DFF0601EEA4B70044A
:101C50007912801E129E40122868EAFCEBFD7AE0A1
